{
  "contracts/FamilyWeightRandom.sol": {
    "SortitionSumTreeFactory": {
      "abi": [
        {
          "constant": false,
          "inputs": [
            {
              "name": "self",
              "type": "SortitionSumTreeFactory.SortitionSumTrees storage"
            },
            {
              "name": "_key",
              "type": "bytes32"
            },
            {
              "name": "_value",
              "type": "uint256"
            },
            {
              "name": "_ID",
              "type": "bytes32"
            }
          ],
          "name": "set",
          "outputs": [],
          "payable": false,
          "stateMutability": "nonpayable",
          "type": "function"
        },
        {
          "constant": true,
          "inputs": [
            {
              "name": "self",
              "type": "SortitionSumTreeFactory.SortitionSumTrees storage"
            },
            {
              "name": "_key",
              "type": "bytes32"
            },
            {
              "name": "_cursor",
              "type": "uint256"
            },
            {
              "name": "_count",
              "type": "uint256"
            }
          ],
          "name": "queryLeafs",
          "outputs": [
            {
              "name": "startIndex",
              "type": "uint256"
            },
            {
              "name": "values",
              "type": "uint256[]"
            },
            {
              "name": "hasMore",
              "type": "bool"
            }
          ],
          "payable": false,
          "stateMutability": "view",
          "type": "function"
        },
        {
          "constant": true,
          "inputs": [
            {
              "name": "self",
              "type": "SortitionSumTreeFactory.SortitionSumTrees storage"
            },
            {
              "name": "_key",
              "type": "bytes32"
            },
            {
              "name": "_ID",
              "type": "bytes32"
            }
          ],
          "name": "stakeOf",
          "outputs": [
            {
              "name": "value",
              "type": "uint256"
            }
          ],
          "payable": false,
          "stateMutability": "view",
          "type": "function"
        },
        {
          "constant": true,
          "inputs": [
            {
              "name": "self",
              "type": "SortitionSumTreeFactory.SortitionSumTrees storage"
            },
            {
              "name": "_key",
              "type": "bytes32"
            },
            {
              "name": "_drawnNumber",
              "type": "uint256"
            }
          ],
          "name": "draw",
          "outputs": [
            {
              "name": "ID",
              "type": "bytes32"
            }
          ],
          "payable": false,
          "stateMutability": "view",
          "type": "function"
        },
        {
          "constant": false,
          "inputs": [
            {
              "name": "self",
              "type": "SortitionSumTreeFactory.SortitionSumTrees storage"
            },
            {
              "name": "_key",
              "type": "bytes32"
            },
            {
              "name": "_K",
              "type": "uint256"
            }
          ],
          "name": "createTree",
          "outputs": [],
          "payable": false,
          "stateMutability": "nonpayable",
          "type": "function"
        }
      ],
      "evm": {
        "bytecode": {
          "linkReferences": {},
          "object": "610bcf610030600b82828239805160001a6073146000811461002057610022565bfe5b5030600052607381538281f3007300000000000000000000000000000000000000003014608060405260043610610084576000357c0100000000000000000000000000000000000000000000000000000000900463ffffffff1680632e25c38a1461008957806365b81f4f146100dc5780637521ccb11461018557806388c1d467146101d55780639075789e14610229575b600080fd5b81801561009557600080fd5b506100da60048036038101908080359060200190929190803560001916906020019092919080359060200190929190803560001916906020019092919050505061026e565b005b61011c6004803603810190808035906020019092919080356000191690602001909291908035906020019092919080359060200190929190505050610658565b604051808481526020018060200183151515158152602001828103825284818151815260200191508051906020019060200280838360005b8381101561016f578082015181840152602081019050610154565b5050505090500194505050505060405180910390f35b6101bf60048036038101908080359060200190929190803560001916906020019092919080356000191690602001909291905050506107a6565b6040518082815260200191505060405180910390f35b61020b60048036038101908080359060200190929190803560001916906020019092919080359060200190929190505050610824565b60405180826000191660001916815260200191505060405180910390f35b81801561023557600080fd5b5061026c60048036038101908080359060200190929190803560001916906020019092919080359060200190929190505050610922565b005b6000806000806000806000808b60000160008c6000191660001916815260200190815260200160002097508760030160008a6000191660001916815260200190815260200160002054965060008714156104c95760008a1415156104c4576000886001018054905014156104145787600201805490509650876002018a9080600181540180825580915050906001820390600052602060002001600090919290919091505550600187141580156103375750600088600001546001890381151561033457fe5b06145b1561040f5787600001548781151561034b57fe5b04955087600401600087815260200190815260200160002054945060018701935087600201886002018781548110151561038157fe5b9060005260206000200154908060018154018082558091505090600182039060005260206000200160009091929091909150555087600401600087815260200190815260200160002060009055838860030160008760001916600019168152602001908152602001600020819055508488600401600086815260200190815260200160002081600019169055505b610475565b87600101600189600101805490500381548110151561042f57fe5b90600052602060002001549650876001018054809190600190036104539190610b52565b5089886002018881548110151561046657fe5b90600052602060002001819055505b868860030160008b60001916600019168152602001908152602001600020819055508888600401600089815260200190815260200160002081600019169055506104c38c8c8960018e610a99565b5b61064a565b60008a141561058c5787600201878154811015156104e357fe5b906000526020600020015492506000886002018881548110151561050357fe5b9060005260206000200181905550876001018790806001815401808255809150509060018203906000526020600020016000909192909190915055508760030160008a6000191660001916815260200190815260200160002060009055876004016000888152602001908152602001600020600090556105878c8c89600087610a99565b610649565b876002018781548110151561059d57fe5b90600052602060002001548a141515610648578988600201888154811015156105c257fe5b906000526020600020015411159150816105f9578988600201888154811015156105e857fe5b906000526020600020015403610618565b876002018781548110151561060a57fe5b90600052602060002001548a035b905089886002018881548110151561062c57fe5b90600052602060002001819055506106478c8c898585610a99565b5b5b5b505050505050505050505050565b600060606000806000806000808b60000160008c600019166000191681526020019081526020016000209450600093505b84600201805490508410156106c6578460020180549050600185876000015402011015156106b9578397506106c6565b8380600101945050610689565b89880192508460020180549050898401116106e157886106ec565b828560020180549050035b60405190808252806020026020018201604052801561071a5781602001602082028038833980820191505090505b509650600091508290505b8460020180549050811015610797578882101561078157846002018181548110151561074d57fe5b9060005260206000200154878381518110151561076657fe5b9060200190602002018181525050818060010192505061078a565b60019550610797565b8080600101915050610725565b50505050509450945094915050565b600080600085600001600086600019166000191681526020019081526020016000209150816003016000856000191660001916815260200190815260200160002054905060008114156107fc576000925061081b565b816002018181548110151561080d57fe5b906000526020600020015492505b50509392505050565b60008060008060008060008960000160008a6000191660001916815260200190815260200160002095506000945085600201600081548110151561086457fe5b90600052602060002001548881151561087957fe5b0693505b85600201805490506001868860000154020110156108fd57600192505b8560000154831115156108f857828587600001540201915085600201828154811015156108c357fe5b9060005260206000200154905080841015156108e35780840393506108eb565b8194506108f8565b828060010193505061089a565b61087d565b8560040160008681526020019081526020016000205496505050505050509392505050565b600083600001600084600019166000191681526020019081526020016000209050600081600001541415156109bf576040517f08c379a00000000000000000000000000000000000000000000000000000000081526004018080602001828103825260148152602001807f5472656520616c7265616479206578697374732e00000000000000000000000081525060200191505060405180910390fd5b600182111515610a37576040517f08c379a000000000000000000000000000000000000000000000000000000000815260040180806020018281038252601b8152602001807f4b206d7573742062652067726561746572207468616e206f6e652e000000000081525060200191505060405180910390fd5b81816000018190555060008160010181610a519190610b52565b5060008160020181610a639190610b52565b50806002016000908060018154018082558091505090600182039060005260206000200160009091929091909150555050505050565b600080866000016000876000191660001916815260200190815260200160002091508490505b600081141515610b4957816000015460018203811515610adb57fe5b04905083610b0657828260020182815481101515610af557fe5b906000526020600020015403610b25565b828260020182815481101515610b1857fe5b9060005260206000200154015b8260020182815481101515610b3657fe5b9060005260206000200181905550610abf565b50505050505050565b815481835581811115610b7957818360005260206000209182019101610b789190610b7e565b5b505050565b610ba091905b80821115610b9c576000816000905550600101610b84565b5090565b905600a165627a7a72305820980dd81e6c755f873b0bbc6fe8414003428433258864acffc267f411626243dd0029",
          "opcodes": "PUSH2 0xBCF PUSH2 0x30 PUSH1 0xB DUP3 DUP3 DUP3 CODECOPY DUP1 MLOAD PUSH1 0x0 BYTE PUSH1 0x73 EQ PUSH1 0x0 DUP2 EQ PUSH2 0x20 JUMPI PUSH2 0x22 JUMP JUMPDEST INVALID JUMPDEST POP ADDRESS PUSH1 0x0 MSTORE PUSH1 0x73 DUP2 MSTORE8 DUP3 DUP2 RETURN STOP PUSH20 0x0 ADDRESS EQ PUSH1 0x80 PUSH1 0x40 MSTORE PUSH1 0x4 CALLDATASIZE LT PUSH2 0x84 JUMPI PUSH1 0x0 CALLDATALOAD PUSH29 0x100000000000000000000000000000000000000000000000000000000 SWAP1 DIV PUSH4 0xFFFFFFFF AND DUP1 PUSH4 0x2E25C38A EQ PUSH2 0x89 JUMPI DUP1 PUSH4 0x65B81F4F EQ PUSH2 0xDC JUMPI DUP1 PUSH4 0x7521CCB1 EQ PUSH2 0x185 JUMPI DUP1 PUSH4 0x88C1D467 EQ PUSH2 0x1D5 JUMPI DUP1 PUSH4 0x9075789E EQ PUSH2 0x229 JUMPI JUMPDEST PUSH1 0x0 DUP1 REVERT JUMPDEST DUP2 DUP1 ISZERO PUSH2 0x95 JUMPI PUSH1 0x0 DUP1 REVERT JUMPDEST POP PUSH2 0xDA PUSH1 0x4 DUP1 CALLDATASIZE SUB DUP2 ADD SWAP1 DUP1 DUP1 CALLDATALOAD SWAP1 PUSH1 0x20 ADD SWAP1 SWAP3 SWAP2 SWAP1 DUP1 CALLDATALOAD PUSH1 0x0 NOT AND SWAP1 PUSH1 0x20 ADD SWAP1 SWAP3 SWAP2 SWAP1 DUP1 CALLDATALOAD SWAP1 PUSH1 0x20 ADD SWAP1 SWAP3 SWAP2 SWAP1 DUP1 CALLDATALOAD PUSH1 0x0 NOT AND SWAP1 PUSH1 0x20 ADD SWAP1 SWAP3 SWAP2 SWAP1 POP POP POP PUSH2 0x26E JUMP JUMPDEST STOP JUMPDEST PUSH2 0x11C PUSH1 0x4 DUP1 CALLDATASIZE SUB DUP2 ADD SWAP1 DUP1 DUP1 CALLDATALOAD SWAP1 PUSH1 0x20 ADD SWAP1 SWAP3 SWAP2 SWAP1 DUP1 CALLDATALOAD PUSH1 0x0 NOT AND SWAP1 PUSH1 0x20 ADD SWAP1 SWAP3 SWAP2 SWAP1 DUP1 CALLDATALOAD SWAP1 PUSH1 0x20 ADD SWAP1 SWAP3 SWAP2 SWAP1 DUP1 CALLDATALOAD SWAP1 PUSH1 0x20 ADD SWAP1 SWAP3 SWAP2 SWAP1 POP POP POP PUSH2 0x658 JUMP JUMPDEST PUSH1 0x40 MLOAD DUP1 DUP5 DUP2 MSTORE PUSH1 0x20 ADD DUP1 PUSH1 0x20 ADD DUP4 ISZERO ISZERO ISZERO ISZERO DUP2 MSTORE PUSH1 0x20 ADD DUP3 DUP2 SUB DUP3 MSTORE DUP5 DUP2 DUP2 MLOAD DUP2 MSTORE PUSH1 0x20 ADD SWAP2 POP DUP1 MLOAD SWAP1 PUSH1 0x20 ADD SWAP1 PUSH1 0x20 MUL DUP1 DUP4 DUP4 PUSH1 0x0 JUMPDEST DUP4 DUP2 LT ISZERO PUSH2 0x16F JUMPI DUP1 DUP3 ADD MLOAD DUP2 DUP5 ADD MSTORE PUSH1 0x20 DUP2 ADD SWAP1 POP PUSH2 0x154 JUMP JUMPDEST POP POP POP POP SWAP1 POP ADD SWAP5 POP POP POP POP POP PUSH1 0x40 MLOAD DUP1 SWAP2 SUB SWAP1 RETURN JUMPDEST PUSH2 0x1BF PUSH1 0x4 DUP1 CALLDATASIZE SUB DUP2 ADD SWAP1 DUP1 DUP1 CALLDATALOAD SWAP1 PUSH1 0x20 ADD SWAP1 SWAP3 SWAP2 SWAP1 DUP1 CALLDATALOAD PUSH1 0x0 NOT AND SWAP1 PUSH1 0x20 ADD SWAP1 SWAP3 SWAP2 SWAP1 DUP1 CALLDATALOAD PUSH1 0x0 NOT AND SWAP1 PUSH1 0x20 ADD SWAP1 SWAP3 SWAP2 SWAP1 POP POP POP PUSH2 0x7A6 JUMP JUMPDEST PUSH1 0x40 MLOAD DUP1 DUP3 DUP2 MSTORE PUSH1 0x20 ADD SWAP2 POP POP PUSH1 0x40 MLOAD DUP1 SWAP2 SUB SWAP1 RETURN JUMPDEST PUSH2 0x20B PUSH1 0x4 DUP1 CALLDATASIZE SUB DUP2 ADD SWAP1 DUP1 DUP1 CALLDATALOAD SWAP1 PUSH1 0x20 ADD SWAP1 SWAP3 SWAP2 SWAP1 DUP1 CALLDATALOAD PUSH1 0x0 NOT AND SWAP1 PUSH1 0x20 ADD SWAP1 SWAP3 SWAP2 SWAP1 DUP1 CALLDATALOAD SWAP1 PUSH1 0x20 ADD SWAP1 SWAP3 SWAP2 SWAP1 POP POP POP PUSH2 0x824 JUMP JUMPDEST PUSH1 0x40 MLOAD DUP1 DUP3 PUSH1 0x0 NOT AND PUSH1 0x0 NOT AND DUP2 MSTORE PUSH1 0x20 ADD SWAP2 POP POP PUSH1 0x40 MLOAD DUP1 SWAP2 SUB SWAP1 RETURN JUMPDEST DUP2 DUP1 ISZERO PUSH2 0x235 JUMPI PUSH1 0x0 DUP1 REVERT JUMPDEST POP PUSH2 0x26C PUSH1 0x4 DUP1 CALLDATASIZE SUB DUP2 ADD SWAP1 DUP1 DUP1 CALLDATALOAD SWAP1 PUSH1 0x20 ADD SWAP1 SWAP3 SWAP2 SWAP1 DUP1 CALLDATALOAD PUSH1 0x0 NOT AND SWAP1 PUSH1 0x20 ADD SWAP1 SWAP3 SWAP2 SWAP1 DUP1 CALLDATALOAD SWAP1 PUSH1 0x20 ADD SWAP1 SWAP3 SWAP2 SWAP1 POP POP POP PUSH2 0x922 JUMP JUMPDEST STOP JUMPDEST PUSH1 0x0 DUP1 PUSH1 0x0 DUP1 PUSH1 0x0 DUP1 PUSH1 0x0 DUP1 DUP12 PUSH1 0x0 ADD PUSH1 0x0 DUP13 PUSH1 0x0 NOT AND PUSH1 0x0 NOT AND DUP2 MSTORE PUSH1 0x20 ADD SWAP1 DUP2 MSTORE PUSH1 0x20 ADD PUSH1 0x0 KECCAK256 SWAP8 POP DUP8 PUSH1 0x3 ADD PUSH1 0x0 DUP11 PUSH1 0x0 NOT AND PUSH1 0x0 NOT AND DUP2 MSTORE PUSH1 0x20 ADD SWAP1 DUP2 MSTORE PUSH1 0x20 ADD PUSH1 0x0 KECCAK256 SLOAD SWAP7 POP PUSH1 0x0 DUP8 EQ ISZERO PUSH2 0x4C9 JUMPI PUSH1 0x0 DUP11 EQ ISZERO ISZERO PUSH2 0x4C4 JUMPI PUSH1 0x0 DUP9 PUSH1 0x1 ADD DUP1 SLOAD SWAP1 POP EQ ISZERO PUSH2 0x414 JUMPI DUP8 PUSH1 0x2 ADD DUP1 SLOAD SWAP1 POP SWAP7 POP DUP8 PUSH1 0x2 ADD DUP11 SWAP1 DUP1 PUSH1 0x1 DUP2 SLOAD ADD DUP1 DUP3 SSTORE DUP1 SWAP2 POP POP SWAP1 PUSH1 0x1 DUP3 SUB SWAP1 PUSH1 0x0 MSTORE PUSH1 0x20 PUSH1 0x0 KECCAK256 ADD PUSH1 0x0 SWAP1 SWAP2 SWAP3 SWAP1 SWAP2 SWAP1 SWAP2 POP SSTORE POP PUSH1 0x1 DUP8 EQ ISZERO DUP1 ISZERO PUSH2 0x337 JUMPI POP PUSH1 0x0 DUP9 PUSH1 0x0 ADD SLOAD PUSH1 0x1 DUP10 SUB DUP2 ISZERO ISZERO PUSH2 0x334 JUMPI INVALID JUMPDEST MOD EQ JUMPDEST ISZERO PUSH2 0x40F JUMPI DUP8 PUSH1 0x0 ADD SLOAD DUP8 DUP2 ISZERO ISZERO PUSH2 0x34B JUMPI INVALID JUMPDEST DIV SWAP6 POP DUP8 PUSH1 0x4 ADD PUSH1 0x0 DUP8 DUP2 MSTORE PUSH1 0x20 ADD SWAP1 DUP2 MSTORE PUSH1 0x20 ADD PUSH1 0x0 KECCAK256 SLOAD SWAP5 POP PUSH1 0x1 DUP8 ADD SWAP4 POP DUP8 PUSH1 0x2 ADD DUP9 PUSH1 0x2 ADD DUP8 DUP2 SLOAD DUP2 LT ISZERO ISZERO PUSH2 0x381 JUMPI INVALID JUMPDEST SWAP1 PUSH1 0x0 MSTORE PUSH1 0x20 PUSH1 0x0 KECCAK256 ADD SLOAD SWAP1 DUP1 PUSH1 0x1 DUP2 SLOAD ADD DUP1 DUP3 SSTORE DUP1 SWAP2 POP POP SWAP1 PUSH1 0x1 DUP3 SUB SWAP1 PUSH1 0x0 MSTORE PUSH1 0x20 PUSH1 0x0 KECCAK256 ADD PUSH1 0x0 SWAP1 SWAP2 SWAP3 SWAP1 SWAP2 SWAP1 SWAP2 POP SSTORE POP DUP8 PUSH1 0x4 ADD PUSH1 0x0 DUP8 DUP2 MSTORE PUSH1 0x20 ADD SWAP1 DUP2 MSTORE PUSH1 0x20 ADD PUSH1 0x0 KECCAK256 PUSH1 0x0 SWAP1 SSTORE DUP4 DUP9 PUSH1 0x3 ADD PUSH1 0x0 DUP8 PUSH1 0x0 NOT AND PUSH1 0x0 NOT AND DUP2 MSTORE PUSH1 0x20 ADD SWAP1 DUP2 MSTORE PUSH1 0x20 ADD PUSH1 0x0 KECCAK256 DUP2 SWAP1 SSTORE POP DUP5 DUP9 PUSH1 0x4 ADD PUSH1 0x0 DUP7 DUP2 MSTORE PUSH1 0x20 ADD SWAP1 DUP2 MSTORE PUSH1 0x20 ADD PUSH1 0x0 KECCAK256 DUP2 PUSH1 0x0 NOT AND SWAP1 SSTORE POP JUMPDEST PUSH2 0x475 JUMP JUMPDEST DUP8 PUSH1 0x1 ADD PUSH1 0x1 DUP10 PUSH1 0x1 ADD DUP1 SLOAD SWAP1 POP SUB DUP2 SLOAD DUP2 LT ISZERO ISZERO PUSH2 0x42F JUMPI INVALID JUMPDEST SWAP1 PUSH1 0x0 MSTORE PUSH1 0x20 PUSH1 0x0 KECCAK256 ADD SLOAD SWAP7 POP DUP8 PUSH1 0x1 ADD DUP1 SLOAD DUP1 SWAP2 SWAP1 PUSH1 0x1 SWAP1 SUB PUSH2 0x453 SWAP2 SWAP1 PUSH2 0xB52 JUMP JUMPDEST POP DUP10 DUP9 PUSH1 0x2 ADD DUP9 DUP2 SLOAD DUP2 LT ISZERO ISZERO PUSH2 0x466 JUMPI INVALID JUMPDEST SWAP1 PUSH1 0x0 MSTORE PUSH1 0x20 PUSH1 0x0 KECCAK256 ADD DUP2 SWAP1 SSTORE POP JUMPDEST DUP7 DUP9 PUSH1 0x3 ADD PUSH1 0x0 DUP12 PUSH1 0x0 NOT AND PUSH1 0x0 NOT AND DUP2 MSTORE PUSH1 0x20 ADD SWAP1 DUP2 MSTORE PUSH1 0x20 ADD PUSH1 0x0 KECCAK256 DUP2 SWAP1 SSTORE POP DUP9 DUP9 PUSH1 0x4 ADD PUSH1 0x0 DUP10 DUP2 MSTORE PUSH1 0x20 ADD SWAP1 DUP2 MSTORE PUSH1 0x20 ADD PUSH1 0x0 KECCAK256 DUP2 PUSH1 0x0 NOT AND SWAP1 SSTORE POP PUSH2 0x4C3 DUP13 DUP13 DUP10 PUSH1 0x1 DUP15 PUSH2 0xA99 JUMP JUMPDEST JUMPDEST PUSH2 0x64A JUMP JUMPDEST PUSH1 0x0 DUP11 EQ ISZERO PUSH2 0x58C JUMPI DUP8 PUSH1 0x2 ADD DUP8 DUP2 SLOAD DUP2 LT ISZERO ISZERO PUSH2 0x4E3 JUMPI INVALID JUMPDEST SWAP1 PUSH1 0x0 MSTORE PUSH1 0x20 PUSH1 0x0 KECCAK256 ADD SLOAD SWAP3 POP PUSH1 0x0 DUP9 PUSH1 0x2 ADD DUP9 DUP2 SLOAD DUP2 LT ISZERO ISZERO PUSH2 0x503 JUMPI INVALID JUMPDEST SWAP1 PUSH1 0x0 MSTORE PUSH1 0x20 PUSH1 0x0 KECCAK256 ADD DUP2 SWAP1 SSTORE POP DUP8 PUSH1 0x1 ADD DUP8 SWAP1 DUP1 PUSH1 0x1 DUP2 SLOAD ADD DUP1 DUP3 SSTORE DUP1 SWAP2 POP POP SWAP1 PUSH1 0x1 DUP3 SUB SWAP1 PUSH1 0x0 MSTORE PUSH1 0x20 PUSH1 0x0 KECCAK256 ADD PUSH1 0x0 SWAP1 SWAP2 SWAP3 SWAP1 SWAP2 SWAP1 SWAP2 POP SSTORE POP DUP8 PUSH1 0x3 ADD PUSH1 0x0 DUP11 PUSH1 0x0 NOT AND PUSH1 0x0 NOT AND DUP2 MSTORE PUSH1 0x20 ADD SWAP1 DUP2 MSTORE PUSH1 0x20 ADD PUSH1 0x0 KECCAK256 PUSH1 0x0 SWAP1 SSTORE DUP8 PUSH1 0x4 ADD PUSH1 0x0 DUP9 DUP2 MSTORE PUSH1 0x20 ADD SWAP1 DUP2 MSTORE PUSH1 0x20 ADD PUSH1 0x0 KECCAK256 PUSH1 0x0 SWAP1 SSTORE PUSH2 0x587 DUP13 DUP13 DUP10 PUSH1 0x0 DUP8 PUSH2 0xA99 JUMP JUMPDEST PUSH2 0x649 JUMP JUMPDEST DUP8 PUSH1 0x2 ADD DUP8 DUP2 SLOAD DUP2 LT ISZERO ISZERO PUSH2 0x59D JUMPI INVALID JUMPDEST SWAP1 PUSH1 0x0 MSTORE PUSH1 0x20 PUSH1 0x0 KECCAK256 ADD SLOAD DUP11 EQ ISZERO ISZERO PUSH2 0x648 JUMPI DUP10 DUP9 PUSH1 0x2 ADD DUP9 DUP2 SLOAD DUP2 LT ISZERO ISZERO PUSH2 0x5C2 JUMPI INVALID JUMPDEST SWAP1 PUSH1 0x0 MSTORE PUSH1 0x20 PUSH1 0x0 KECCAK256 ADD SLOAD GT ISZERO SWAP2 POP DUP2 PUSH2 0x5F9 JUMPI DUP10 DUP9 PUSH1 0x2 ADD DUP9 DUP2 SLOAD DUP2 LT ISZERO ISZERO PUSH2 0x5E8 JUMPI INVALID JUMPDEST SWAP1 PUSH1 0x0 MSTORE PUSH1 0x20 PUSH1 0x0 KECCAK256 ADD SLOAD SUB PUSH2 0x618 JUMP JUMPDEST DUP8 PUSH1 0x2 ADD DUP8 DUP2 SLOAD DUP2 LT ISZERO ISZERO PUSH2 0x60A JUMPI INVALID JUMPDEST SWAP1 PUSH1 0x0 MSTORE PUSH1 0x20 PUSH1 0x0 KECCAK256 ADD SLOAD DUP11 SUB JUMPDEST SWAP1 POP DUP10 DUP9 PUSH1 0x2 ADD DUP9 DUP2 SLOAD DUP2 LT ISZERO ISZERO PUSH2 0x62C JUMPI INVALID JUMPDEST SWAP1 PUSH1 0x0 MSTORE PUSH1 0x20 PUSH1 0x0 KECCAK256 ADD DUP2 SWAP1 SSTORE POP PUSH2 0x647 DUP13 DUP13 DUP10 DUP6 DUP6 PUSH2 0xA99 JUMP JUMPDEST JUMPDEST JUMPDEST JUMPDEST POP POP POP POP POP POP POP POP POP POP POP POP JUMP JUMPDEST PUSH1 0x0 PUSH1 0x60 PUSH1 0x0 DUP1 PUSH1 0x0 DUP1 PUSH1 0x0 DUP1 DUP12 PUSH1 0x0 ADD PUSH1 0x0 DUP13 PUSH1 0x0 NOT AND PUSH1 0x0 NOT AND DUP2 MSTORE PUSH1 0x20 ADD SWAP1 DUP2 MSTORE PUSH1 0x20 ADD PUSH1 0x0 KECCAK256 SWAP5 POP PUSH1 0x0 SWAP4 POP JUMPDEST DUP5 PUSH1 0x2 ADD DUP1 SLOAD SWAP1 POP DUP5 LT ISZERO PUSH2 0x6C6 JUMPI DUP5 PUSH1 0x2 ADD DUP1 SLOAD SWAP1 POP PUSH1 0x1 DUP6 DUP8 PUSH1 0x0 ADD SLOAD MUL ADD LT ISZERO ISZERO PUSH2 0x6B9 JUMPI DUP4 SWAP8 POP PUSH2 0x6C6 JUMP JUMPDEST DUP4 DUP1 PUSH1 0x1 ADD SWAP5 POP POP PUSH2 0x689 JUMP JUMPDEST DUP10 DUP9 ADD SWAP3 POP DUP5 PUSH1 0x2 ADD DUP1 SLOAD SWAP1 POP DUP10 DUP5 ADD GT PUSH2 0x6E1 JUMPI DUP9 PUSH2 0x6EC JUMP JUMPDEST DUP3 DUP6 PUSH1 0x2 ADD DUP1 SLOAD SWAP1 POP SUB JUMPDEST PUSH1 0x40 MLOAD SWAP1 DUP1 DUP3 MSTORE DUP1 PUSH1 0x20 MUL PUSH1 0x20 ADD DUP3 ADD PUSH1 0x40 MSTORE DUP1 ISZERO PUSH2 0x71A JUMPI DUP2 PUSH1 0x20 ADD PUSH1 0x20 DUP3 MUL DUP1 CODESIZE DUP4 CODECOPY DUP1 DUP3 ADD SWAP2 POP POP SWAP1 POP JUMPDEST POP SWAP7 POP PUSH1 0x0 SWAP2 POP DUP3 SWAP1 POP JUMPDEST DUP5 PUSH1 0x2 ADD DUP1 SLOAD SWAP1 POP DUP2 LT ISZERO PUSH2 0x797 JUMPI DUP9 DUP3 LT ISZERO PUSH2 0x781 JUMPI DUP5 PUSH1 0x2 ADD DUP2 DUP2 SLOAD DUP2 LT ISZERO ISZERO PUSH2 0x74D JUMPI INVALID JUMPDEST SWAP1 PUSH1 0x0 MSTORE PUSH1 0x20 PUSH1 0x0 KECCAK256 ADD SLOAD DUP8 DUP4 DUP2 MLOAD DUP2 LT ISZERO ISZERO PUSH2 0x766 JUMPI INVALID JUMPDEST SWAP1 PUSH1 0x20 ADD SWAP1 PUSH1 0x20 MUL ADD DUP2 DUP2 MSTORE POP POP DUP2 DUP1 PUSH1 0x1 ADD SWAP3 POP POP PUSH2 0x78A JUMP JUMPDEST PUSH1 0x1 SWAP6 POP PUSH2 0x797 JUMP JUMPDEST DUP1 DUP1 PUSH1 0x1 ADD SWAP2 POP POP PUSH2 0x725 JUMP JUMPDEST POP POP POP POP POP SWAP5 POP SWAP5 POP SWAP5 SWAP2 POP POP JUMP JUMPDEST PUSH1 0x0 DUP1 PUSH1 0x0 DUP6 PUSH1 0x0 ADD PUSH1 0x0 DUP7 PUSH1 0x0 NOT AND PUSH1 0x0 NOT AND DUP2 MSTORE PUSH1 0x20 ADD SWAP1 DUP2 MSTORE PUSH1 0x20 ADD PUSH1 0x0 KECCAK256 SWAP2 POP DUP2 PUSH1 0x3 ADD PUSH1 0x0 DUP6 PUSH1 0x0 NOT AND PUSH1 0x0 NOT AND DUP2 MSTORE PUSH1 0x20 ADD SWAP1 DUP2 MSTORE PUSH1 0x20 ADD PUSH1 0x0 KECCAK256 SLOAD SWAP1 POP PUSH1 0x0 DUP2 EQ ISZERO PUSH2 0x7FC JUMPI PUSH1 0x0 SWAP3 POP PUSH2 0x81B JUMP JUMPDEST DUP2 PUSH1 0x2 ADD DUP2 DUP2 SLOAD DUP2 LT ISZERO ISZERO PUSH2 0x80D JUMPI INVALID JUMPDEST SWAP1 PUSH1 0x0 MSTORE PUSH1 0x20 PUSH1 0x0 KECCAK256 ADD SLOAD SWAP3 POP JUMPDEST POP POP SWAP4 SWAP3 POP POP POP JUMP JUMPDEST PUSH1 0x0 DUP1 PUSH1 0x0 DUP1 PUSH1 0x0 DUP1 PUSH1 0x0 DUP10 PUSH1 0x0 ADD PUSH1 0x0 DUP11 PUSH1 0x0 NOT AND PUSH1 0x0 NOT AND DUP2 MSTORE PUSH1 0x20 ADD SWAP1 DUP2 MSTORE PUSH1 0x20 ADD PUSH1 0x0 KECCAK256 SWAP6 POP PUSH1 0x0 SWAP5 POP DUP6 PUSH1 0x2 ADD PUSH1 0x0 DUP2 SLOAD DUP2 LT ISZERO ISZERO PUSH2 0x864 JUMPI INVALID JUMPDEST SWAP1 PUSH1 0x0 MSTORE PUSH1 0x20 PUSH1 0x0 KECCAK256 ADD SLOAD DUP9 DUP2 ISZERO ISZERO PUSH2 0x879 JUMPI INVALID JUMPDEST MOD SWAP4 POP JUMPDEST DUP6 PUSH1 0x2 ADD DUP1 SLOAD SWAP1 POP PUSH1 0x1 DUP7 DUP9 PUSH1 0x0 ADD SLOAD MUL ADD LT ISZERO PUSH2 0x8FD JUMPI PUSH1 0x1 SWAP3 POP JUMPDEST DUP6 PUSH1 0x0 ADD SLOAD DUP4 GT ISZERO ISZERO PUSH2 0x8F8 JUMPI DUP3 DUP6 DUP8 PUSH1 0x0 ADD SLOAD MUL ADD SWAP2 POP DUP6 PUSH1 0x2 ADD DUP3 DUP2 SLOAD DUP2 LT ISZERO ISZERO PUSH2 0x8C3 JUMPI INVALID JUMPDEST SWAP1 PUSH1 0x0 MSTORE PUSH1 0x20 PUSH1 0x0 KECCAK256 ADD SLOAD SWAP1 POP DUP1 DUP5 LT ISZERO ISZERO PUSH2 0x8E3 JUMPI DUP1 DUP5 SUB SWAP4 POP PUSH2 0x8EB JUMP JUMPDEST DUP2 SWAP5 POP PUSH2 0x8F8 JUMP JUMPDEST DUP3 DUP1 PUSH1 0x1 ADD SWAP4 POP POP PUSH2 0x89A JUMP JUMPDEST PUSH2 0x87D JUMP JUMPDEST DUP6 PUSH1 0x4 ADD PUSH1 0x0 DUP7 DUP2 MSTORE PUSH1 0x20 ADD SWAP1 DUP2 MSTORE PUSH1 0x20 ADD PUSH1 0x0 KECCAK256 SLOAD SWAP7 POP POP POP POP POP POP POP SWAP4 SWAP3 POP POP POP JUMP JUMPDEST PUSH1 0x0 DUP4 PUSH1 0x0 ADD PUSH1 0x0 DUP5 PUSH1 0x0 NOT AND PUSH1 0x0 NOT AND DUP2 MSTORE PUSH1 0x20 ADD SWAP1 DUP2 MSTORE PUSH1 0x20 ADD PUSH1 0x0 KECCAK256 SWAP1 POP PUSH1 0x0 DUP2 PUSH1 0x0 ADD SLOAD EQ ISZERO ISZERO PUSH2 0x9BF JUMPI PUSH1 0x40 MLOAD PUSH32 0x8C379A000000000000000000000000000000000000000000000000000000000 DUP2 MSTORE PUSH1 0x4 ADD DUP1 DUP1 PUSH1 0x20 ADD DUP3 DUP2 SUB DUP3 MSTORE PUSH1 0x14 DUP2 MSTORE PUSH1 0x20 ADD DUP1 PUSH32 0x5472656520616C7265616479206578697374732E000000000000000000000000 DUP2 MSTORE POP PUSH1 0x20 ADD SWAP2 POP POP PUSH1 0x40 MLOAD DUP1 SWAP2 SUB SWAP1 REVERT JUMPDEST PUSH1 0x1 DUP3 GT ISZERO ISZERO PUSH2 0xA37 JUMPI PUSH1 0x40 MLOAD PUSH32 0x8C379A000000000000000000000000000000000000000000000000000000000 DUP2 MSTORE PUSH1 0x4 ADD DUP1 DUP1 PUSH1 0x20 ADD DUP3 DUP2 SUB DUP3 MSTORE PUSH1 0x1B DUP2 MSTORE PUSH1 0x20 ADD DUP1 PUSH32 0x4B206D7573742062652067726561746572207468616E206F6E652E0000000000 DUP2 MSTORE POP PUSH1 0x20 ADD SWAP2 POP POP PUSH1 0x40 MLOAD DUP1 SWAP2 SUB SWAP1 REVERT JUMPDEST DUP2 DUP2 PUSH1 0x0 ADD DUP2 SWAP1 SSTORE POP PUSH1 0x0 DUP2 PUSH1 0x1 ADD DUP2 PUSH2 0xA51 SWAP2 SWAP1 PUSH2 0xB52 JUMP JUMPDEST POP PUSH1 0x0 DUP2 PUSH1 0x2 ADD DUP2 PUSH2 0xA63 SWAP2 SWAP1 PUSH2 0xB52 JUMP JUMPDEST POP DUP1 PUSH1 0x2 ADD PUSH1 0x0 SWAP1 DUP1 PUSH1 0x1 DUP2 SLOAD ADD DUP1 DUP3 SSTORE DUP1 SWAP2 POP POP SWAP1 PUSH1 0x1 DUP3 SUB SWAP1 PUSH1 0x0 MSTORE PUSH1 0x20 PUSH1 0x0 KECCAK256 ADD PUSH1 0x0 SWAP1 SWAP2 SWAP3 SWAP1 SWAP2 SWAP1 SWAP2 POP SSTORE POP POP POP POP POP JUMP JUMPDEST PUSH1 0x0 DUP1 DUP7 PUSH1 0x0 ADD PUSH1 0x0 DUP8 PUSH1 0x0 NOT AND PUSH1 0x0 NOT AND DUP2 MSTORE PUSH1 0x20 ADD SWAP1 DUP2 MSTORE PUSH1 0x20 ADD PUSH1 0x0 KECCAK256 SWAP2 POP DUP5 SWAP1 POP JUMPDEST PUSH1 0x0 DUP2 EQ ISZERO ISZERO PUSH2 0xB49 JUMPI DUP2 PUSH1 0x0 ADD SLOAD PUSH1 0x1 DUP3 SUB DUP2 ISZERO ISZERO PUSH2 0xADB JUMPI INVALID JUMPDEST DIV SWAP1 POP DUP4 PUSH2 0xB06 JUMPI DUP3 DUP3 PUSH1 0x2 ADD DUP3 DUP2 SLOAD DUP2 LT ISZERO ISZERO PUSH2 0xAF5 JUMPI INVALID JUMPDEST SWAP1 PUSH1 0x0 MSTORE PUSH1 0x20 PUSH1 0x0 KECCAK256 ADD SLOAD SUB PUSH2 0xB25 JUMP JUMPDEST DUP3 DUP3 PUSH1 0x2 ADD DUP3 DUP2 SLOAD DUP2 LT ISZERO ISZERO PUSH2 0xB18 JUMPI INVALID JUMPDEST SWAP1 PUSH1 0x0 MSTORE PUSH1 0x20 PUSH1 0x0 KECCAK256 ADD SLOAD ADD JUMPDEST DUP3 PUSH1 0x2 ADD DUP3 DUP2 SLOAD DUP2 LT ISZERO ISZERO PUSH2 0xB36 JUMPI INVALID JUMPDEST SWAP1 PUSH1 0x0 MSTORE PUSH1 0x20 PUSH1 0x0 KECCAK256 ADD DUP2 SWAP1 SSTORE POP PUSH2 0xABF JUMP JUMPDEST POP POP POP POP POP POP POP JUMP JUMPDEST DUP2 SLOAD DUP2 DUP4 SSTORE DUP2 DUP2 GT ISZERO PUSH2 0xB79 JUMPI DUP2 DUP4 PUSH1 0x0 MSTORE PUSH1 0x20 PUSH1 0x0 KECCAK256 SWAP2 DUP3 ADD SWAP2 ADD PUSH2 0xB78 SWAP2 SWAP1 PUSH2 0xB7E JUMP JUMPDEST JUMPDEST POP POP POP JUMP JUMPDEST PUSH2 0xBA0 SWAP2 SWAP1 JUMPDEST DUP1 DUP3 GT ISZERO PUSH2 0xB9C JUMPI PUSH1 0x0 DUP2 PUSH1 0x0 SWAP1 SSTORE POP PUSH1 0x1 ADD PUSH2 0xB84 JUMP JUMPDEST POP SWAP1 JUMP JUMPDEST SWAP1 JUMP STOP LOG1 PUSH6 0x627A7A723058 KECCAK256 SWAP9 0xd 0xd8 0x1e PUSH13 0x755F873B0BBC6FE84140034284 CALLER 0x25 DUP9 PUSH5 0xACFFC267F4 GT PUSH3 0x6243DD STOP 0x29 "
        },
        "methodIdentifiers": {
          "createTree(SortitionSumTreeFactory.SortitionSumTrees storage,bytes32,uint256)": "9075789e",
          "draw(SortitionSumTreeFactory.SortitionSumTrees storage,bytes32,uint256)": "88c1d467",
          "queryLeafs(SortitionSumTreeFactory.SortitionSumTrees storage,bytes32,uint256,uint256)": "65b81f4f",
          "set(SortitionSumTreeFactory.SortitionSumTrees storage,bytes32,uint256,bytes32)": "2e25c38a",
          "stakeOf(SortitionSumTreeFactory.SortitionSumTrees storage,bytes32,bytes32)": "7521ccb1"
        }
      }
    }
  }
}