{
  "_format": "hh-sol-artifact-1",
  "contractName": "VonderNFT",
  "sourceName": "contracts/VonderNFT.sol",
  "abi": [
    {
      "inputs": [],
      "stateMutability": "nonpayable",
      "type": "constructor"
    },
    {
      "anonymous": false,
      "inputs": [
        {
          "indexed": true,
          "internalType": "address",
          "name": "owner",
          "type": "address"
        },
        {
          "indexed": true,
          "internalType": "address",
          "name": "approved",
          "type": "address"
        },
        {
          "indexed": true,
          "internalType": "uint256",
          "name": "tokenId",
          "type": "uint256"
        }
      ],
      "name": "Approval",
      "type": "event"
    },
    {
      "anonymous": false,
      "inputs": [
        {
          "indexed": true,
          "internalType": "address",
          "name": "owner",
          "type": "address"
        },
        {
          "indexed": true,
          "internalType": "address",
          "name": "operator",
          "type": "address"
        },
        {
          "indexed": false,
          "internalType": "bool",
          "name": "approved",
          "type": "bool"
        }
      ],
      "name": "ApprovalForAll",
      "type": "event"
    },
    {
      "anonymous": false,
      "inputs": [
        {
          "indexed": true,
          "internalType": "address",
          "name": "previousOwner",
          "type": "address"
        },
        {
          "indexed": true,
          "internalType": "address",
          "name": "newOwner",
          "type": "address"
        }
      ],
      "name": "OwnershipTransferred",
      "type": "event"
    },
    {
      "anonymous": false,
      "inputs": [
        {
          "indexed": false,
          "internalType": "address",
          "name": "account",
          "type": "address"
        }
      ],
      "name": "Paused",
      "type": "event"
    },
    {
      "anonymous": false,
      "inputs": [
        {
          "indexed": true,
          "internalType": "address",
          "name": "from",
          "type": "address"
        },
        {
          "indexed": true,
          "internalType": "address",
          "name": "to",
          "type": "address"
        },
        {
          "indexed": true,
          "internalType": "uint256",
          "name": "tokenId",
          "type": "uint256"
        }
      ],
      "name": "Transfer",
      "type": "event"
    },
    {
      "anonymous": false,
      "inputs": [
        {
          "indexed": false,
          "internalType": "address",
          "name": "account",
          "type": "address"
        }
      ],
      "name": "Unpaused",
      "type": "event"
    },
    {
      "inputs": [
        {
          "internalType": "address",
          "name": "to",
          "type": "address"
        },
        {
          "internalType": "uint256",
          "name": "tokenId",
          "type": "uint256"
        }
      ],
      "name": "approve",
      "outputs": [],
      "stateMutability": "nonpayable",
      "type": "function"
    },
    {
      "inputs": [
        {
          "internalType": "address",
          "name": "owner",
          "type": "address"
        }
      ],
      "name": "balanceOf",
      "outputs": [
        {
          "internalType": "uint256",
          "name": "",
          "type": "uint256"
        }
      ],
      "stateMutability": "view",
      "type": "function"
    },
    {
      "inputs": [
        {
          "internalType": "uint256",
          "name": "tokenId",
          "type": "uint256"
        }
      ],
      "name": "burn",
      "outputs": [],
      "stateMutability": "nonpayable",
      "type": "function"
    },
    {
      "inputs": [
        {
          "internalType": "uint256",
          "name": "tokenId",
          "type": "uint256"
        }
      ],
      "name": "getApproved",
      "outputs": [
        {
          "internalType": "address",
          "name": "",
          "type": "address"
        }
      ],
      "stateMutability": "view",
      "type": "function"
    },
    {
      "inputs": [],
      "name": "initialize",
      "outputs": [],
      "stateMutability": "nonpayable",
      "type": "function"
    },
    {
      "inputs": [
        {
          "internalType": "address",
          "name": "owner",
          "type": "address"
        },
        {
          "internalType": "address",
          "name": "operator",
          "type": "address"
        }
      ],
      "name": "isApprovedForAll",
      "outputs": [
        {
          "internalType": "bool",
          "name": "",
          "type": "bool"
        }
      ],
      "stateMutability": "view",
      "type": "function"
    },
    {
      "inputs": [],
      "name": "name",
      "outputs": [
        {
          "internalType": "string",
          "name": "",
          "type": "string"
        }
      ],
      "stateMutability": "view",
      "type": "function"
    },
    {
      "inputs": [],
      "name": "owner",
      "outputs": [
        {
          "internalType": "address",
          "name": "",
          "type": "address"
        }
      ],
      "stateMutability": "view",
      "type": "function"
    },
    {
      "inputs": [
        {
          "internalType": "uint256",
          "name": "tokenId",
          "type": "uint256"
        }
      ],
      "name": "ownerOf",
      "outputs": [
        {
          "internalType": "address",
          "name": "",
          "type": "address"
        }
      ],
      "stateMutability": "view",
      "type": "function"
    },
    {
      "inputs": [],
      "name": "pause",
      "outputs": [],
      "stateMutability": "nonpayable",
      "type": "function"
    },
    {
      "inputs": [],
      "name": "paused",
      "outputs": [
        {
          "internalType": "bool",
          "name": "",
          "type": "bool"
        }
      ],
      "stateMutability": "view",
      "type": "function"
    },
    {
      "inputs": [],
      "name": "renounceOwnership",
      "outputs": [],
      "stateMutability": "nonpayable",
      "type": "function"
    },
    {
      "inputs": [
        {
          "internalType": "address",
          "name": "to",
          "type": "address"
        }
      ],
      "name": "safeMint",
      "outputs": [],
      "stateMutability": "nonpayable",
      "type": "function"
    },
    {
      "inputs": [
        {
          "internalType": "address",
          "name": "from",
          "type": "address"
        },
        {
          "internalType": "address",
          "name": "to",
          "type": "address"
        },
        {
          "internalType": "uint256",
          "name": "tokenId",
          "type": "uint256"
        }
      ],
      "name": "safeTransferFrom",
      "outputs": [],
      "stateMutability": "nonpayable",
      "type": "function"
    },
    {
      "inputs": [
        {
          "internalType": "address",
          "name": "from",
          "type": "address"
        },
        {
          "internalType": "address",
          "name": "to",
          "type": "address"
        },
        {
          "internalType": "uint256",
          "name": "tokenId",
          "type": "uint256"
        },
        {
          "internalType": "bytes",
          "name": "_data",
          "type": "bytes"
        }
      ],
      "name": "safeTransferFrom",
      "outputs": [],
      "stateMutability": "nonpayable",
      "type": "function"
    },
    {
      "inputs": [
        {
          "internalType": "address",
          "name": "operator",
          "type": "address"
        },
        {
          "internalType": "bool",
          "name": "approved",
          "type": "bool"
        }
      ],
      "name": "setApprovalForAll",
      "outputs": [],
      "stateMutability": "nonpayable",
      "type": "function"
    },
    {
      "inputs": [
        {
          "internalType": "bytes4",
          "name": "interfaceId",
          "type": "bytes4"
        }
      ],
      "name": "supportsInterface",
      "outputs": [
        {
          "internalType": "bool",
          "name": "",
          "type": "bool"
        }
      ],
      "stateMutability": "view",
      "type": "function"
    },
    {
      "inputs": [],
      "name": "symbol",
      "outputs": [
        {
          "internalType": "string",
          "name": "",
          "type": "string"
        }
      ],
      "stateMutability": "view",
      "type": "function"
    },
    {
      "inputs": [
        {
          "internalType": "uint256",
          "name": "index",
          "type": "uint256"
        }
      ],
      "name": "tokenByIndex",
      "outputs": [
        {
          "internalType": "uint256",
          "name": "",
          "type": "uint256"
        }
      ],
      "stateMutability": "view",
      "type": "function"
    },
    {
      "inputs": [
        {
          "internalType": "address",
          "name": "owner",
          "type": "address"
        },
        {
          "internalType": "uint256",
          "name": "index",
          "type": "uint256"
        }
      ],
      "name": "tokenOfOwnerByIndex",
      "outputs": [
        {
          "internalType": "uint256",
          "name": "",
          "type": "uint256"
        }
      ],
      "stateMutability": "view",
      "type": "function"
    },
    {
      "inputs": [
        {
          "internalType": "uint256",
          "name": "tokenId",
          "type": "uint256"
        }
      ],
      "name": "tokenURI",
      "outputs": [
        {
          "internalType": "string",
          "name": "",
          "type": "string"
        }
      ],
      "stateMutability": "view",
      "type": "function"
    },
    {
      "inputs": [],
      "name": "totalSupply",
      "outputs": [
        {
          "internalType": "uint256",
          "name": "",
          "type": "uint256"
        }
      ],
      "stateMutability": "view",
      "type": "function"
    },
    {
      "inputs": [
        {
          "internalType": "address",
          "name": "from",
          "type": "address"
        },
        {
          "internalType": "address",
          "name": "to",
          "type": "address"
        },
        {
          "internalType": "uint256",
          "name": "tokenId",
          "type": "uint256"
        }
      ],
      "name": "transferFrom",
      "outputs": [],
      "stateMutability": "nonpayable",
      "type": "function"
    },
    {
      "inputs": [
        {
          "internalType": "address",
          "name": "newOwner",
          "type": "address"
        }
      ],
      "name": "transferOwnership",
      "outputs": [],
      "stateMutability": "nonpayable",
      "type": "function"
    },
    {
      "inputs": [],
      "name": "unpause",
      "outputs": [],
      "stateMutability": "nonpayable",
      "type": "function"
    }
  ],
  "bytecode": "0x60806040523480156200001157600080fd5b50600060019054906101000a900460ff168062000039575060008054906101000a900460ff16155b6200007b576040517f08c379a000000000000000000000000000000000000000000000000000000000815260040162000072906200011c565b60405180910390fd5b60008060019054906101000a900460ff161590508015620000cc576001600060016101000a81548160ff02191690831515021790555060016000806101000a81548160ff0219169083151502179055505b8015620000ee5760008060016101000a81548160ff0219169083151502179055505b506200019e565b600062000104602e836200013e565b915062000111826200014f565b604082019050919050565b600060208201905081810360008301526200013781620000f5565b9050919050565b600082825260208201905092915050565b7f496e697469616c697a61626c653a20636f6e747261637420697320616c72656160008201527f647920696e697469616c697a6564000000000000000000000000000000000000602082015250565b614ba780620001ae6000396000f3fe608060405234801561001057600080fd5b50600436106101735760003560e01c80635c975abb116100de5780638da5cb5b11610097578063b88d4fde11610071578063b88d4fde146103fe578063c87b56dd1461041a578063e985e9c51461044a578063f2fde38b1461047a57610173565b80638da5cb5b146103a657806395d89b41146103c4578063a22cb465146103e257610173565b80635c975abb1461030a5780636352211e1461032857806370a0823114610358578063715018a6146103885780638129fc1c146103925780638456cb591461039c57610173565b80632f745c59116101305780632f745c591461024c5780633f4ba83a1461027c57806340d097c31461028657806342842e0e146102a257806342966c68146102be5780634f6ccce7146102da57610173565b806301ffc9a71461017857806306fdde03146101a8578063081812fc146101c6578063095ea7b3146101f657806318160ddd1461021257806323b872dd14610230575b600080fd5b610192600480360381019061018d919061387b565b610496565b60405161019f9190613d82565b60405180910390f35b6101b06104a8565b6040516101bd9190613d9d565b60405180910390f35b6101e060048036038101906101db91906138d5565b61053a565b6040516101ed9190613d1b565b60405180910390f35b610210600480360381019061020b919061383b565b6105bf565b005b61021a6106d7565b604051610227919061409f565b60405180910390f35b61024a60048036038101906102459190613725565b6106e4565b005b6102666004803603810190610261919061383b565b610744565b604051610273919061409f565b60405180910390f35b6102846107e9565b005b6102a0600480360381019061029b91906136b8565b61086f565b005b6102bc60048036038101906102b79190613725565b61090d565b005b6102d860048036038101906102d391906138d5565b61092d565b005b6102f460048036038101906102ef91906138d5565b610989565b604051610301919061409f565b60405180910390f35b6103126109fa565b60405161031f9190613d82565b60405180910390f35b610342600480360381019061033d91906138d5565b610a11565b60405161034f9190613d1b565b60405180910390f35b610372600480360381019061036d91906136b8565b610ac3565b60405161037f919061409f565b60405180910390f35b610390610b7b565b005b61039a610c03565b005b6103a4610d78565b005b6103ae610dfe565b6040516103bb9190613d1b565b60405180910390f35b6103cc610e29565b6040516103d99190613d9d565b60405180910390f35b6103fc60048036038101906103f791906137fb565b610ebb565b005b61041860048036038101906104139190613778565b61103c565b005b610434600480360381019061042f91906138d5565b61109e565b6040516104419190613d9d565b60405180910390f35b610464600480360381019061045f91906136e5565b6110b0565b6040516104719190613d82565b60405180910390f35b610494600480360381019061048f91906136b8565b611144565b005b60006104a18261123c565b9050919050565b6060606580546104b7906142c4565b80601f01602080910402602001604051908101604052809291908181526020018280546104e3906142c4565b80156105305780601f1061050557610100808354040283529160200191610530565b820191906000526020600020905b81548152906001019060200180831161051357829003601f168201915b5050505050905090565b6000610545826112b6565b610584576040517f08c379a000000000000000000000000000000000000000000000000000000000815260040161057b90613f9f565b60405180910390fd5b6069600083815260200190815260200160002060009054906101000a900473ffffffffffffffffffffffffffffffffffffffff169050919050565b60006105ca82610a11565b90508073ffffffffffffffffffffffffffffffffffffffff168373ffffffffffffffffffffffffffffffffffffffff16141561063b576040517f08c379a00000000000000000000000000000000000000000000000000000000081526004016106329061401f565b60405180910390fd5b8073ffffffffffffffffffffffffffffffffffffffff1661065a611322565b73ffffffffffffffffffffffffffffffffffffffff161480610689575061068881610683611322565b6110b0565b5b6106c8576040517f08c379a00000000000000000000000000000000000000000000000000000000081526004016106bf90613edf565b60405180910390fd5b6106d2838361132a565b505050565b6000609980549050905090565b6106f56106ef611322565b826113e3565b610734576040517f08c379a000000000000000000000000000000000000000000000000000000000815260040161072b9061403f565b60405180910390fd5b61073f8383836114c1565b505050565b600061074f83610ac3565b8210610790576040517f08c379a000000000000000000000000000000000000000000000000000000000815260040161078790613ddf565b60405180910390fd5b609760008473ffffffffffffffffffffffffffffffffffffffff1673ffffffffffffffffffffffffffffffffffffffff168152602001908152602001600020600083815260200190815260200160002054905092915050565b6107f1611322565b73ffffffffffffffffffffffffffffffffffffffff1661080f610dfe565b73ffffffffffffffffffffffffffffffffffffffff1614610865576040517f08c379a000000000000000000000000000000000000000000000000000000000815260040161085c90613fbf565b60405180910390fd5b61086d61171d565b565b610877611322565b73ffffffffffffffffffffffffffffffffffffffff16610895610dfe565b73ffffffffffffffffffffffffffffffffffffffff16146108eb576040517f08c379a00000000000000000000000000000000000000000000000000000000081526004016108e290613fbf565b60405180910390fd5b6108ff816108fa6101916117bf565b6117cd565b61090a6101916117eb565b50565b6109288383836040518060200160405280600081525061103c565b505050565b61093e610938611322565b826113e3565b61097d576040517f08c379a00000000000000000000000000000000000000000000000000000000081526004016109749061407f565b60405180910390fd5b61098681611801565b50565b60006109936106d7565b82106109d4576040517f08c379a00000000000000000000000000000000000000000000000000000000081526004016109cb9061405f565b60405180910390fd5b609982815481106109e8576109e761445d565b5b90600052602060002001549050919050565b600060fb60009054906101000a900460ff16905090565b6000806067600084815260200190815260200160002060009054906101000a900473ffffffffffffffffffffffffffffffffffffffff169050600073ffffffffffffffffffffffffffffffffffffffff168173ffffffffffffffffffffffffffffffffffffffff161415610aba576040517f08c379a0000000000000000000000000000000000000000000000000000000008152600401610ab190613f1f565b60405180910390fd5b80915050919050565b60008073ffffffffffffffffffffffffffffffffffffffff168273ffffffffffffffffffffffffffffffffffffffff161415610b34576040517f08c379a0000000000000000000000000000000000000000000000000000000008152600401610b2b90613eff565b60405180910390fd5b606860008373ffffffffffffffffffffffffffffffffffffffff1673ffffffffffffffffffffffffffffffffffffffff168152602001908152602001600020549050919050565b610b83611322565b73ffffffffffffffffffffffffffffffffffffffff16610ba1610dfe565b73ffffffffffffffffffffffffffffffffffffffff1614610bf7576040517f08c379a0000000000000000000000000000000000000000000000000000000008152600401610bee90613fbf565b60405180910390fd5b610c01600061180d565b565b600060019054906101000a900460ff1680610c29575060008054906101000a900460ff16155b610c68576040517f08c379a0000000000000000000000000000000000000000000000000000000008152600401610c5f90613f3f565b60405180910390fd5b60008060019054906101000a900460ff161590508015610cb8576001600060016101000a81548160ff02191690831515021790555060016000806101000a81548160ff0219169083151502179055505b610d2c6040518060400160405280600981526020017f566f6e6465724e465400000000000000000000000000000000000000000000008152506040518060400160405280600481526020017f564e4654000000000000000000000000000000000000000000000000000000008152506118d5565b610d346119ca565b610d3c611abb565b610d44611bac565b610d4c611c95565b610d54611d7e565b8015610d755760008060016101000a81548160ff0219169083151502179055505b50565b610d80611322565b73ffffffffffffffffffffffffffffffffffffffff16610d9e610dfe565b73ffffffffffffffffffffffffffffffffffffffff1614610df4576040517f08c379a0000000000000000000000000000000000000000000000000000000008152600401610deb90613fbf565b60405180910390fd5b610dfc611e6f565b565b600061012d60009054906101000a900473ffffffffffffffffffffffffffffffffffffffff16905090565b606060668054610e38906142c4565b80601f0160208091040260200160405190810160405280929190818152602001828054610e64906142c4565b8015610eb15780601f10610e8657610100808354040283529160200191610eb1565b820191906000526020600020905b815481529060010190602001808311610e9457829003601f168201915b5050505050905090565b610ec3611322565b73ffffffffffffffffffffffffffffffffffffffff168273ffffffffffffffffffffffffffffffffffffffff161415610f31576040517f08c379a0000000000000000000000000000000000000000000000000000000008152600401610f2890613e7f565b60405180910390fd5b80606a6000610f3e611322565b73ffffffffffffffffffffffffffffffffffffffff1673ffffffffffffffffffffffffffffffffffffffff16815260200190815260200160002060008473ffffffffffffffffffffffffffffffffffffffff1673ffffffffffffffffffffffffffffffffffffffff16815260200190815260200160002060006101000a81548160ff0219169083151502179055508173ffffffffffffffffffffffffffffffffffffffff16610feb611322565b73ffffffffffffffffffffffffffffffffffffffff167f17307eab39ab6107e8899845ad3d59bd9653f200f220920489ca2b5937696c31836040516110309190613d82565b60405180910390a35050565b61104d611047611322565b836113e3565b61108c576040517f08c379a00000000000000000000000000000000000000000000000000000000081526004016110839061403f565b60405180910390fd5b61109884848484611f12565b50505050565b60606110a982611f6e565b9050919050565b6000606a60008473ffffffffffffffffffffffffffffffffffffffff1673ffffffffffffffffffffffffffffffffffffffff16815260200190815260200160002060008373ffffffffffffffffffffffffffffffffffffffff1673ffffffffffffffffffffffffffffffffffffffff16815260200190815260200160002060009054906101000a900460ff16905092915050565b61114c611322565b73ffffffffffffffffffffffffffffffffffffffff1661116a610dfe565b73ffffffffffffffffffffffffffffffffffffffff16146111c0576040517f08c379a00000000000000000000000000000000000000000000000000000000081526004016111b790613fbf565b60405180910390fd5b600073ffffffffffffffffffffffffffffffffffffffff168173ffffffffffffffffffffffffffffffffffffffff161415611230576040517f08c379a000000000000000000000000000000000000000000000000000000000815260040161122790613e1f565b60405180910390fd5b6112398161180d565b50565b60007f780e9d63000000000000000000000000000000000000000000000000000000007bffffffffffffffffffffffffffffffffffffffffffffffffffffffff1916827bffffffffffffffffffffffffffffffffffffffffffffffffffffffff191614806112af57506112ae826120c0565b5b9050919050565b60008073ffffffffffffffffffffffffffffffffffffffff166067600084815260200190815260200160002060009054906101000a900473ffffffffffffffffffffffffffffffffffffffff1673ffffffffffffffffffffffffffffffffffffffff1614159050919050565b600033905090565b816069600083815260200190815260200160002060006101000a81548173ffffffffffffffffffffffffffffffffffffffff021916908373ffffffffffffffffffffffffffffffffffffffff160217905550808273ffffffffffffffffffffffffffffffffffffffff1661139d83610a11565b73ffffffffffffffffffffffffffffffffffffffff167f8c5be1e5ebec7d5bd14f71427d1e84f3dd0314c0f7b2291e5b200ac8c7c3b92560405160405180910390a45050565b60006113ee826112b6565b61142d576040517f08c379a000000000000000000000000000000000000000000000000000000000815260040161142490613e9f565b60405180910390fd5b600061143883610a11565b90508073ffffffffffffffffffffffffffffffffffffffff168473ffffffffffffffffffffffffffffffffffffffff1614806114a757508373ffffffffffffffffffffffffffffffffffffffff1661148f8461053a565b73ffffffffffffffffffffffffffffffffffffffff16145b806114b857506114b781856110b0565b5b91505092915050565b8273ffffffffffffffffffffffffffffffffffffffff166114e182610a11565b73ffffffffffffffffffffffffffffffffffffffff1614611537576040517f08c379a000000000000000000000000000000000000000000000000000000000815260040161152e90613fdf565b60405180910390fd5b600073ffffffffffffffffffffffffffffffffffffffff168273ffffffffffffffffffffffffffffffffffffffff1614156115a7576040517f08c379a000000000000000000000000000000000000000000000000000000000815260040161159e90613e5f565b60405180910390fd5b6115b28383836121a2565b6115bd60008261132a565b6001606860008573ffffffffffffffffffffffffffffffffffffffff1673ffffffffffffffffffffffffffffffffffffffff168152602001908152602001600020600082825461160d91906141da565b925050819055506001606860008473ffffffffffffffffffffffffffffffffffffffff1673ffffffffffffffffffffffffffffffffffffffff16815260200190815260200160002060008282546116649190614153565b92505081905550816067600083815260200190815260200160002060006101000a81548173ffffffffffffffffffffffffffffffffffffffff021916908373ffffffffffffffffffffffffffffffffffffffff160217905550808273ffffffffffffffffffffffffffffffffffffffff168473ffffffffffffffffffffffffffffffffffffffff167fddf252ad1be2c89b69c2b068fc378daa952ba7f163c4a11628f55a4df523b3ef60405160405180910390a4505050565b6117256109fa565b611764576040517f08c379a000000000000000000000000000000000000000000000000000000000815260040161175b90613dbf565b60405180910390fd5b600060fb60006101000a81548160ff0219169083151502179055507f5db9ee0a495bf2e6ff9c91a7834c1ba4fdd244a5e8aa4e537bd38aeae4b073aa6117a8611322565b6040516117b59190613d1b565b60405180910390a1565b600081600001549050919050565b6117e78282604051806020016040528060008152506121fa565b5050565b6001816000016000828254019250508190555050565b61180a81612255565b50565b600061012d60009054906101000a900473ffffffffffffffffffffffffffffffffffffffff1690508161012d60006101000a81548173ffffffffffffffffffffffffffffffffffffffff021916908373ffffffffffffffffffffffffffffffffffffffff1602179055508173ffffffffffffffffffffffffffffffffffffffff168173ffffffffffffffffffffffffffffffffffffffff167f8be0079c531659141344cd1fd0a4f28419497f9722a3daafe3b4186f6b6457e060405160405180910390a35050565b600060019054906101000a900460ff16806118fb575060008054906101000a900460ff16155b61193a576040517f08c379a000000000000000000000000000000000000000000000000000000000815260040161193190613f3f565b60405180910390fd5b60008060019054906101000a900460ff16159050801561198a576001600060016101000a81548160ff02191690831515021790555060016000806101000a81548160ff0219169083151502179055505b6119926122a8565b61199a612381565b6119a4838361245a565b80156119c55760008060016101000a81548160ff0219169083151502179055505b505050565b600060019054906101000a900460ff16806119f0575060008054906101000a900460ff16155b611a2f576040517f08c379a0000000000000000000000000000000000000000000000000000000008152600401611a2690613f3f565b60405180910390fd5b60008060019054906101000a900460ff161590508015611a7f576001600060016101000a81548160ff02191690831515021790555060016000806101000a81548160ff0219169083151502179055505b611a876122a8565b611a8f612381565b611a97612563565b8015611ab85760008060016101000a81548160ff0219169083151502179055505b50565b600060019054906101000a900460ff1680611ae1575060008054906101000a900460ff16155b611b20576040517f08c379a0000000000000000000000000000000000000000000000000000000008152600401611b1790613f3f565b60405180910390fd5b60008060019054906101000a900460ff161590508015611b70576001600060016101000a81548160ff02191690831515021790555060016000806101000a81548160ff0219169083151502179055505b611b786122a8565b611b80612381565b611b8861263c565b8015611ba95760008060016101000a81548160ff0219169083151502179055505b50565b600060019054906101000a900460ff1680611bd2575060008054906101000a900460ff16155b611c11576040517f08c379a0000000000000000000000000000000000000000000000000000000008152600401611c0890613f3f565b60405180910390fd5b60008060019054906101000a900460ff161590508015611c61576001600060016101000a81548160ff02191690831515021790555060016000806101000a81548160ff0219169083151502179055505b611c696122a8565b611c71612715565b8015611c925760008060016101000a81548160ff0219169083151502179055505b50565b600060019054906101000a900460ff1680611cbb575060008054906101000a900460ff16155b611cfa576040517f08c379a0000000000000000000000000000000000000000000000000000000008152600401611cf190613f3f565b60405180910390fd5b60008060019054906101000a900460ff161590508015611d4a576001600060016101000a81548160ff02191690831515021790555060016000806101000a81548160ff0219169083151502179055505b611d526122a8565b611d5a612809565b8015611d7b5760008060016101000a81548160ff0219169083151502179055505b50565b600060019054906101000a900460ff1680611da4575060008054906101000a900460ff16155b611de3576040517f08c379a0000000000000000000000000000000000000000000000000000000008152600401611dda90613f3f565b60405180910390fd5b60008060019054906101000a900460ff161590508015611e33576001600060016101000a81548160ff02191690831515021790555060016000806101000a81548160ff0219169083151502179055505b611e3b6122a8565b611e43612381565b611e4b6128f2565b8015611e6c5760008060016101000a81548160ff0219169083151502179055505b50565b611e776109fa565b15611eb7576040517f08c379a0000000000000000000000000000000000000000000000000000000008152600401611eae90613ebf565b60405180910390fd5b600160fb60006101000a81548160ff0219169083151502179055507f62e78cea01bee320cd4e420270b5ea74000d11b0c9f74754ebdbfc544b05a258611efb611322565b604051611f089190613d1b565b60405180910390a1565b611f1d8484846114c1565b611f29848484846129cb565b611f68576040517f08c379a0000000000000000000000000000000000000000000000000000000008152600401611f5f90613dff565b60405180910390fd5b50505050565b6060611f79826112b6565b611fb8576040517f08c379a0000000000000000000000000000000000000000000000000000000008152600401611faf90613f7f565b60405180910390fd5b600060c960008481526020019081526020016000208054611fd8906142c4565b80601f0160208091040260200160405190810160405280929190818152602001828054612004906142c4565b80156120515780601f1061202657610100808354040283529160200191612051565b820191906000526020600020905b81548152906001019060200180831161203457829003601f168201915b505050505090506000612062612b62565b90506000815114156120785781925050506120bb565b6000825111156120ad578082604051602001612095929190613cf7565b604051602081830303815290604052925050506120bb565b6120b684612b79565b925050505b919050565b60007f80ac58cd000000000000000000000000000000000000000000000000000000007bffffffffffffffffffffffffffffffffffffffffffffffffffffffff1916827bffffffffffffffffffffffffffffffffffffffffffffffffffffffff1916148061218b57507f5b5e139f000000000000000000000000000000000000000000000000000000007bffffffffffffffffffffffffffffffffffffffffffffffffffffffff1916827bffffffffffffffffffffffffffffffffffffffffffffffffffffffff1916145b8061219b575061219a82612c20565b5b9050919050565b6121aa6109fa565b156121ea576040517f08c379a00000000000000000000000000000000000000000000000000000000081526004016121e190613ebf565b60405180910390fd5b6121f5838383612c8a565b505050565b6122048383612d9e565b61221160008484846129cb565b612250576040517f08c379a000000000000000000000000000000000000000000000000000000000815260040161224790613dff565b60405180910390fd5b505050565b61225e81612f6c565b600060c96000838152602001908152602001600020805461227e906142c4565b9050146122a55760c9600082815260200190815260200160002060006122a491906134fc565b5b50565b600060019054906101000a900460ff16806122ce575060008054906101000a900460ff16155b61230d576040517f08c379a000000000000000000000000000000000000000000000000000000000815260040161230490613f3f565b60405180910390fd5b60008060019054906101000a900460ff16159050801561235d576001600060016101000a81548160ff02191690831515021790555060016000806101000a81548160ff0219169083151502179055505b801561237e5760008060016101000a81548160ff0219169083151502179055505b50565b600060019054906101000a900460ff16806123a7575060008054906101000a900460ff16155b6123e6576040517f08c379a00000000000000000000000000000000000000000000000000000000081526004016123dd90613f3f565b60405180910390fd5b60008060019054906101000a900460ff161590508015612436576001600060016101000a81548160ff02191690831515021790555060016000806101000a81548160ff0219169083151502179055505b80156124575760008060016101000a81548160ff0219169083151502179055505b50565b600060019054906101000a900460ff1680612480575060008054906101000a900460ff16155b6124bf576040517f08c379a00000000000000000000000000000000000000000000000000000000081526004016124b690613f3f565b60405180910390fd5b60008060019054906101000a900460ff16159050801561250f576001600060016101000a81548160ff02191690831515021790555060016000806101000a81548160ff0219169083151502179055505b826065908051906020019061252592919061353c565b50816066908051906020019061253c92919061353c565b50801561255e5760008060016101000a81548160ff0219169083151502179055505b505050565b600060019054906101000a900460ff1680612589575060008054906101000a900460ff16155b6125c8576040517f08c379a00000000000000000000000000000000000000000000000000000000081526004016125bf90613f3f565b60405180910390fd5b60008060019054906101000a900460ff161590508015612618576001600060016101000a81548160ff02191690831515021790555060016000806101000a81548160ff0219169083151502179055505b80156126395760008060016101000a81548160ff0219169083151502179055505b50565b600060019054906101000a900460ff1680612662575060008054906101000a900460ff16155b6126a1576040517f08c379a000000000000000000000000000000000000000000000000000000000815260040161269890613f3f565b60405180910390fd5b60008060019054906101000a900460ff1615905080156126f1576001600060016101000a81548160ff02191690831515021790555060016000806101000a81548160ff0219169083151502179055505b80156127125760008060016101000a81548160ff0219169083151502179055505b50565b600060019054906101000a900460ff168061273b575060008054906101000a900460ff16155b61277a576040517f08c379a000000000000000000000000000000000000000000000000000000000815260040161277190613f3f565b60405180910390fd5b60008060019054906101000a900460ff1615905080156127ca576001600060016101000a81548160ff02191690831515021790555060016000806101000a81548160ff0219169083151502179055505b600060fb60006101000a81548160ff02191690831515021790555080156128065760008060016101000a81548160ff0219169083151502179055505b50565b600060019054906101000a900460ff168061282f575060008054906101000a900460ff16155b61286e576040517f08c379a000000000000000000000000000000000000000000000000000000000815260040161286590613f3f565b60405180910390fd5b60008060019054906101000a900460ff1615905080156128be576001600060016101000a81548160ff02191690831515021790555060016000806101000a81548160ff0219169083151502179055505b6128ce6128c9611322565b61180d565b80156128ef5760008060016101000a81548160ff0219169083151502179055505b50565b600060019054906101000a900460ff1680612918575060008054906101000a900460ff16155b612957576040517f08c379a000000000000000000000000000000000000000000000000000000000815260040161294e90613f3f565b60405180910390fd5b60008060019054906101000a900460ff1615905080156129a7576001600060016101000a81548160ff02191690831515021790555060016000806101000a81548160ff0219169083151502179055505b80156129c85760008060016101000a81548160ff0219169083151502179055505b50565b60006129ec8473ffffffffffffffffffffffffffffffffffffffff1661307d565b15612b55578373ffffffffffffffffffffffffffffffffffffffff1663150b7a02612a15611322565b8786866040518563ffffffff1660e01b8152600401612a379493929190613d36565b602060405180830381600087803b158015612a5157600080fd5b505af1925050508015612a8257506040513d601f19601f82011682018060405250810190612a7f91906138a8565b60015b612b05573d8060008114612ab2576040519150601f19603f3d011682016040523d82523d6000602084013e612ab7565b606091505b50600081511415612afd576040517f08c379a0000000000000000000000000000000000000000000000000000000008152600401612af490613dff565b60405180910390fd5b805181602001fd5b63150b7a0260e01b7bffffffffffffffffffffffffffffffffffffffffffffffffffffffff1916817bffffffffffffffffffffffffffffffffffffffffffffffffffffffff191614915050612b5a565b600190505b949350505050565b606060405180602001604052806000815250905090565b6060612b84826112b6565b612bc3576040517f08c379a0000000000000000000000000000000000000000000000000000000008152600401612bba90613fff565b60405180910390fd5b6000612bcd612b62565b90506000815111612bed5760405180602001604052806000815250612c18565b80612bf784613090565b604051602001612c08929190613cf7565b6040516020818303038152906040525b915050919050565b60007f01ffc9a7000000000000000000000000000000000000000000000000000000007bffffffffffffffffffffffffffffffffffffffffffffffffffffffff1916827bffffffffffffffffffffffffffffffffffffffffffffffffffffffff1916149050919050565b612c958383836131f1565b600073ffffffffffffffffffffffffffffffffffffffff168373ffffffffffffffffffffffffffffffffffffffff161415612cd857612cd3816131f6565b612d17565b8173ffffffffffffffffffffffffffffffffffffffff168373ffffffffffffffffffffffffffffffffffffffff1614612d1657612d15838261323f565b5b5b600073ffffffffffffffffffffffffffffffffffffffff168273ffffffffffffffffffffffffffffffffffffffff161415612d5a57612d55816133ac565b612d99565b8273ffffffffffffffffffffffffffffffffffffffff168273ffffffffffffffffffffffffffffffffffffffff1614612d9857612d97828261347d565b5b5b505050565b600073ffffffffffffffffffffffffffffffffffffffff168273ffffffffffffffffffffffffffffffffffffffff161415612e0e576040517f08c379a0000000000000000000000000000000000000000000000000000000008152600401612e0590613f5f565b60405180910390fd5b612e17816112b6565b15612e57576040517f08c379a0000000000000000000000000000000000000000000000000000000008152600401612e4e90613e3f565b60405180910390fd5b612e63600083836121a2565b6001606860008473ffffffffffffffffffffffffffffffffffffffff1673ffffffffffffffffffffffffffffffffffffffff1681526020019081526020016000206000828254612eb39190614153565b92505081905550816067600083815260200190815260200160002060006101000a81548173ffffffffffffffffffffffffffffffffffffffff021916908373ffffffffffffffffffffffffffffffffffffffff160217905550808273ffffffffffffffffffffffffffffffffffffffff16600073ffffffffffffffffffffffffffffffffffffffff167fddf252ad1be2c89b69c2b068fc378daa952ba7f163c4a11628f55a4df523b3ef60405160405180910390a45050565b6000612f7782610a11565b9050612f85816000846121a2565b612f9060008361132a565b6001606860008373ffffffffffffffffffffffffffffffffffffffff1673ffffffffffffffffffffffffffffffffffffffff1681526020019081526020016000206000828254612fe091906141da565b925050819055506067600083815260200190815260200160002060006101000a81549073ffffffffffffffffffffffffffffffffffffffff021916905581600073ffffffffffffffffffffffffffffffffffffffff168273ffffffffffffffffffffffffffffffffffffffff167fddf252ad1be2c89b69c2b068fc378daa952ba7f163c4a11628f55a4df523b3ef60405160405180910390a45050565b600080823b905060008111915050919050565b606060008214156130d8576040518060400160405280600181526020017f300000000000000000000000000000000000000000000000000000000000000081525090506131ec565b600082905060005b6000821461310a5780806130f390614327565b915050600a8261310391906141a9565b91506130e0565b60008167ffffffffffffffff8111156131265761312561448c565b5b6040519080825280601f01601f1916602001820160405280156131585781602001600182028036833780820191505090505b5090505b600085146131e55760018261317191906141da565b9150600a856131809190614370565b603061318c9190614153565b60f81b8183815181106131a2576131a161445d565b5b60200101907effffffffffffffffffffffffffffffffffffffffffffffffffffffffffffff1916908160001a905350600a856131de91906141a9565b945061315c565b8093505050505b919050565b505050565b609980549050609a600083815260200190815260200160002081905550609981908060018154018082558091505060019003906000526020600020016000909190919091505550565b6000600161324c84610ac3565b61325691906141da565b905060006098600084815260200190815260200160002054905081811461333b576000609760008673ffffffffffffffffffffffffffffffffffffffff1673ffffffffffffffffffffffffffffffffffffffff168152602001908152602001600020600084815260200190815260200160002054905080609760008773ffffffffffffffffffffffffffffffffffffffff1673ffffffffffffffffffffffffffffffffffffffff168152602001908152602001600020600084815260200190815260200160002081905550816098600083815260200190815260200160002081905550505b6098600084815260200190815260200160002060009055609760008573ffffffffffffffffffffffffffffffffffffffff1673ffffffffffffffffffffffffffffffffffffffff16815260200190815260200160002060008381526020019081526020016000206000905550505050565b600060016099805490506133c091906141da565b90506000609a60008481526020019081526020016000205490506000609983815481106133f0576133ef61445d565b5b9060005260206000200154905080609983815481106134125761341161445d565b5b906000526020600020018190555081609a600083815260200190815260200160002081905550609a60008581526020019081526020016000206000905560998054806134615761346061442e565b5b6001900381819060005260206000200160009055905550505050565b600061348883610ac3565b905081609760008573ffffffffffffffffffffffffffffffffffffffff1673ffffffffffffffffffffffffffffffffffffffff168152602001908152602001600020600083815260200190815260200160002081905550806098600084815260200190815260200160002081905550505050565b508054613508906142c4565b6000825580601f1061351a5750613539565b601f01602090049060005260206000209081019061353891906135c2565b5b50565b828054613548906142c4565b90600052602060002090601f01602090048101928261356a57600085556135b1565b82601f1061358357805160ff19168380011785556135b1565b828001600101855582156135b1579182015b828111156135b0578251825591602001919060010190613595565b5b5090506135be91906135c2565b5090565b5b808211156135db5760008160009055506001016135c3565b5090565b60006135f26135ed846140df565b6140ba565b90508281526020810184848401111561360e5761360d6144c0565b5b613619848285614282565b509392505050565b60008135905061363081614b15565b92915050565b60008135905061364581614b2c565b92915050565b60008135905061365a81614b43565b92915050565b60008151905061366f81614b43565b92915050565b600082601f83011261368a576136896144bb565b5b813561369a8482602086016135df565b91505092915050565b6000813590506136b281614b5a565b92915050565b6000602082840312156136ce576136cd6144ca565b5b60006136dc84828501613621565b91505092915050565b600080604083850312156136fc576136fb6144ca565b5b600061370a85828601613621565b925050602061371b85828601613621565b9150509250929050565b60008060006060848603121561373e5761373d6144ca565b5b600061374c86828701613621565b935050602061375d86828701613621565b925050604061376e868287016136a3565b9150509250925092565b60008060008060808587031215613792576137916144ca565b5b60006137a087828801613621565b94505060206137b187828801613621565b93505060406137c2878288016136a3565b925050606085013567ffffffffffffffff8111156137e3576137e26144c5565b5b6137ef87828801613675565b91505092959194509250565b60008060408385031215613812576138116144ca565b5b600061382085828601613621565b925050602061383185828601613636565b9150509250929050565b60008060408385031215613852576138516144ca565b5b600061386085828601613621565b9250506020613871858286016136a3565b9150509250929050565b600060208284031215613891576138906144ca565b5b600061389f8482850161364b565b91505092915050565b6000602082840312156138be576138bd6144ca565b5b60006138cc84828501613660565b91505092915050565b6000602082840312156138eb576138ea6144ca565b5b60006138f9848285016136a3565b91505092915050565b61390b8161420e565b82525050565b61391a81614220565b82525050565b600061392b82614110565b6139358185614126565b9350613945818560208601614291565b61394e816144cf565b840191505092915050565b60006139648261411b565b61396e8185614137565b935061397e818560208601614291565b613987816144cf565b840191505092915050565b600061399d8261411b565b6139a78185614148565b93506139b7818560208601614291565b80840191505092915050565b60006139d0601483614137565b91506139db826144e0565b602082019050919050565b60006139f3602b83614137565b91506139fe82614509565b604082019050919050565b6000613a16603283614137565b9150613a2182614558565b604082019050919050565b6000613a39602683614137565b9150613a44826145a7565b604082019050919050565b6000613a5c601c83614137565b9150613a67826145f6565b602082019050919050565b6000613a7f602483614137565b9150613a8a8261461f565b604082019050919050565b6000613aa2601983614137565b9150613aad8261466e565b602082019050919050565b6000613ac5602c83614137565b9150613ad082614697565b604082019050919050565b6000613ae8601083614137565b9150613af3826146e6565b602082019050919050565b6000613b0b603883614137565b9150613b168261470f565b604082019050919050565b6000613b2e602a83614137565b9150613b398261475e565b604082019050919050565b6000613b51602983614137565b9150613b5c826147ad565b604082019050919050565b6000613b74602e83614137565b9150613b7f826147fc565b604082019050919050565b6000613b97602083614137565b9150613ba28261484b565b602082019050919050565b6000613bba603183614137565b9150613bc582614874565b604082019050919050565b6000613bdd602c83614137565b9150613be8826148c3565b604082019050919050565b6000613c00602083614137565b9150613c0b82614912565b602082019050919050565b6000613c23602983614137565b9150613c2e8261493b565b604082019050919050565b6000613c46602f83614137565b9150613c518261498a565b604082019050919050565b6000613c69602183614137565b9150613c74826149d9565b604082019050919050565b6000613c8c603183614137565b9150613c9782614a28565b604082019050919050565b6000613caf602c83614137565b9150613cba82614a77565b604082019050919050565b6000613cd2603083614137565b9150613cdd82614ac6565b604082019050919050565b613cf181614278565b82525050565b6000613d038285613992565b9150613d0f8284613992565b91508190509392505050565b6000602082019050613d306000830184613902565b92915050565b6000608082019050613d4b6000830187613902565b613d586020830186613902565b613d656040830185613ce8565b8181036060830152613d778184613920565b905095945050505050565b6000602082019050613d976000830184613911565b92915050565b60006020820190508181036000830152613db78184613959565b905092915050565b60006020820190508181036000830152613dd8816139c3565b9050919050565b60006020820190508181036000830152613df8816139e6565b9050919050565b60006020820190508181036000830152613e1881613a09565b9050919050565b60006020820190508181036000830152613e3881613a2c565b9050919050565b60006020820190508181036000830152613e5881613a4f565b9050919050565b60006020820190508181036000830152613e7881613a72565b9050919050565b60006020820190508181036000830152613e9881613a95565b9050919050565b60006020820190508181036000830152613eb881613ab8565b9050919050565b60006020820190508181036000830152613ed881613adb565b9050919050565b60006020820190508181036000830152613ef881613afe565b9050919050565b60006020820190508181036000830152613f1881613b21565b9050919050565b60006020820190508181036000830152613f3881613b44565b9050919050565b60006020820190508181036000830152613f5881613b67565b9050919050565b60006020820190508181036000830152613f7881613b8a565b9050919050565b60006020820190508181036000830152613f9881613bad565b9050919050565b60006020820190508181036000830152613fb881613bd0565b9050919050565b60006020820190508181036000830152613fd881613bf3565b9050919050565b60006020820190508181036000830152613ff881613c16565b9050919050565b6000602082019050818103600083015261401881613c39565b9050919050565b6000602082019050818103600083015261403881613c5c565b9050919050565b6000602082019050818103600083015261405881613c7f565b9050919050565b6000602082019050818103600083015261407881613ca2565b9050919050565b6000602082019050818103600083015261409881613cc5565b9050919050565b60006020820190506140b46000830184613ce8565b92915050565b60006140c46140d5565b90506140d082826142f6565b919050565b6000604051905090565b600067ffffffffffffffff8211156140fa576140f961448c565b5b614103826144cf565b9050602081019050919050565b600081519050919050565b600081519050919050565b600082825260208201905092915050565b600082825260208201905092915050565b600081905092915050565b600061415e82614278565b915061416983614278565b9250827fffffffffffffffffffffffffffffffffffffffffffffffffffffffffffffffff0382111561419e5761419d6143a1565b5b828201905092915050565b60006141b482614278565b91506141bf83614278565b9250826141cf576141ce6143d0565b5b828204905092915050565b60006141e582614278565b91506141f083614278565b925082821015614203576142026143a1565b5b828203905092915050565b600061421982614258565b9050919050565b60008115159050919050565b60007fffffffff0000000000000000000000000000000000000000000000000000000082169050919050565b600073ffffffffffffffffffffffffffffffffffffffff82169050919050565b6000819050919050565b82818337600083830152505050565b60005b838110156142af578082015181840152602081019050614294565b838111156142be576000848401525b50505050565b600060028204905060018216806142dc57607f821691505b602082108114156142f0576142ef6143ff565b5b50919050565b6142ff826144cf565b810181811067ffffffffffffffff8211171561431e5761431d61448c565b5b80604052505050565b600061433282614278565b91507fffffffffffffffffffffffffffffffffffffffffffffffffffffffffffffffff821415614365576143646143a1565b5b600182019050919050565b600061437b82614278565b915061438683614278565b925082614396576143956143d0565b5b828206905092915050565b7f4e487b7100000000000000000000000000000000000000000000000000000000600052601160045260246000fd5b7f4e487b7100000000000000000000000000000000000000000000000000000000600052601260045260246000fd5b7f4e487b7100000000000000000000000000000000000000000000000000000000600052602260045260246000fd5b7f4e487b7100000000000000000000000000000000000000000000000000000000600052603160045260246000fd5b7f4e487b7100000000000000000000000000000000000000000000000000000000600052603260045260246000fd5b7f4e487b7100000000000000000000000000000000000000000000000000000000600052604160045260246000fd5b600080fd5b600080fd5b600080fd5b600080fd5b6000601f19601f8301169050919050565b7f5061757361626c653a206e6f7420706175736564000000000000000000000000600082015250565b7f455243373231456e756d657261626c653a206f776e657220696e646578206f7560008201527f74206f6620626f756e6473000000000000000000000000000000000000000000602082015250565b7f4552433732313a207472616e7366657220746f206e6f6e20455243373231526560008201527f63656976657220696d706c656d656e7465720000000000000000000000000000602082015250565b7f4f776e61626c653a206e6577206f776e657220697320746865207a65726f206160008201527f6464726573730000000000000000000000000000000000000000000000000000602082015250565b7f4552433732313a20746f6b656e20616c7265616479206d696e74656400000000600082015250565b7f4552433732313a207472616e7366657220746f20746865207a65726f2061646460008201527f7265737300000000000000000000000000000000000000000000000000000000602082015250565b7f4552433732313a20617070726f766520746f2063616c6c657200000000000000600082015250565b7f4552433732313a206f70657261746f7220717565727920666f72206e6f6e657860008201527f697374656e7420746f6b656e0000000000000000000000000000000000000000602082015250565b7f5061757361626c653a2070617573656400000000000000000000000000000000600082015250565b7f4552433732313a20617070726f76652063616c6c6572206973206e6f74206f7760008201527f6e6572206e6f7220617070726f76656420666f7220616c6c0000000000000000602082015250565b7f4552433732313a2062616c616e636520717565727920666f7220746865207a6560008201527f726f206164647265737300000000000000000000000000000000000000000000602082015250565b7f4552433732313a206f776e657220717565727920666f72206e6f6e657869737460008201527f656e7420746f6b656e0000000000000000000000000000000000000000000000602082015250565b7f496e697469616c697a61626c653a20636f6e747261637420697320616c72656160008201527f647920696e697469616c697a6564000000000000000000000000000000000000602082015250565b7f4552433732313a206d696e7420746f20746865207a65726f2061646472657373600082015250565b7f45524337323155524953746f726167653a2055524920717565727920666f722060008201527f6e6f6e6578697374656e7420746f6b656e000000000000000000000000000000602082015250565b7f4552433732313a20617070726f76656420717565727920666f72206e6f6e657860008201527f697374656e7420746f6b656e0000000000000000000000000000000000000000602082015250565b7f4f776e61626c653a2063616c6c6572206973206e6f7420746865206f776e6572600082015250565b7f4552433732313a207472616e73666572206f6620746f6b656e2074686174206960008201527f73206e6f74206f776e0000000000000000000000000000000000000000000000602082015250565b7f4552433732314d657461646174613a2055524920717565727920666f72206e6f60008201527f6e6578697374656e7420746f6b656e0000000000000000000000000000000000602082015250565b7f4552433732313a20617070726f76616c20746f2063757272656e74206f776e6560008201527f7200000000000000000000000000000000000000000000000000000000000000602082015250565b7f4552433732313a207472616e736665722063616c6c6572206973206e6f74206f60008201527f776e6572206e6f7220617070726f766564000000000000000000000000000000602082015250565b7f455243373231456e756d657261626c653a20676c6f62616c20696e646578206f60008201527f7574206f6620626f756e64730000000000000000000000000000000000000000602082015250565b7f4552433732314275726e61626c653a2063616c6c6572206973206e6f74206f7760008201527f6e6572206e6f7220617070726f76656400000000000000000000000000000000602082015250565b614b1e8161420e565b8114614b2957600080fd5b50565b614b3581614220565b8114614b4057600080fd5b50565b614b4c8161422c565b8114614b5757600080fd5b50565b614b6381614278565b8114614b6e57600080fd5b5056fea2646970667358221220e59f48ae6df0a9289d43b3fec01d9352bffd09a8b89876d94c0b30c6899456df64736f6c63430008070033",
  "linkReferences": {},
  "deployedLinkReferences": {}
}