{
  "_format": "hh-sol-artifact-1",
  "contractName": "VonderNFT",
  "sourceName": "contracts/VonderNFT.sol",
  "abi": [
    {
      "inputs": [],
      "stateMutability": "nonpayable",
      "type": "constructor"
    },
    {
      "anonymous": false,
      "inputs": [
        {
          "indexed": false,
          "internalType": "address",
          "name": "previousAdmin",
          "type": "address"
        },
        {
          "indexed": false,
          "internalType": "address",
          "name": "newAdmin",
          "type": "address"
        }
      ],
      "name": "AdminChanged",
      "type": "event"
    },
    {
      "anonymous": false,
      "inputs": [
        {
          "indexed": true,
          "internalType": "address",
          "name": "owner",
          "type": "address"
        },
        {
          "indexed": true,
          "internalType": "address",
          "name": "approved",
          "type": "address"
        },
        {
          "indexed": true,
          "internalType": "uint256",
          "name": "tokenId",
          "type": "uint256"
        }
      ],
      "name": "Approval",
      "type": "event"
    },
    {
      "anonymous": false,
      "inputs": [
        {
          "indexed": true,
          "internalType": "address",
          "name": "owner",
          "type": "address"
        },
        {
          "indexed": true,
          "internalType": "address",
          "name": "operator",
          "type": "address"
        },
        {
          "indexed": false,
          "internalType": "bool",
          "name": "approved",
          "type": "bool"
        }
      ],
      "name": "ApprovalForAll",
      "type": "event"
    },
    {
      "anonymous": false,
      "inputs": [
        {
          "indexed": true,
          "internalType": "address",
          "name": "beacon",
          "type": "address"
        }
      ],
      "name": "BeaconUpgraded",
      "type": "event"
    },
    {
      "anonymous": false,
      "inputs": [
        {
          "indexed": true,
          "internalType": "address",
          "name": "previousOwner",
          "type": "address"
        },
        {
          "indexed": true,
          "internalType": "address",
          "name": "newOwner",
          "type": "address"
        }
      ],
      "name": "OwnershipTransferred",
      "type": "event"
    },
    {
      "anonymous": false,
      "inputs": [
        {
          "indexed": false,
          "internalType": "address",
          "name": "account",
          "type": "address"
        }
      ],
      "name": "Paused",
      "type": "event"
    },
    {
      "anonymous": false,
      "inputs": [
        {
          "indexed": true,
          "internalType": "address",
          "name": "from",
          "type": "address"
        },
        {
          "indexed": true,
          "internalType": "address",
          "name": "to",
          "type": "address"
        },
        {
          "indexed": true,
          "internalType": "uint256",
          "name": "tokenId",
          "type": "uint256"
        }
      ],
      "name": "Transfer",
      "type": "event"
    },
    {
      "anonymous": false,
      "inputs": [
        {
          "indexed": false,
          "internalType": "address",
          "name": "account",
          "type": "address"
        }
      ],
      "name": "Unpaused",
      "type": "event"
    },
    {
      "anonymous": false,
      "inputs": [
        {
          "indexed": true,
          "internalType": "address",
          "name": "implementation",
          "type": "address"
        }
      ],
      "name": "Upgraded",
      "type": "event"
    },
    {
      "inputs": [
        {
          "internalType": "address",
          "name": "to",
          "type": "address"
        },
        {
          "internalType": "uint256",
          "name": "tokenId",
          "type": "uint256"
        }
      ],
      "name": "approve",
      "outputs": [],
      "stateMutability": "nonpayable",
      "type": "function"
    },
    {
      "inputs": [
        {
          "internalType": "address",
          "name": "owner",
          "type": "address"
        }
      ],
      "name": "balanceOf",
      "outputs": [
        {
          "internalType": "uint256",
          "name": "",
          "type": "uint256"
        }
      ],
      "stateMutability": "view",
      "type": "function"
    },
    {
      "inputs": [
        {
          "internalType": "uint256",
          "name": "tokenId",
          "type": "uint256"
        }
      ],
      "name": "burn",
      "outputs": [],
      "stateMutability": "nonpayable",
      "type": "function"
    },
    {
      "inputs": [
        {
          "internalType": "uint256",
          "name": "tokenId",
          "type": "uint256"
        }
      ],
      "name": "getApproved",
      "outputs": [
        {
          "internalType": "address",
          "name": "",
          "type": "address"
        }
      ],
      "stateMutability": "view",
      "type": "function"
    },
    {
      "inputs": [],
      "name": "initialize",
      "outputs": [],
      "stateMutability": "nonpayable",
      "type": "function"
    },
    {
      "inputs": [
        {
          "internalType": "address",
          "name": "owner",
          "type": "address"
        },
        {
          "internalType": "address",
          "name": "operator",
          "type": "address"
        }
      ],
      "name": "isApprovedForAll",
      "outputs": [
        {
          "internalType": "bool",
          "name": "",
          "type": "bool"
        }
      ],
      "stateMutability": "view",
      "type": "function"
    },
    {
      "inputs": [],
      "name": "name",
      "outputs": [
        {
          "internalType": "string",
          "name": "",
          "type": "string"
        }
      ],
      "stateMutability": "view",
      "type": "function"
    },
    {
      "inputs": [],
      "name": "owner",
      "outputs": [
        {
          "internalType": "address",
          "name": "",
          "type": "address"
        }
      ],
      "stateMutability": "view",
      "type": "function"
    },
    {
      "inputs": [
        {
          "internalType": "uint256",
          "name": "tokenId",
          "type": "uint256"
        }
      ],
      "name": "ownerOf",
      "outputs": [
        {
          "internalType": "address",
          "name": "",
          "type": "address"
        }
      ],
      "stateMutability": "view",
      "type": "function"
    },
    {
      "inputs": [],
      "name": "pause",
      "outputs": [],
      "stateMutability": "nonpayable",
      "type": "function"
    },
    {
      "inputs": [],
      "name": "paused",
      "outputs": [
        {
          "internalType": "bool",
          "name": "",
          "type": "bool"
        }
      ],
      "stateMutability": "view",
      "type": "function"
    },
    {
      "inputs": [],
      "name": "renounceOwnership",
      "outputs": [],
      "stateMutability": "nonpayable",
      "type": "function"
    },
    {
      "inputs": [
        {
          "internalType": "address",
          "name": "to",
          "type": "address"
        }
      ],
      "name": "safeMint",
      "outputs": [],
      "stateMutability": "nonpayable",
      "type": "function"
    },
    {
      "inputs": [
        {
          "internalType": "address",
          "name": "from",
          "type": "address"
        },
        {
          "internalType": "address",
          "name": "to",
          "type": "address"
        },
        {
          "internalType": "uint256",
          "name": "tokenId",
          "type": "uint256"
        }
      ],
      "name": "safeTransferFrom",
      "outputs": [],
      "stateMutability": "nonpayable",
      "type": "function"
    },
    {
      "inputs": [
        {
          "internalType": "address",
          "name": "from",
          "type": "address"
        },
        {
          "internalType": "address",
          "name": "to",
          "type": "address"
        },
        {
          "internalType": "uint256",
          "name": "tokenId",
          "type": "uint256"
        },
        {
          "internalType": "bytes",
          "name": "_data",
          "type": "bytes"
        }
      ],
      "name": "safeTransferFrom",
      "outputs": [],
      "stateMutability": "nonpayable",
      "type": "function"
    },
    {
      "inputs": [
        {
          "internalType": "address",
          "name": "operator",
          "type": "address"
        },
        {
          "internalType": "bool",
          "name": "approved",
          "type": "bool"
        }
      ],
      "name": "setApprovalForAll",
      "outputs": [],
      "stateMutability": "nonpayable",
      "type": "function"
    },
    {
      "inputs": [
        {
          "internalType": "bytes4",
          "name": "interfaceId",
          "type": "bytes4"
        }
      ],
      "name": "supportsInterface",
      "outputs": [
        {
          "internalType": "bool",
          "name": "",
          "type": "bool"
        }
      ],
      "stateMutability": "view",
      "type": "function"
    },
    {
      "inputs": [],
      "name": "symbol",
      "outputs": [
        {
          "internalType": "string",
          "name": "",
          "type": "string"
        }
      ],
      "stateMutability": "view",
      "type": "function"
    },
    {
      "inputs": [
        {
          "internalType": "uint256",
          "name": "index",
          "type": "uint256"
        }
      ],
      "name": "tokenByIndex",
      "outputs": [
        {
          "internalType": "uint256",
          "name": "",
          "type": "uint256"
        }
      ],
      "stateMutability": "view",
      "type": "function"
    },
    {
      "inputs": [
        {
          "internalType": "address",
          "name": "owner",
          "type": "address"
        },
        {
          "internalType": "uint256",
          "name": "index",
          "type": "uint256"
        }
      ],
      "name": "tokenOfOwnerByIndex",
      "outputs": [
        {
          "internalType": "uint256",
          "name": "",
          "type": "uint256"
        }
      ],
      "stateMutability": "view",
      "type": "function"
    },
    {
      "inputs": [
        {
          "internalType": "uint256",
          "name": "tokenId",
          "type": "uint256"
        }
      ],
      "name": "tokenURI",
      "outputs": [
        {
          "internalType": "string",
          "name": "",
          "type": "string"
        }
      ],
      "stateMutability": "view",
      "type": "function"
    },
    {
      "inputs": [],
      "name": "totalSupply",
      "outputs": [
        {
          "internalType": "uint256",
          "name": "",
          "type": "uint256"
        }
      ],
      "stateMutability": "view",
      "type": "function"
    },
    {
      "inputs": [
        {
          "internalType": "address",
          "name": "from",
          "type": "address"
        },
        {
          "internalType": "address",
          "name": "to",
          "type": "address"
        },
        {
          "internalType": "uint256",
          "name": "tokenId",
          "type": "uint256"
        }
      ],
      "name": "transferFrom",
      "outputs": [],
      "stateMutability": "nonpayable",
      "type": "function"
    },
    {
      "inputs": [
        {
          "internalType": "address",
          "name": "newOwner",
          "type": "address"
        }
      ],
      "name": "transferOwnership",
      "outputs": [],
      "stateMutability": "nonpayable",
      "type": "function"
    },
    {
      "inputs": [],
      "name": "unpause",
      "outputs": [],
      "stateMutability": "nonpayable",
      "type": "function"
    },
    {
      "inputs": [
        {
          "internalType": "address",
          "name": "newImplementation",
          "type": "address"
        }
      ],
      "name": "upgradeTo",
      "outputs": [],
      "stateMutability": "nonpayable",
      "type": "function"
    },
    {
      "inputs": [
        {
          "internalType": "address",
          "name": "newImplementation",
          "type": "address"
        },
        {
          "internalType": "bytes",
          "name": "data",
          "type": "bytes"
        }
      ],
      "name": "upgradeToAndCall",
      "outputs": [],
      "stateMutability": "payable",
      "type": "function"
    }
  ],
  "bytecode": "0x60a06040523073ffffffffffffffffffffffffffffffffffffffff1660809073ffffffffffffffffffffffffffffffffffffffff1660601b8152503480156200004757600080fd5b50600060019054906101000a900460ff16806200006f575060008054906101000a900460ff16155b620000b1576040517f08c379a0000000000000000000000000000000000000000000000000000000008152600401620000a89062000152565b60405180910390fd5b60008060019054906101000a900460ff16159050801562000102576001600060016101000a81548160ff02191690831515021790555060016000806101000a81548160ff0219169083151502179055505b8015620001245760008060016101000a81548160ff0219169083151502179055505b50620001d4565b60006200013a602e8362000174565b9150620001478262000185565b604082019050919050565b600060208201905081810360008301526200016d816200012b565b9050919050565b600082825260208201905092915050565b7f496e697469616c697a61626c653a20636f6e747261637420697320616c72656160008201527f647920696e697469616c697a6564000000000000000000000000000000000000602082015250565b60805160601c615b81620002086000396000818161099e01528181610a2d01528181610cc70152610d560152615b816000f3fe60806040526004361061019c5760003560e01c80634f6ccce7116100ec5780638da5cb5b1161008a578063b88d4fde11610064578063b88d4fde1461057d578063c87b56dd146105a6578063e985e9c5146105e3578063f2fde38b146106205761019c565b80638da5cb5b146104fe57806395d89b4114610529578063a22cb465146105545761019c565b806370a08231116100c657806370a082311461047c578063715018a6146104b95780638129fc1c146104d05780638456cb59146104e75761019c565b80634f6ccce7146103d75780635c975abb146104145780636352211e1461043f5761019c565b80632f745c591161015957806340d097c31161013357806340d097c31461034057806342842e0e1461036957806342966c68146103925780634f1ef286146103bb5761019c565b80632f745c59146102c35780633659cfe6146103005780633f4ba83a146103295761019c565b806301ffc9a7146101a157806306fdde03146101de578063081812fc14610209578063095ea7b31461024657806318160ddd1461026f57806323b872dd1461029a575b600080fd5b3480156101ad57600080fd5b506101c860048036038101906101c39190614501565b610649565b6040516101d59190614aff565b60405180910390f35b3480156101ea57600080fd5b506101f361065b565b6040516102009190614b1a565b60405180910390f35b34801561021557600080fd5b50610230600480360381019061022b919061455b565b6106ed565b60405161023d9190614a98565b60405180910390f35b34801561025257600080fd5b5061026d600480360381019061026891906144c1565b610772565b005b34801561027b57600080fd5b5061028461088a565b6040516102919190614ebc565b60405180910390f35b3480156102a657600080fd5b506102c160048036038101906102bc919061434f565b610897565b005b3480156102cf57600080fd5b506102ea60048036038101906102e591906144c1565b6108f7565b6040516102f79190614ebc565b60405180910390f35b34801561030c57600080fd5b50610327600480360381019061032291906142e2565b61099c565b005b34801561033557600080fd5b5061033e610b25565b005b34801561034c57600080fd5b50610367600480360381019061036291906142e2565b610bab565b005b34801561037557600080fd5b50610390600480360381019061038b919061434f565b610c49565b005b34801561039e57600080fd5b506103b960048036038101906103b4919061455b565b610c69565b005b6103d560048036038101906103d09190614465565b610cc5565b005b3480156103e357600080fd5b506103fe60048036038101906103f9919061455b565b610e02565b60405161040b9190614ebc565b60405180910390f35b34801561042057600080fd5b50610429610e73565b6040516104369190614aff565b60405180910390f35b34801561044b57600080fd5b506104666004803603810190610461919061455b565b610e8a565b6040516104739190614a98565b60405180910390f35b34801561048857600080fd5b506104a3600480360381019061049e91906142e2565b610f3c565b6040516104b09190614ebc565b60405180910390f35b3480156104c557600080fd5b506104ce610ff4565b005b3480156104dc57600080fd5b506104e561107c565b005b3480156104f357600080fd5b506104fc6111f9565b005b34801561050a57600080fd5b5061051361127f565b6040516105209190614a98565b60405180910390f35b34801561053557600080fd5b5061053e6112aa565b60405161054b9190614b1a565b60405180910390f35b34801561056057600080fd5b5061057b60048036038101906105769190614425565b61133c565b005b34801561058957600080fd5b506105a4600480360381019061059f91906143a2565b6114bd565b005b3480156105b257600080fd5b506105cd60048036038101906105c8919061455b565b61151f565b6040516105da9190614b1a565b60405180910390f35b3480156105ef57600080fd5b5061060a6004803603810190610605919061430f565b611531565b6040516106179190614aff565b60405180910390f35b34801561062c57600080fd5b50610647600480360381019061064291906142e2565b6115c5565b005b6000610654826116bd565b9050919050565b60606065805461066a906150ec565b80601f0160208091040260200160405190810160405280929190818152602001828054610696906150ec565b80156106e35780601f106106b8576101008083540402835291602001916106e3565b820191906000526020600020905b8154815290600101906020018083116106c657829003601f168201915b5050505050905090565b60006106f882611737565b610737576040517f08c379a000000000000000000000000000000000000000000000000000000000815260040161072e90614d7c565b60405180910390fd5b6069600083815260200190815260200160002060009054906101000a900473ffffffffffffffffffffffffffffffffffffffff169050919050565b600061077d82610e8a565b90508073ffffffffffffffffffffffffffffffffffffffff168373ffffffffffffffffffffffffffffffffffffffff1614156107ee576040517f08c379a00000000000000000000000000000000000000000000000000000000081526004016107e590614e1c565b60405180910390fd5b8073ffffffffffffffffffffffffffffffffffffffff1661080d6117a3565b73ffffffffffffffffffffffffffffffffffffffff16148061083c575061083b816108366117a3565b611531565b5b61087b576040517f08c379a000000000000000000000000000000000000000000000000000000000815260040161087290614cbc565b60405180910390fd5b61088583836117ab565b505050565b6000609980549050905090565b6108a86108a26117a3565b82611864565b6108e7576040517f08c379a00000000000000000000000000000000000000000000000000000000081526004016108de90614e5c565b60405180910390fd5b6108f2838383611942565b505050565b600061090283610f3c565b8210610943576040517f08c379a000000000000000000000000000000000000000000000000000000000815260040161093a90614b5c565b60405180910390fd5b609760008473ffffffffffffffffffffffffffffffffffffffff1673ffffffffffffffffffffffffffffffffffffffff168152602001908152602001600020600083815260200190815260200160002054905092915050565b7f000000000000000000000000000000000000000000000000000000000000000073ffffffffffffffffffffffffffffffffffffffff163073ffffffffffffffffffffffffffffffffffffffff161415610a2b576040517f08c379a0000000000000000000000000000000000000000000000000000000008152600401610a2290614bfc565b60405180910390fd5b7f000000000000000000000000000000000000000000000000000000000000000073ffffffffffffffffffffffffffffffffffffffff16610a6a611b9e565b73ffffffffffffffffffffffffffffffffffffffff1614610ac0576040517f08c379a0000000000000000000000000000000000000000000000000000000008152600401610ab790614c5c565b60405180910390fd5b610ac981611bf5565b610b2281600067ffffffffffffffff811115610ae857610ae76152b4565b5b6040519080825280601f01601f191660200182016040528015610b1a5781602001600182028036833780820191505090505b506000611c74565b50565b610b2d6117a3565b73ffffffffffffffffffffffffffffffffffffffff16610b4b61127f565b73ffffffffffffffffffffffffffffffffffffffff1614610ba1576040517f08c379a0000000000000000000000000000000000000000000000000000000008152600401610b9890614dbc565b60405180910390fd5b610ba9611e45565b565b610bb36117a3565b73ffffffffffffffffffffffffffffffffffffffff16610bd161127f565b73ffffffffffffffffffffffffffffffffffffffff1614610c27576040517f08c379a0000000000000000000000000000000000000000000000000000000008152600401610c1e90614dbc565b60405180910390fd5b610c3b81610c366101f5611ee7565b611ef5565b610c466101f5611f13565b50565b610c64838383604051806020016040528060008152506114bd565b505050565b610c7a610c746117a3565b82611864565b610cb9576040517f08c379a0000000000000000000000000000000000000000000000000000000008152600401610cb090614e9c565b60405180910390fd5b610cc281611f29565b50565b7f000000000000000000000000000000000000000000000000000000000000000073ffffffffffffffffffffffffffffffffffffffff163073ffffffffffffffffffffffffffffffffffffffff161415610d54576040517f08c379a0000000000000000000000000000000000000000000000000000000008152600401610d4b90614bfc565b60405180910390fd5b7f000000000000000000000000000000000000000000000000000000000000000073ffffffffffffffffffffffffffffffffffffffff16610d93611b9e565b73ffffffffffffffffffffffffffffffffffffffff1614610de9576040517f08c379a0000000000000000000000000000000000000000000000000000000008152600401610de090614c5c565b60405180910390fd5b610df282611bf5565b610dfe82826001611c74565b5050565b6000610e0c61088a565b8210610e4d576040517f08c379a0000000000000000000000000000000000000000000000000000000008152600401610e4490614e7c565b60405180910390fd5b60998281548110610e6157610e60615285565b5b90600052602060002001549050919050565b600060fb60009054906101000a900460ff16905090565b6000806067600084815260200190815260200160002060009054906101000a900473ffffffffffffffffffffffffffffffffffffffff169050600073ffffffffffffffffffffffffffffffffffffffff168173ffffffffffffffffffffffffffffffffffffffff161415610f33576040517f08c379a0000000000000000000000000000000000000000000000000000000008152600401610f2a90614cfc565b60405180910390fd5b80915050919050565b60008073ffffffffffffffffffffffffffffffffffffffff168273ffffffffffffffffffffffffffffffffffffffff161415610fad576040517f08c379a0000000000000000000000000000000000000000000000000000000008152600401610fa490614cdc565b60405180910390fd5b606860008373ffffffffffffffffffffffffffffffffffffffff1673ffffffffffffffffffffffffffffffffffffffff168152602001908152602001600020549050919050565b610ffc6117a3565b73ffffffffffffffffffffffffffffffffffffffff1661101a61127f565b73ffffffffffffffffffffffffffffffffffffffff1614611070576040517f08c379a000000000000000000000000000000000000000000000000000000000815260040161106790614dbc565b60405180910390fd5b61107a6000611f35565b565b600060019054906101000a900460ff16806110a2575060008054906101000a900460ff16155b6110e1576040517f08c379a00000000000000000000000000000000000000000000000000000000081526004016110d890614d1c565b60405180910390fd5b60008060019054906101000a900460ff161590508015611131576001600060016101000a81548160ff02191690831515021790555060016000806101000a81548160ff0219169083151502179055505b6111a56040518060400160405280600981526020017f566f6e6465724e465400000000000000000000000000000000000000000000008152506040518060400160405280600481526020017f564e465400000000000000000000000000000000000000000000000000000000815250611ffd565b6111ad6120f2565b6111b56121e3565b6111bd6122d4565b6111c56123bd565b6111cd6124a6565b6111d5612597565b80156111f65760008060016101000a81548160ff0219169083151502179055505b50565b6112016117a3565b73ffffffffffffffffffffffffffffffffffffffff1661121f61127f565b73ffffffffffffffffffffffffffffffffffffffff1614611275576040517f08c379a000000000000000000000000000000000000000000000000000000000815260040161126c90614dbc565b60405180910390fd5b61127d612680565b565b600061012d60009054906101000a900473ffffffffffffffffffffffffffffffffffffffff16905090565b6060606680546112b9906150ec565b80601f01602080910402602001604051908101604052809291908181526020018280546112e5906150ec565b80156113325780601f1061130757610100808354040283529160200191611332565b820191906000526020600020905b81548152906001019060200180831161131557829003601f168201915b5050505050905090565b6113446117a3565b73ffffffffffffffffffffffffffffffffffffffff168273ffffffffffffffffffffffffffffffffffffffff1614156113b2576040517f08c379a00000000000000000000000000000000000000000000000000000000081526004016113a990614c3c565b60405180910390fd5b80606a60006113bf6117a3565b73ffffffffffffffffffffffffffffffffffffffff1673ffffffffffffffffffffffffffffffffffffffff16815260200190815260200160002060008473ffffffffffffffffffffffffffffffffffffffff1673ffffffffffffffffffffffffffffffffffffffff16815260200190815260200160002060006101000a81548160ff0219169083151502179055508173ffffffffffffffffffffffffffffffffffffffff1661146c6117a3565b73ffffffffffffffffffffffffffffffffffffffff167f17307eab39ab6107e8899845ad3d59bd9653f200f220920489ca2b5937696c31836040516114b19190614aff565b60405180910390a35050565b6114ce6114c86117a3565b83611864565b61150d576040517f08c379a000000000000000000000000000000000000000000000000000000000815260040161150490614e5c565b60405180910390fd5b61151984848484612723565b50505050565b606061152a8261277f565b9050919050565b6000606a60008473ffffffffffffffffffffffffffffffffffffffff1673ffffffffffffffffffffffffffffffffffffffff16815260200190815260200160002060008373ffffffffffffffffffffffffffffffffffffffff1673ffffffffffffffffffffffffffffffffffffffff16815260200190815260200160002060009054906101000a900460ff16905092915050565b6115cd6117a3565b73ffffffffffffffffffffffffffffffffffffffff166115eb61127f565b73ffffffffffffffffffffffffffffffffffffffff1614611641576040517f08c379a000000000000000000000000000000000000000000000000000000000815260040161163890614dbc565b60405180910390fd5b600073ffffffffffffffffffffffffffffffffffffffff168173ffffffffffffffffffffffffffffffffffffffff1614156116b1576040517f08c379a00000000000000000000000000000000000000000000000000000000081526004016116a890614bbc565b60405180910390fd5b6116ba81611f35565b50565b60007f780e9d63000000000000000000000000000000000000000000000000000000007bffffffffffffffffffffffffffffffffffffffffffffffffffffffff1916827bffffffffffffffffffffffffffffffffffffffffffffffffffffffff19161480611730575061172f826128d1565b5b9050919050565b60008073ffffffffffffffffffffffffffffffffffffffff166067600084815260200190815260200160002060009054906101000a900473ffffffffffffffffffffffffffffffffffffffff1673ffffffffffffffffffffffffffffffffffffffff1614159050919050565b600033905090565b816069600083815260200190815260200160002060006101000a81548173ffffffffffffffffffffffffffffffffffffffff021916908373ffffffffffffffffffffffffffffffffffffffff160217905550808273ffffffffffffffffffffffffffffffffffffffff1661181e83610e8a565b73ffffffffffffffffffffffffffffffffffffffff167f8c5be1e5ebec7d5bd14f71427d1e84f3dd0314c0f7b2291e5b200ac8c7c3b92560405160405180910390a45050565b600061186f82611737565b6118ae576040517f08c379a00000000000000000000000000000000000000000000000000000000081526004016118a590614c7c565b60405180910390fd5b60006118b983610e8a565b90508073ffffffffffffffffffffffffffffffffffffffff168473ffffffffffffffffffffffffffffffffffffffff16148061192857508373ffffffffffffffffffffffffffffffffffffffff16611910846106ed565b73ffffffffffffffffffffffffffffffffffffffff16145b8061193957506119388185611531565b5b91505092915050565b8273ffffffffffffffffffffffffffffffffffffffff1661196282610e8a565b73ffffffffffffffffffffffffffffffffffffffff16146119b8576040517f08c379a00000000000000000000000000000000000000000000000000000000081526004016119af90614ddc565b60405180910390fd5b600073ffffffffffffffffffffffffffffffffffffffff168273ffffffffffffffffffffffffffffffffffffffff161415611a28576040517f08c379a0000000000000000000000000000000000000000000000000000000008152600401611a1f90614c1c565b60405180910390fd5b611a338383836129b3565b611a3e6000826117ab565b6001606860008573ffffffffffffffffffffffffffffffffffffffff1673ffffffffffffffffffffffffffffffffffffffff1681526020019081526020016000206000828254611a8e9190615002565b925050819055506001606860008473ffffffffffffffffffffffffffffffffffffffff1673ffffffffffffffffffffffffffffffffffffffff1681526020019081526020016000206000828254611ae59190614f7b565b92505081905550816067600083815260200190815260200160002060006101000a81548173ffffffffffffffffffffffffffffffffffffffff021916908373ffffffffffffffffffffffffffffffffffffffff160217905550808273ffffffffffffffffffffffffffffffffffffffff168473ffffffffffffffffffffffffffffffffffffffff167fddf252ad1be2c89b69c2b068fc378daa952ba7f163c4a11628f55a4df523b3ef60405160405180910390a4505050565b6000611bcc7f360894a13ba1a3210667c828492db98dca3e2076cc3735a920a3ca505d382bbc60001b612a0b565b60000160009054906101000a900473ffffffffffffffffffffffffffffffffffffffff16905090565b611bfd6117a3565b73ffffffffffffffffffffffffffffffffffffffff16611c1b61127f565b73ffffffffffffffffffffffffffffffffffffffff1614611c71576040517f08c379a0000000000000000000000000000000000000000000000000000000008152600401611c6890614dbc565b60405180910390fd5b50565b6000611c7e611b9e565b9050611c8984612a15565b600083511180611c965750815b15611ca757611ca58484612ace565b505b6000611cd57f4910fdfa16fed3260ed0e7147f7cc6da11a60208b5b9406d12a635614ffd914360001b612bb2565b90508060000160009054906101000a900460ff16611e3e5760018160000160006101000a81548160ff021916908315150217905550611da18583604051602401611d1f9190614a98565b6040516020818303038152906040527f3659cfe6000000000000000000000000000000000000000000000000000000007bffffffffffffffffffffffffffffffffffffffffffffffffffffffff19166020820180517bffffffffffffffffffffffffffffffffffffffffffffffffffffffff8381831617835250505050612ace565b5060008160000160006101000a81548160ff021916908315150217905550611dc7611b9e565b73ffffffffffffffffffffffffffffffffffffffff168273ffffffffffffffffffffffffffffffffffffffff1614611e34576040517f08c379a0000000000000000000000000000000000000000000000000000000008152600401611e2b90614b9c565b60405180910390fd5b611e3d85612bbc565b5b5050505050565b611e4d610e73565b611e8c576040517f08c379a0000000000000000000000000000000000000000000000000000000008152600401611e8390614b3c565b60405180910390fd5b600060fb60006101000a81548160ff0219169083151502179055507f5db9ee0a495bf2e6ff9c91a7834c1ba4fdd244a5e8aa4e537bd38aeae4b073aa611ed06117a3565b604051611edd9190614a98565b60405180910390a1565b600081600001549050919050565b611f0f828260405180602001604052806000815250612c0b565b5050565b6001816000016000828254019250508190555050565b611f3281612c66565b50565b600061012d60009054906101000a900473ffffffffffffffffffffffffffffffffffffffff1690508161012d60006101000a81548173ffffffffffffffffffffffffffffffffffffffff021916908373ffffffffffffffffffffffffffffffffffffffff1602179055508173ffffffffffffffffffffffffffffffffffffffff168173ffffffffffffffffffffffffffffffffffffffff167f8be0079c531659141344cd1fd0a4f28419497f9722a3daafe3b4186f6b6457e060405160405180910390a35050565b600060019054906101000a900460ff1680612023575060008054906101000a900460ff16155b612062576040517f08c379a000000000000000000000000000000000000000000000000000000000815260040161205990614d1c565b60405180910390fd5b60008060019054906101000a900460ff1615905080156120b2576001600060016101000a81548160ff02191690831515021790555060016000806101000a81548160ff0219169083151502179055505b6120ba612cb9565b6120c2612d92565b6120cc8383612e6b565b80156120ed5760008060016101000a81548160ff0219169083151502179055505b505050565b600060019054906101000a900460ff1680612118575060008054906101000a900460ff16155b612157576040517f08c379a000000000000000000000000000000000000000000000000000000000815260040161214e90614d1c565b60405180910390fd5b60008060019054906101000a900460ff1615905080156121a7576001600060016101000a81548160ff02191690831515021790555060016000806101000a81548160ff0219169083151502179055505b6121af612cb9565b6121b7612d92565b6121bf612f74565b80156121e05760008060016101000a81548160ff0219169083151502179055505b50565b600060019054906101000a900460ff1680612209575060008054906101000a900460ff16155b612248576040517f08c379a000000000000000000000000000000000000000000000000000000000815260040161223f90614d1c565b60405180910390fd5b60008060019054906101000a900460ff161590508015612298576001600060016101000a81548160ff02191690831515021790555060016000806101000a81548160ff0219169083151502179055505b6122a0612cb9565b6122a8612d92565b6122b061304d565b80156122d15760008060016101000a81548160ff0219169083151502179055505b50565b600060019054906101000a900460ff16806122fa575060008054906101000a900460ff16155b612339576040517f08c379a000000000000000000000000000000000000000000000000000000000815260040161233090614d1c565b60405180910390fd5b60008060019054906101000a900460ff161590508015612389576001600060016101000a81548160ff02191690831515021790555060016000806101000a81548160ff0219169083151502179055505b612391612cb9565b612399613126565b80156123ba5760008060016101000a81548160ff0219169083151502179055505b50565b600060019054906101000a900460ff16806123e3575060008054906101000a900460ff16155b612422576040517f08c379a000000000000000000000000000000000000000000000000000000000815260040161241990614d1c565b60405180910390fd5b60008060019054906101000a900460ff161590508015612472576001600060016101000a81548160ff02191690831515021790555060016000806101000a81548160ff0219169083151502179055505b61247a612cb9565b61248261321a565b80156124a35760008060016101000a81548160ff0219169083151502179055505b50565b600060019054906101000a900460ff16806124cc575060008054906101000a900460ff16155b61250b576040517f08c379a000000000000000000000000000000000000000000000000000000000815260040161250290614d1c565b60405180910390fd5b60008060019054906101000a900460ff16159050801561255b576001600060016101000a81548160ff02191690831515021790555060016000806101000a81548160ff0219169083151502179055505b612563612cb9565b61256b612d92565b612573613303565b80156125945760008060016101000a81548160ff0219169083151502179055505b50565b600060019054906101000a900460ff16806125bd575060008054906101000a900460ff16155b6125fc576040517f08c379a00000000000000000000000000000000000000000000000000000000081526004016125f390614d1c565b60405180910390fd5b60008060019054906101000a900460ff16159050801561264c576001600060016101000a81548160ff02191690831515021790555060016000806101000a81548160ff0219169083151502179055505b6126546133dc565b61265c6134b5565b801561267d5760008060016101000a81548160ff0219169083151502179055505b50565b612688610e73565b156126c8576040517f08c379a00000000000000000000000000000000000000000000000000000000081526004016126bf90614c9c565b60405180910390fd5b600160fb60006101000a81548160ff0219169083151502179055507f62e78cea01bee320cd4e420270b5ea74000d11b0c9f74754ebdbfc544b05a25861270c6117a3565b6040516127199190614a98565b60405180910390a1565b61272e848484611942565b61273a8484848461358e565b612779576040517f08c379a000000000000000000000000000000000000000000000000000000000815260040161277090614b7c565b60405180910390fd5b50505050565b606061278a82611737565b6127c9576040517f08c379a00000000000000000000000000000000000000000000000000000000081526004016127c090614d5c565b60405180910390fd5b600060c9600084815260200190815260200160002080546127e9906150ec565b80601f0160208091040260200160405190810160405280929190818152602001828054612815906150ec565b80156128625780601f1061283757610100808354040283529160200191612862565b820191906000526020600020905b81548152906001019060200180831161284557829003601f168201915b505050505090506000612873613725565b90506000815114156128895781925050506128cc565b6000825111156128be5780826040516020016128a6929190614a74565b604051602081830303815290604052925050506128cc565b6128c78461373c565b925050505b919050565b60007f80ac58cd000000000000000000000000000000000000000000000000000000007bffffffffffffffffffffffffffffffffffffffffffffffffffffffff1916827bffffffffffffffffffffffffffffffffffffffffffffffffffffffff1916148061299c57507f5b5e139f000000000000000000000000000000000000000000000000000000007bffffffffffffffffffffffffffffffffffffffffffffffffffffffff1916827bffffffffffffffffffffffffffffffffffffffffffffffffffffffff1916145b806129ac57506129ab826137e3565b5b9050919050565b6129bb610e73565b156129fb576040517f08c379a00000000000000000000000000000000000000000000000000000000081526004016129f290614c9c565b60405180910390fd5b612a0683838361384d565b505050565b6000819050919050565b612a1e81613961565b612a5d576040517f08c379a0000000000000000000000000000000000000000000000000000000008152600401612a5490614d9c565b60405180910390fd5b80612a8a7f360894a13ba1a3210667c828492db98dca3e2076cc3735a920a3ca505d382bbc60001b612a0b565b60000160006101000a81548173ffffffffffffffffffffffffffffffffffffffff021916908373ffffffffffffffffffffffffffffffffffffffff16021790555050565b6060612ad983613961565b612b18576040517f08c379a0000000000000000000000000000000000000000000000000000000008152600401612b0f90614e3c565b60405180910390fd5b6000808473ffffffffffffffffffffffffffffffffffffffff1684604051612b409190614a5d565b600060405180830381855af49150503d8060008114612b7b576040519150601f19603f3d011682016040523d82523d6000602084013e612b80565b606091505b5091509150612ba88282604051806060016040528060278152602001615b2560279139613974565b9250505092915050565b6000819050919050565b612bc581612a15565b8073ffffffffffffffffffffffffffffffffffffffff167fbc7cd75a20ee27fd9adebab32041f755214dbc6bffa90cc0225b39da2e5c2d3b60405160405180910390a250565b612c1583836139db565b612c22600084848461358e565b612c61576040517f08c379a0000000000000000000000000000000000000000000000000000000008152600401612c5890614b7c565b60405180910390fd5b505050565b612c6f81613ba9565b600060c960008381526020019081526020016000208054612c8f906150ec565b905014612cb65760c960008281526020019081526020016000206000612cb59190614126565b5b50565b600060019054906101000a900460ff1680612cdf575060008054906101000a900460ff16155b612d1e576040517f08c379a0000000000000000000000000000000000000000000000000000000008152600401612d1590614d1c565b60405180910390fd5b60008060019054906101000a900460ff161590508015612d6e576001600060016101000a81548160ff02191690831515021790555060016000806101000a81548160ff0219169083151502179055505b8015612d8f5760008060016101000a81548160ff0219169083151502179055505b50565b600060019054906101000a900460ff1680612db8575060008054906101000a900460ff16155b612df7576040517f08c379a0000000000000000000000000000000000000000000000000000000008152600401612dee90614d1c565b60405180910390fd5b60008060019054906101000a900460ff161590508015612e47576001600060016101000a81548160ff02191690831515021790555060016000806101000a81548160ff0219169083151502179055505b8015612e685760008060016101000a81548160ff0219169083151502179055505b50565b600060019054906101000a900460ff1680612e91575060008054906101000a900460ff16155b612ed0576040517f08c379a0000000000000000000000000000000000000000000000000000000008152600401612ec790614d1c565b60405180910390fd5b60008060019054906101000a900460ff161590508015612f20576001600060016101000a81548160ff02191690831515021790555060016000806101000a81548160ff0219169083151502179055505b8260659080519060200190612f36929190614166565b508160669080519060200190612f4d929190614166565b508015612f6f5760008060016101000a81548160ff0219169083151502179055505b505050565b600060019054906101000a900460ff1680612f9a575060008054906101000a900460ff16155b612fd9576040517f08c379a0000000000000000000000000000000000000000000000000000000008152600401612fd090614d1c565b60405180910390fd5b60008060019054906101000a900460ff161590508015613029576001600060016101000a81548160ff02191690831515021790555060016000806101000a81548160ff0219169083151502179055505b801561304a5760008060016101000a81548160ff0219169083151502179055505b50565b600060019054906101000a900460ff1680613073575060008054906101000a900460ff16155b6130b2576040517f08c379a00000000000000000000000000000000000000000000000000000000081526004016130a990614d1c565b60405180910390fd5b60008060019054906101000a900460ff161590508015613102576001600060016101000a81548160ff02191690831515021790555060016000806101000a81548160ff0219169083151502179055505b80156131235760008060016101000a81548160ff0219169083151502179055505b50565b600060019054906101000a900460ff168061314c575060008054906101000a900460ff16155b61318b576040517f08c379a000000000000000000000000000000000000000000000000000000000815260040161318290614d1c565b60405180910390fd5b60008060019054906101000a900460ff1615905080156131db576001600060016101000a81548160ff02191690831515021790555060016000806101000a81548160ff0219169083151502179055505b600060fb60006101000a81548160ff02191690831515021790555080156132175760008060016101000a81548160ff0219169083151502179055505b50565b600060019054906101000a900460ff1680613240575060008054906101000a900460ff16155b61327f576040517f08c379a000000000000000000000000000000000000000000000000000000000815260040161327690614d1c565b60405180910390fd5b60008060019054906101000a900460ff1615905080156132cf576001600060016101000a81548160ff02191690831515021790555060016000806101000a81548160ff0219169083151502179055505b6132df6132da6117a3565b611f35565b80156133005760008060016101000a81548160ff0219169083151502179055505b50565b600060019054906101000a900460ff1680613329575060008054906101000a900460ff16155b613368576040517f08c379a000000000000000000000000000000000000000000000000000000000815260040161335f90614d1c565b60405180910390fd5b60008060019054906101000a900460ff1615905080156133b8576001600060016101000a81548160ff02191690831515021790555060016000806101000a81548160ff0219169083151502179055505b80156133d95760008060016101000a81548160ff0219169083151502179055505b50565b600060019054906101000a900460ff1680613402575060008054906101000a900460ff16155b613441576040517f08c379a000000000000000000000000000000000000000000000000000000000815260040161343890614d1c565b60405180910390fd5b60008060019054906101000a900460ff161590508015613491576001600060016101000a81548160ff02191690831515021790555060016000806101000a81548160ff0219169083151502179055505b80156134b25760008060016101000a81548160ff0219169083151502179055505b50565b600060019054906101000a900460ff16806134db575060008054906101000a900460ff16155b61351a576040517f08c379a000000000000000000000000000000000000000000000000000000000815260040161351190614d1c565b60405180910390fd5b60008060019054906101000a900460ff16159050801561356a576001600060016101000a81548160ff02191690831515021790555060016000806101000a81548160ff0219169083151502179055505b801561358b5760008060016101000a81548160ff0219169083151502179055505b50565b60006135af8473ffffffffffffffffffffffffffffffffffffffff16613961565b15613718578373ffffffffffffffffffffffffffffffffffffffff1663150b7a026135d86117a3565b8786866040518563ffffffff1660e01b81526004016135fa9493929190614ab3565b602060405180830381600087803b15801561361457600080fd5b505af192505050801561364557506040513d601f19601f82011682018060405250810190613642919061452e565b60015b6136c8573d8060008114613675576040519150601f19603f3d011682016040523d82523d6000602084013e61367a565b606091505b506000815114156136c0576040517f08c379a00000000000000000000000000000000000000000000000000000000081526004016136b790614b7c565b60405180910390fd5b805181602001fd5b63150b7a0260e01b7bffffffffffffffffffffffffffffffffffffffffffffffffffffffff1916817bffffffffffffffffffffffffffffffffffffffffffffffffffffffff19161491505061371d565b600190505b949350505050565b606060405180602001604052806000815250905090565b606061374782611737565b613786576040517f08c379a000000000000000000000000000000000000000000000000000000000815260040161377d90614dfc565b60405180910390fd5b6000613790613725565b905060008151116137b057604051806020016040528060008152506137db565b806137ba84613cba565b6040516020016137cb929190614a74565b6040516020818303038152906040525b915050919050565b60007f01ffc9a7000000000000000000000000000000000000000000000000000000007bffffffffffffffffffffffffffffffffffffffffffffffffffffffff1916827bffffffffffffffffffffffffffffffffffffffffffffffffffffffff1916149050919050565b613858838383613e1b565b600073ffffffffffffffffffffffffffffffffffffffff168373ffffffffffffffffffffffffffffffffffffffff16141561389b5761389681613e20565b6138da565b8173ffffffffffffffffffffffffffffffffffffffff168373ffffffffffffffffffffffffffffffffffffffff16146138d9576138d88382613e69565b5b5b600073ffffffffffffffffffffffffffffffffffffffff168273ffffffffffffffffffffffffffffffffffffffff16141561391d5761391881613fd6565b61395c565b8273ffffffffffffffffffffffffffffffffffffffff168273ffffffffffffffffffffffffffffffffffffffff161461395b5761395a82826140a7565b5b5b505050565b600080823b905060008111915050919050565b60608315613984578290506139d4565b6000835111156139975782518084602001fd5b816040517f08c379a00000000000000000000000000000000000000000000000000000000081526004016139cb9190614b1a565b60405180910390fd5b9392505050565b600073ffffffffffffffffffffffffffffffffffffffff168273ffffffffffffffffffffffffffffffffffffffff161415613a4b576040517f08c379a0000000000000000000000000000000000000000000000000000000008152600401613a4290614d3c565b60405180910390fd5b613a5481611737565b15613a94576040517f08c379a0000000000000000000000000000000000000000000000000000000008152600401613a8b90614bdc565b60405180910390fd5b613aa0600083836129b3565b6001606860008473ffffffffffffffffffffffffffffffffffffffff1673ffffffffffffffffffffffffffffffffffffffff1681526020019081526020016000206000828254613af09190614f7b565b92505081905550816067600083815260200190815260200160002060006101000a81548173ffffffffffffffffffffffffffffffffffffffff021916908373ffffffffffffffffffffffffffffffffffffffff160217905550808273ffffffffffffffffffffffffffffffffffffffff16600073ffffffffffffffffffffffffffffffffffffffff167fddf252ad1be2c89b69c2b068fc378daa952ba7f163c4a11628f55a4df523b3ef60405160405180910390a45050565b6000613bb482610e8a565b9050613bc2816000846129b3565b613bcd6000836117ab565b6001606860008373ffffffffffffffffffffffffffffffffffffffff1673ffffffffffffffffffffffffffffffffffffffff1681526020019081526020016000206000828254613c1d9190615002565b925050819055506067600083815260200190815260200160002060006101000a81549073ffffffffffffffffffffffffffffffffffffffff021916905581600073ffffffffffffffffffffffffffffffffffffffff168273ffffffffffffffffffffffffffffffffffffffff167fddf252ad1be2c89b69c2b068fc378daa952ba7f163c4a11628f55a4df523b3ef60405160405180910390a45050565b60606000821415613d02576040518060400160405280600181526020017f30000000000000000000000000000000000000000000000000000000000000008152509050613e16565b600082905060005b60008214613d34578080613d1d9061514f565b915050600a82613d2d9190614fd1565b9150613d0a565b60008167ffffffffffffffff811115613d5057613d4f6152b4565b5b6040519080825280601f01601f191660200182016040528015613d825781602001600182028036833780820191505090505b5090505b60008514613e0f57600182613d9b9190615002565b9150600a85613daa9190615198565b6030613db69190614f7b565b60f81b818381518110613dcc57613dcb615285565b5b60200101907effffffffffffffffffffffffffffffffffffffffffffffffffffffffffffff1916908160001a905350600a85613e089190614fd1565b9450613d86565b8093505050505b919050565b505050565b609980549050609a600083815260200190815260200160002081905550609981908060018154018082558091505060019003906000526020600020016000909190919091505550565b60006001613e7684610f3c565b613e809190615002565b9050600060986000848152602001908152602001600020549050818114613f65576000609760008673ffffffffffffffffffffffffffffffffffffffff1673ffffffffffffffffffffffffffffffffffffffff168152602001908152602001600020600084815260200190815260200160002054905080609760008773ffffffffffffffffffffffffffffffffffffffff1673ffffffffffffffffffffffffffffffffffffffff168152602001908152602001600020600084815260200190815260200160002081905550816098600083815260200190815260200160002081905550505b6098600084815260200190815260200160002060009055609760008573ffffffffffffffffffffffffffffffffffffffff1673ffffffffffffffffffffffffffffffffffffffff16815260200190815260200160002060008381526020019081526020016000206000905550505050565b60006001609980549050613fea9190615002565b90506000609a600084815260200190815260200160002054905060006099838154811061401a57614019615285565b5b90600052602060002001549050806099838154811061403c5761403b615285565b5b906000526020600020018190555081609a600083815260200190815260200160002081905550609a600085815260200190815260200160002060009055609980548061408b5761408a615256565b5b6001900381819060005260206000200160009055905550505050565b60006140b283610f3c565b905081609760008573ffffffffffffffffffffffffffffffffffffffff1673ffffffffffffffffffffffffffffffffffffffff168152602001908152602001600020600083815260200190815260200160002081905550806098600084815260200190815260200160002081905550505050565b508054614132906150ec565b6000825580601f106141445750614163565b601f01602090049060005260206000209081019061416291906141ec565b5b50565b828054614172906150ec565b90600052602060002090601f01602090048101928261419457600085556141db565b82601f106141ad57805160ff19168380011785556141db565b828001600101855582156141db579182015b828111156141da5782518255916020019190600101906141bf565b5b5090506141e891906141ec565b5090565b5b808211156142055760008160009055506001016141ed565b5090565b600061421c61421784614efc565b614ed7565b905082815260208101848484011115614238576142376152e8565b5b6142438482856150aa565b509392505050565b60008135905061425a81615ac8565b92915050565b60008135905061426f81615adf565b92915050565b60008135905061428481615af6565b92915050565b60008151905061429981615af6565b92915050565b600082601f8301126142b4576142b36152e3565b5b81356142c4848260208601614209565b91505092915050565b6000813590506142dc81615b0d565b92915050565b6000602082840312156142f8576142f76152f2565b5b60006143068482850161424b565b91505092915050565b60008060408385031215614326576143256152f2565b5b60006143348582860161424b565b92505060206143458582860161424b565b9150509250929050565b600080600060608486031215614368576143676152f2565b5b60006143768682870161424b565b93505060206143878682870161424b565b9250506040614398868287016142cd565b9150509250925092565b600080600080608085870312156143bc576143bb6152f2565b5b60006143ca8782880161424b565b94505060206143db8782880161424b565b93505060406143ec878288016142cd565b925050606085013567ffffffffffffffff81111561440d5761440c6152ed565b5b6144198782880161429f565b91505092959194509250565b6000806040838503121561443c5761443b6152f2565b5b600061444a8582860161424b565b925050602061445b85828601614260565b9150509250929050565b6000806040838503121561447c5761447b6152f2565b5b600061448a8582860161424b565b925050602083013567ffffffffffffffff8111156144ab576144aa6152ed565b5b6144b78582860161429f565b9150509250929050565b600080604083850312156144d8576144d76152f2565b5b60006144e68582860161424b565b92505060206144f7858286016142cd565b9150509250929050565b600060208284031215614517576145166152f2565b5b600061452584828501614275565b91505092915050565b600060208284031215614544576145436152f2565b5b60006145528482850161428a565b91505092915050565b600060208284031215614571576145706152f2565b5b600061457f848285016142cd565b91505092915050565b61459181615036565b82525050565b6145a081615048565b82525050565b60006145b182614f2d565b6145bb8185614f43565b93506145cb8185602086016150b9565b6145d4816152f7565b840191505092915050565b60006145ea82614f2d565b6145f48185614f54565b93506146048185602086016150b9565b80840191505092915050565b600061461b82614f38565b6146258185614f5f565b93506146358185602086016150b9565b61463e816152f7565b840191505092915050565b600061465482614f38565b61465e8185614f70565b935061466e8185602086016150b9565b80840191505092915050565b6000614687601483614f5f565b915061469282615308565b602082019050919050565b60006146aa602b83614f5f565b91506146b582615331565b604082019050919050565b60006146cd603283614f5f565b91506146d882615380565b604082019050919050565b60006146f0602f83614f5f565b91506146fb826153cf565b604082019050919050565b6000614713602683614f5f565b915061471e8261541e565b604082019050919050565b6000614736601c83614f5f565b91506147418261546d565b602082019050919050565b6000614759602c83614f5f565b915061476482615496565b604082019050919050565b600061477c602483614f5f565b9150614787826154e5565b604082019050919050565b600061479f601983614f5f565b91506147aa82615534565b602082019050919050565b60006147c2602c83614f5f565b91506147cd8261555d565b604082019050919050565b60006147e5602c83614f5f565b91506147f0826155ac565b604082019050919050565b6000614808601083614f5f565b9150614813826155fb565b602082019050919050565b600061482b603883614f5f565b915061483682615624565b604082019050919050565b600061484e602a83614f5f565b915061485982615673565b604082019050919050565b6000614871602983614f5f565b915061487c826156c2565b604082019050919050565b6000614894602e83614f5f565b915061489f82615711565b604082019050919050565b60006148b7602083614f5f565b91506148c282615760565b602082019050919050565b60006148da603183614f5f565b91506148e582615789565b604082019050919050565b60006148fd602c83614f5f565b9150614908826157d8565b604082019050919050565b6000614920602d83614f5f565b915061492b82615827565b604082019050919050565b6000614943602083614f5f565b915061494e82615876565b602082019050919050565b6000614966602983614f5f565b91506149718261589f565b604082019050919050565b6000614989602f83614f5f565b9150614994826158ee565b604082019050919050565b60006149ac602183614f5f565b91506149b78261593d565b604082019050919050565b60006149cf602683614f5f565b91506149da8261598c565b604082019050919050565b60006149f2603183614f5f565b91506149fd826159db565b604082019050919050565b6000614a15602c83614f5f565b9150614a2082615a2a565b604082019050919050565b6000614a38603083614f5f565b9150614a4382615a79565b604082019050919050565b614a57816150a0565b82525050565b6000614a6982846145df565b915081905092915050565b6000614a808285614649565b9150614a8c8284614649565b91508190509392505050565b6000602082019050614aad6000830184614588565b92915050565b6000608082019050614ac86000830187614588565b614ad56020830186614588565b614ae26040830185614a4e565b8181036060830152614af481846145a6565b905095945050505050565b6000602082019050614b146000830184614597565b92915050565b60006020820190508181036000830152614b348184614610565b905092915050565b60006020820190508181036000830152614b558161467a565b9050919050565b60006020820190508181036000830152614b758161469d565b9050919050565b60006020820190508181036000830152614b95816146c0565b9050919050565b60006020820190508181036000830152614bb5816146e3565b9050919050565b60006020820190508181036000830152614bd581614706565b9050919050565b60006020820190508181036000830152614bf581614729565b9050919050565b60006020820190508181036000830152614c158161474c565b9050919050565b60006020820190508181036000830152614c358161476f565b9050919050565b60006020820190508181036000830152614c5581614792565b9050919050565b60006020820190508181036000830152614c75816147b5565b9050919050565b60006020820190508181036000830152614c95816147d8565b9050919050565b60006020820190508181036000830152614cb5816147fb565b9050919050565b60006020820190508181036000830152614cd58161481e565b9050919050565b60006020820190508181036000830152614cf581614841565b9050919050565b60006020820190508181036000830152614d1581614864565b9050919050565b60006020820190508181036000830152614d3581614887565b9050919050565b60006020820190508181036000830152614d55816148aa565b9050919050565b60006020820190508181036000830152614d75816148cd565b9050919050565b60006020820190508181036000830152614d95816148f0565b9050919050565b60006020820190508181036000830152614db581614913565b9050919050565b60006020820190508181036000830152614dd581614936565b9050919050565b60006020820190508181036000830152614df581614959565b9050919050565b60006020820190508181036000830152614e158161497c565b9050919050565b60006020820190508181036000830152614e358161499f565b9050919050565b60006020820190508181036000830152614e55816149c2565b9050919050565b60006020820190508181036000830152614e75816149e5565b9050919050565b60006020820190508181036000830152614e9581614a08565b9050919050565b60006020820190508181036000830152614eb581614a2b565b9050919050565b6000602082019050614ed16000830184614a4e565b92915050565b6000614ee1614ef2565b9050614eed828261511e565b919050565b6000604051905090565b600067ffffffffffffffff821115614f1757614f166152b4565b5b614f20826152f7565b9050602081019050919050565b600081519050919050565b600081519050919050565b600082825260208201905092915050565b600081905092915050565b600082825260208201905092915050565b600081905092915050565b6000614f86826150a0565b9150614f91836150a0565b9250827fffffffffffffffffffffffffffffffffffffffffffffffffffffffffffffffff03821115614fc657614fc56151c9565b5b828201905092915050565b6000614fdc826150a0565b9150614fe7836150a0565b925082614ff757614ff66151f8565b5b828204905092915050565b600061500d826150a0565b9150615018836150a0565b92508282101561502b5761502a6151c9565b5b828203905092915050565b600061504182615080565b9050919050565b60008115159050919050565b60007fffffffff0000000000000000000000000000000000000000000000000000000082169050919050565b600073ffffffffffffffffffffffffffffffffffffffff82169050919050565b6000819050919050565b82818337600083830152505050565b60005b838110156150d75780820151818401526020810190506150bc565b838111156150e6576000848401525b50505050565b6000600282049050600182168061510457607f821691505b6020821081141561511857615117615227565b5b50919050565b615127826152f7565b810181811067ffffffffffffffff82111715615146576151456152b4565b5b80604052505050565b600061515a826150a0565b91507fffffffffffffffffffffffffffffffffffffffffffffffffffffffffffffffff82141561518d5761518c6151c9565b5b600182019050919050565b60006151a3826150a0565b91506151ae836150a0565b9250826151be576151bd6151f8565b5b828206905092915050565b7f4e487b7100000000000000000000000000000000000000000000000000000000600052601160045260246000fd5b7f4e487b7100000000000000000000000000000000000000000000000000000000600052601260045260246000fd5b7f4e487b7100000000000000000000000000000000000000000000000000000000600052602260045260246000fd5b7f4e487b7100000000000000000000000000000000000000000000000000000000600052603160045260246000fd5b7f4e487b7100000000000000000000000000000000000000000000000000000000600052603260045260246000fd5b7f4e487b7100000000000000000000000000000000000000000000000000000000600052604160045260246000fd5b600080fd5b600080fd5b600080fd5b600080fd5b6000601f19601f8301169050919050565b7f5061757361626c653a206e6f7420706175736564000000000000000000000000600082015250565b7f455243373231456e756d657261626c653a206f776e657220696e646578206f7560008201527f74206f6620626f756e6473000000000000000000000000000000000000000000602082015250565b7f4552433732313a207472616e7366657220746f206e6f6e20455243373231526560008201527f63656976657220696d706c656d656e7465720000000000000000000000000000602082015250565b7f45524331393637557067726164653a207570677261646520627265616b73206660008201527f7572746865722075706772616465730000000000000000000000000000000000602082015250565b7f4f776e61626c653a206e6577206f776e657220697320746865207a65726f206160008201527f6464726573730000000000000000000000000000000000000000000000000000602082015250565b7f4552433732313a20746f6b656e20616c7265616479206d696e74656400000000600082015250565b7f46756e6374696f6e206d7573742062652063616c6c6564207468726f7567682060008201527f64656c656761746563616c6c0000000000000000000000000000000000000000602082015250565b7f4552433732313a207472616e7366657220746f20746865207a65726f2061646460008201527f7265737300000000000000000000000000000000000000000000000000000000602082015250565b7f4552433732313a20617070726f766520746f2063616c6c657200000000000000600082015250565b7f46756e6374696f6e206d7573742062652063616c6c6564207468726f7567682060008201527f6163746976652070726f78790000000000000000000000000000000000000000602082015250565b7f4552433732313a206f70657261746f7220717565727920666f72206e6f6e657860008201527f697374656e7420746f6b656e0000000000000000000000000000000000000000602082015250565b7f5061757361626c653a2070617573656400000000000000000000000000000000600082015250565b7f4552433732313a20617070726f76652063616c6c6572206973206e6f74206f7760008201527f6e6572206e6f7220617070726f76656420666f7220616c6c0000000000000000602082015250565b7f4552433732313a2062616c616e636520717565727920666f7220746865207a6560008201527f726f206164647265737300000000000000000000000000000000000000000000602082015250565b7f4552433732313a206f776e657220717565727920666f72206e6f6e657869737460008201527f656e7420746f6b656e0000000000000000000000000000000000000000000000602082015250565b7f496e697469616c697a61626c653a20636f6e747261637420697320616c72656160008201527f647920696e697469616c697a6564000000000000000000000000000000000000602082015250565b7f4552433732313a206d696e7420746f20746865207a65726f2061646472657373600082015250565b7f45524337323155524953746f726167653a2055524920717565727920666f722060008201527f6e6f6e6578697374656e7420746f6b656e000000000000000000000000000000602082015250565b7f4552433732313a20617070726f76656420717565727920666f72206e6f6e657860008201527f697374656e7420746f6b656e0000000000000000000000000000000000000000602082015250565b7f455243313936373a206e657720696d706c656d656e746174696f6e206973206e60008201527f6f74206120636f6e747261637400000000000000000000000000000000000000602082015250565b7f4f776e61626c653a2063616c6c6572206973206e6f7420746865206f776e6572600082015250565b7f4552433732313a207472616e73666572206f6620746f6b656e2074686174206960008201527f73206e6f74206f776e0000000000000000000000000000000000000000000000602082015250565b7f4552433732314d657461646174613a2055524920717565727920666f72206e6f60008201527f6e6578697374656e7420746f6b656e0000000000000000000000000000000000602082015250565b7f4552433732313a20617070726f76616c20746f2063757272656e74206f776e6560008201527f7200000000000000000000000000000000000000000000000000000000000000602082015250565b7f416464726573733a2064656c65676174652063616c6c20746f206e6f6e2d636f60008201527f6e74726163740000000000000000000000000000000000000000000000000000602082015250565b7f4552433732313a207472616e736665722063616c6c6572206973206e6f74206f60008201527f776e6572206e6f7220617070726f766564000000000000000000000000000000602082015250565b7f455243373231456e756d657261626c653a20676c6f62616c20696e646578206f60008201527f7574206f6620626f756e64730000000000000000000000000000000000000000602082015250565b7f4552433732314275726e61626c653a2063616c6c6572206973206e6f74206f7760008201527f6e6572206e6f7220617070726f76656400000000000000000000000000000000602082015250565b615ad181615036565b8114615adc57600080fd5b50565b615ae881615048565b8114615af357600080fd5b50565b615aff81615054565b8114615b0a57600080fd5b50565b615b16816150a0565b8114615b2157600080fd5b5056fe416464726573733a206c6f772d6c6576656c2064656c65676174652063616c6c206661696c6564a2646970667358221220bf274e5662319990ad03a39f2319be134608dfe5fa226f6e2e4824e1e1111c6464736f6c63430008070033",
  "linkReferences": {},
  "deployedLinkReferences": {}
}