{
  "_format": "hh-sol-artifact-1",
  "contractName": "FamilyWeightRandom",
  "sourceName": "contracts/FamilyWeightRandom.sol",
  "abi": [
    {
      "constant": true,
      "inputs": [
        {
          "name": "hand",
          "type": "uint256"
        }
      ],
      "name": "pickRandomByHand",
      "outputs": [
        {
          "name": "rank",
          "type": "uint8"
        }
      ],
      "payable": false,
      "stateMutability": "view",
      "type": "function"
    },
    {
      "constant": true,
      "inputs": [],
      "name": "SUM_TREE_KEY",
      "outputs": [
        {
          "name": "",
          "type": "bytes32"
        }
      ],
      "payable": false,
      "stateMutability": "view",
      "type": "function"
    },
    {
      "constant": true,
      "inputs": [
        {
          "name": "index",
          "type": "uint256"
        }
      ],
      "name": "indexOf",
      "outputs": [
        {
          "name": "rank",
          "type": "uint8"
        }
      ],
      "payable": false,
      "stateMutability": "view",
      "type": "function"
    },
    {
      "constant": true,
      "inputs": [],
      "name": "pickRandom",
      "outputs": [
        {
          "name": "rank",
          "type": "uint8"
        }
      ],
      "payable": false,
      "stateMutability": "view",
      "type": "function"
    },
    {
      "constant": false,
      "inputs": [],
      "name": "mock",
      "outputs": [],
      "payable": false,
      "stateMutability": "nonpayable",
      "type": "function"
    },
    {
      "inputs": [],
      "payable": false,
      "stateMutability": "nonpayable",
      "type": "constructor"
    }
  ],
  "bytecode": "0x608060405234801561001057600080fd5b50600073__contracts/FamilyWeightRandom.sol:Sor__639075789e90917f4b45594b45594b4559000000000000000000000000000000000000000000000060056040518463ffffffff167c0100000000000000000000000000000000000000000000000000000000028152600401808481526020018360001916600019168152602001828152602001935050505060006040518083038186803b1580156100b857600080fd5b505af41580156100cc573d6000803e3d6000fd5b5050505061073b806100df6000396000f30060806040526004361061006d576000357c0100000000000000000000000000000000000000000000000000000000900463ffffffff1680635852091b1461007257806362afd4b0146100b957806391ac7e65146100ec578063d0b28caa14610133578063e543804a14610164575b600080fd5b34801561007e57600080fd5b5061009d6004803603810190808035906020019092919050505061017b565b604051808260ff1660ff16815260200191505060405180910390f35b3480156100c557600080fd5b506100ce6101ae565b60405180826000191660001916815260200191505060405180910390f35b3480156100f857600080fd5b50610117600480360381019080803590602001909291905050506101d2565b604051808260ff1660ff16815260200191505060405180910390f35b34801561013f57600080fd5b506101486102bf565b604051808260ff1660ff16815260200191505060405180910390f35b34801561017057600080fd5b506101796102f0565b005b60006101a7824260405180838152602001828152602001925050506040518091039020600190046101d2565b9050919050565b7f4b45594b45594b4559000000000000000000000000000000000000000000000081565b60008073__contracts/FamilyWeightRandom.sol:Sor__6388c1d46790917f4b45594b45594b45590000000000000000000000000000000000000000000000856040518463ffffffff167c0100000000000000000000000000000000000000000000000000000000028152600401808481526020018360001916600019168152602001828152602001935050505060206040518083038186803b15801561027957600080fd5b505af415801561028d573d6000803e3d6000fd5b505050506040513d60208110156102a357600080fd5b8101908080519060200190929190505050600190049050919050565b60006102eb444260405180838152602001828152602001925050506040518091039020600190046101d2565b905090565b600073__contracts/FamilyWeightRandom.sol:Sor__632e25c38a90917f4b45594b45594b45590000000000000000000000000000000000000000000000607d600180026040518563ffffffff167c0100000000000000000000000000000000000000000000000000000000028152600401808581526020018460001916600019168152602001838152602001826000191660001916815260200194505050505060006040518083038186803b1580156103aa57600080fd5b505af41580156103be573d6000803e3d6000fd5b50505050600073__contracts/FamilyWeightRandom.sol:Sor__632e25c38a90917f4b45594b45594b45590000000000000000000000000000000000000000000000607d60026001026040518563ffffffff167c0100000000000000000000000000000000000000000000000000000000028152600401808581526020018460001916600019168152602001838152602001826000191660001916815260200194505050505060006040518083038186803b15801561047d57600080fd5b505af4158015610491573d6000803e3d6000fd5b50505050600073__contracts/FamilyWeightRandom.sol:Sor__632e25c38a90917f4b45594b45594b45590000000000000000000000000000000000000000000000607d60036001026040518563ffffffff167c0100000000000000000000000000000000000000000000000000000000028152600401808581526020018460001916600019168152602001838152602001826000191660001916815260200194505050505060006040518083038186803b15801561055057600080fd5b505af4158015610564573d6000803e3d6000fd5b50505050600073__contracts/FamilyWeightRandom.sol:Sor__632e25c38a90917f4b45594b45594b45590000000000000000000000000000000000000000000000607d60046001026040518563ffffffff167c0100000000000000000000000000000000000000000000000000000000028152600401808581526020018460001916600019168152602001838152602001826000191660001916815260200194505050505060006040518083038186803b15801561062357600080fd5b505af4158015610637573d6000803e3d6000fd5b50505050600073__contracts/FamilyWeightRandom.sol:Sor__632e25c38a90917f4b45594b45594b455900000000000000000000000000000000000000000000006005806001026040518563ffffffff167c0100000000000000000000000000000000000000000000000000000000028152600401808581526020018460001916600019168152602001838152602001826000191660001916815260200194505050505060006040518083038186803b1580156106f557600080fd5b505af4158015610709573d6000803e3d6000fd5b505050505600a165627a7a7230582031c78530a25c819e4ca4f079450ada02b150b98cd0145d39f857529d428ef1930029",
  "deployedBytecode": "0x60806040526004361061006d576000357c0100000000000000000000000000000000000000000000000000000000900463ffffffff1680635852091b1461007257806362afd4b0146100b957806391ac7e65146100ec578063d0b28caa14610133578063e543804a14610164575b600080fd5b34801561007e57600080fd5b5061009d6004803603810190808035906020019092919050505061017b565b604051808260ff1660ff16815260200191505060405180910390f35b3480156100c557600080fd5b506100ce6101ae565b60405180826000191660001916815260200191505060405180910390f35b3480156100f857600080fd5b50610117600480360381019080803590602001909291905050506101d2565b604051808260ff1660ff16815260200191505060405180910390f35b34801561013f57600080fd5b506101486102bf565b604051808260ff1660ff16815260200191505060405180910390f35b34801561017057600080fd5b506101796102f0565b005b60006101a7824260405180838152602001828152602001925050506040518091039020600190046101d2565b9050919050565b7f4b45594b45594b4559000000000000000000000000000000000000000000000081565b60008073__contracts/FamilyWeightRandom.sol:Sor__6388c1d46790917f4b45594b45594b45590000000000000000000000000000000000000000000000856040518463ffffffff167c0100000000000000000000000000000000000000000000000000000000028152600401808481526020018360001916600019168152602001828152602001935050505060206040518083038186803b15801561027957600080fd5b505af415801561028d573d6000803e3d6000fd5b505050506040513d60208110156102a357600080fd5b8101908080519060200190929190505050600190049050919050565b60006102eb444260405180838152602001828152602001925050506040518091039020600190046101d2565b905090565b600073__contracts/FamilyWeightRandom.sol:Sor__632e25c38a90917f4b45594b45594b45590000000000000000000000000000000000000000000000607d600180026040518563ffffffff167c0100000000000000000000000000000000000000000000000000000000028152600401808581526020018460001916600019168152602001838152602001826000191660001916815260200194505050505060006040518083038186803b1580156103aa57600080fd5b505af41580156103be573d6000803e3d6000fd5b50505050600073__contracts/FamilyWeightRandom.sol:Sor__632e25c38a90917f4b45594b45594b45590000000000000000000000000000000000000000000000607d60026001026040518563ffffffff167c0100000000000000000000000000000000000000000000000000000000028152600401808581526020018460001916600019168152602001838152602001826000191660001916815260200194505050505060006040518083038186803b15801561047d57600080fd5b505af4158015610491573d6000803e3d6000fd5b50505050600073__contracts/FamilyWeightRandom.sol:Sor__632e25c38a90917f4b45594b45594b45590000000000000000000000000000000000000000000000607d60036001026040518563ffffffff167c0100000000000000000000000000000000000000000000000000000000028152600401808581526020018460001916600019168152602001838152602001826000191660001916815260200194505050505060006040518083038186803b15801561055057600080fd5b505af4158015610564573d6000803e3d6000fd5b50505050600073__contracts/FamilyWeightRandom.sol:Sor__632e25c38a90917f4b45594b45594b45590000000000000000000000000000000000000000000000607d60046001026040518563ffffffff167c0100000000000000000000000000000000000000000000000000000000028152600401808581526020018460001916600019168152602001838152602001826000191660001916815260200194505050505060006040518083038186803b15801561062357600080fd5b505af4158015610637573d6000803e3d6000fd5b50505050600073__contracts/FamilyWeightRandom.sol:Sor__632e25c38a90917f4b45594b45594b455900000000000000000000000000000000000000000000006005806001026040518563ffffffff167c0100000000000000000000000000000000000000000000000000000000028152600401808581526020018460001916600019168152602001838152602001826000191660001916815260200194505050505060006040518083038186803b1580156106f557600080fd5b505af4158015610709573d6000803e3d6000fd5b505050505600a165627a7a7230582031c78530a25c819e4ca4f079450ada02b150b98cd0145d39f857529d428ef1930029",
  "linkReferences": {
    "contracts/FamilyWeightRandom.sol": {
      "SortitionSumTreeFactory": [
        {
          "length": 20,
          "start": 21
        },
        {
          "length": 20,
          "start": 694
        },
        {
          "length": 20,
          "start": 979
        },
        {
          "length": 20,
          "start": 1189
        },
        {
          "length": 20,
          "start": 1400
        },
        {
          "length": 20,
          "start": 1611
        },
        {
          "length": 20,
          "start": 1822
        }
      ]
    }
  },
  "deployedLinkReferences": {
    "contracts/FamilyWeightRandom.sol": {
      "SortitionSumTreeFactory": [
        {
          "length": 20,
          "start": 471
        },
        {
          "length": 20,
          "start": 756
        },
        {
          "length": 20,
          "start": 966
        },
        {
          "length": 20,
          "start": 1177
        },
        {
          "length": 20,
          "start": 1388
        },
        {
          "length": 20,
          "start": 1599
        }
      ]
    }
  }
}