{
  "_format": "hh-sol-artifact-1",
  "contractName": "CryptoNFTs",
  "sourceName": "contracts/CrytoNFTs.sol",
  "abi": [
    {
      "inputs": [],
      "stateMutability": "nonpayable",
      "type": "constructor"
    },
    {
      "anonymous": false,
      "inputs": [
        {
          "indexed": true,
          "internalType": "address",
          "name": "owner",
          "type": "address"
        },
        {
          "indexed": true,
          "internalType": "address",
          "name": "approved",
          "type": "address"
        },
        {
          "indexed": true,
          "internalType": "uint256",
          "name": "tokenId",
          "type": "uint256"
        }
      ],
      "name": "Approval",
      "type": "event"
    },
    {
      "anonymous": false,
      "inputs": [
        {
          "indexed": true,
          "internalType": "address",
          "name": "owner",
          "type": "address"
        },
        {
          "indexed": true,
          "internalType": "address",
          "name": "operator",
          "type": "address"
        },
        {
          "indexed": false,
          "internalType": "bool",
          "name": "approved",
          "type": "bool"
        }
      ],
      "name": "ApprovalForAll",
      "type": "event"
    },
    {
      "anonymous": false,
      "inputs": [
        {
          "indexed": true,
          "internalType": "address",
          "name": "from",
          "type": "address"
        },
        {
          "indexed": true,
          "internalType": "address",
          "name": "to",
          "type": "address"
        },
        {
          "indexed": true,
          "internalType": "uint256",
          "name": "tokenId",
          "type": "uint256"
        }
      ],
      "name": "Transfer",
      "type": "event"
    },
    {
      "inputs": [
        {
          "internalType": "uint256",
          "name": "",
          "type": "uint256"
        }
      ],
      "name": "allCryptoNFTs",
      "outputs": [
        {
          "internalType": "uint256",
          "name": "tokenId",
          "type": "uint256"
        },
        {
          "internalType": "string",
          "name": "tokenName",
          "type": "string"
        },
        {
          "internalType": "string",
          "name": "tokenURI",
          "type": "string"
        },
        {
          "internalType": "address payable",
          "name": "mintedBy",
          "type": "address"
        },
        {
          "internalType": "address payable",
          "name": "currentOwner",
          "type": "address"
        },
        {
          "internalType": "address payable",
          "name": "previousOwner",
          "type": "address"
        },
        {
          "internalType": "uint256",
          "name": "price",
          "type": "uint256"
        },
        {
          "internalType": "uint256",
          "name": "numberOfTransfers",
          "type": "uint256"
        },
        {
          "internalType": "bool",
          "name": "forSale",
          "type": "bool"
        }
      ],
      "stateMutability": "view",
      "type": "function"
    },
    {
      "inputs": [
        {
          "internalType": "address",
          "name": "to",
          "type": "address"
        },
        {
          "internalType": "uint256",
          "name": "tokenId",
          "type": "uint256"
        }
      ],
      "name": "approve",
      "outputs": [],
      "stateMutability": "nonpayable",
      "type": "function"
    },
    {
      "inputs": [
        {
          "internalType": "address",
          "name": "owner",
          "type": "address"
        }
      ],
      "name": "balanceOf",
      "outputs": [
        {
          "internalType": "uint256",
          "name": "",
          "type": "uint256"
        }
      ],
      "stateMutability": "view",
      "type": "function"
    },
    {
      "inputs": [],
      "name": "baseURI",
      "outputs": [
        {
          "internalType": "string",
          "name": "",
          "type": "string"
        }
      ],
      "stateMutability": "view",
      "type": "function"
    },
    {
      "inputs": [
        {
          "internalType": "uint256",
          "name": "_tokenId",
          "type": "uint256"
        }
      ],
      "name": "buyToken",
      "outputs": [],
      "stateMutability": "payable",
      "type": "function"
    },
    {
      "inputs": [
        {
          "internalType": "uint256",
          "name": "_tokenId",
          "type": "uint256"
        },
        {
          "internalType": "uint256",
          "name": "_newPrice",
          "type": "uint256"
        }
      ],
      "name": "changeTokenPrice",
      "outputs": [],
      "stateMutability": "nonpayable",
      "type": "function"
    },
    {
      "inputs": [],
      "name": "collectionName",
      "outputs": [
        {
          "internalType": "string",
          "name": "",
          "type": "string"
        }
      ],
      "stateMutability": "view",
      "type": "function"
    },
    {
      "inputs": [],
      "name": "collectionNameSymbol",
      "outputs": [
        {
          "internalType": "string",
          "name": "",
          "type": "string"
        }
      ],
      "stateMutability": "view",
      "type": "function"
    },
    {
      "inputs": [
        {
          "internalType": "string",
          "name": "",
          "type": "string"
        }
      ],
      "name": "colorExists",
      "outputs": [
        {
          "internalType": "bool",
          "name": "",
          "type": "bool"
        }
      ],
      "stateMutability": "view",
      "type": "function"
    },
    {
      "inputs": [],
      "name": "cryptoNFTsCounter",
      "outputs": [
        {
          "internalType": "uint256",
          "name": "",
          "type": "uint256"
        }
      ],
      "stateMutability": "view",
      "type": "function"
    },
    {
      "inputs": [
        {
          "internalType": "uint256",
          "name": "tokenId",
          "type": "uint256"
        }
      ],
      "name": "getApproved",
      "outputs": [
        {
          "internalType": "address",
          "name": "",
          "type": "address"
        }
      ],
      "stateMutability": "view",
      "type": "function"
    },
    {
      "inputs": [],
      "name": "getNumberOfTokensMinted",
      "outputs": [
        {
          "internalType": "uint256",
          "name": "",
          "type": "uint256"
        }
      ],
      "stateMutability": "view",
      "type": "function"
    },
    {
      "inputs": [
        {
          "internalType": "uint256",
          "name": "_tokenId",
          "type": "uint256"
        }
      ],
      "name": "getTokenExists",
      "outputs": [
        {
          "internalType": "bool",
          "name": "",
          "type": "bool"
        }
      ],
      "stateMutability": "view",
      "type": "function"
    },
    {
      "inputs": [
        {
          "internalType": "uint256",
          "name": "_tokenId",
          "type": "uint256"
        }
      ],
      "name": "getTokenMetaData",
      "outputs": [
        {
          "internalType": "string",
          "name": "",
          "type": "string"
        }
      ],
      "stateMutability": "view",
      "type": "function"
    },
    {
      "inputs": [
        {
          "internalType": "uint256",
          "name": "_tokenId",
          "type": "uint256"
        }
      ],
      "name": "getTokenOwner",
      "outputs": [
        {
          "internalType": "address",
          "name": "",
          "type": "address"
        }
      ],
      "stateMutability": "view",
      "type": "function"
    },
    {
      "inputs": [
        {
          "internalType": "address",
          "name": "_owner",
          "type": "address"
        }
      ],
      "name": "getTotalNumberOfTokensOwnedByAnAddress",
      "outputs": [
        {
          "internalType": "uint256",
          "name": "",
          "type": "uint256"
        }
      ],
      "stateMutability": "view",
      "type": "function"
    },
    {
      "inputs": [
        {
          "internalType": "address",
          "name": "owner",
          "type": "address"
        },
        {
          "internalType": "address",
          "name": "operator",
          "type": "address"
        }
      ],
      "name": "isApprovedForAll",
      "outputs": [
        {
          "internalType": "bool",
          "name": "",
          "type": "bool"
        }
      ],
      "stateMutability": "view",
      "type": "function"
    },
    {
      "inputs": [
        {
          "internalType": "string",
          "name": "_name",
          "type": "string"
        },
        {
          "internalType": "string",
          "name": "_tokenURI",
          "type": "string"
        },
        {
          "internalType": "uint256",
          "name": "_price",
          "type": "uint256"
        },
        {
          "internalType": "string[]",
          "name": "_colors",
          "type": "string[]"
        }
      ],
      "name": "mintCryptoNFTs",
      "outputs": [],
      "stateMutability": "nonpayable",
      "type": "function"
    },
    {
      "inputs": [],
      "name": "name",
      "outputs": [
        {
          "internalType": "string",
          "name": "",
          "type": "string"
        }
      ],
      "stateMutability": "view",
      "type": "function"
    },
    {
      "inputs": [
        {
          "internalType": "uint256",
          "name": "tokenId",
          "type": "uint256"
        }
      ],
      "name": "ownerOf",
      "outputs": [
        {
          "internalType": "address",
          "name": "",
          "type": "address"
        }
      ],
      "stateMutability": "view",
      "type": "function"
    },
    {
      "inputs": [
        {
          "internalType": "address",
          "name": "from",
          "type": "address"
        },
        {
          "internalType": "address",
          "name": "to",
          "type": "address"
        },
        {
          "internalType": "uint256",
          "name": "tokenId",
          "type": "uint256"
        }
      ],
      "name": "safeTransferFrom",
      "outputs": [],
      "stateMutability": "nonpayable",
      "type": "function"
    },
    {
      "inputs": [
        {
          "internalType": "address",
          "name": "from",
          "type": "address"
        },
        {
          "internalType": "address",
          "name": "to",
          "type": "address"
        },
        {
          "internalType": "uint256",
          "name": "tokenId",
          "type": "uint256"
        },
        {
          "internalType": "bytes",
          "name": "_data",
          "type": "bytes"
        }
      ],
      "name": "safeTransferFrom",
      "outputs": [],
      "stateMutability": "nonpayable",
      "type": "function"
    },
    {
      "inputs": [
        {
          "internalType": "address",
          "name": "operator",
          "type": "address"
        },
        {
          "internalType": "bool",
          "name": "approved",
          "type": "bool"
        }
      ],
      "name": "setApprovalForAll",
      "outputs": [],
      "stateMutability": "nonpayable",
      "type": "function"
    },
    {
      "inputs": [
        {
          "internalType": "bytes4",
          "name": "interfaceId",
          "type": "bytes4"
        }
      ],
      "name": "supportsInterface",
      "outputs": [
        {
          "internalType": "bool",
          "name": "",
          "type": "bool"
        }
      ],
      "stateMutability": "view",
      "type": "function"
    },
    {
      "inputs": [],
      "name": "symbol",
      "outputs": [
        {
          "internalType": "string",
          "name": "",
          "type": "string"
        }
      ],
      "stateMutability": "view",
      "type": "function"
    },
    {
      "inputs": [
        {
          "internalType": "uint256",
          "name": "_tokenId",
          "type": "uint256"
        }
      ],
      "name": "toggleForSale",
      "outputs": [],
      "stateMutability": "nonpayable",
      "type": "function"
    },
    {
      "inputs": [
        {
          "internalType": "uint256",
          "name": "index",
          "type": "uint256"
        }
      ],
      "name": "tokenByIndex",
      "outputs": [
        {
          "internalType": "uint256",
          "name": "",
          "type": "uint256"
        }
      ],
      "stateMutability": "view",
      "type": "function"
    },
    {
      "inputs": [
        {
          "internalType": "string",
          "name": "",
          "type": "string"
        }
      ],
      "name": "tokenNameExists",
      "outputs": [
        {
          "internalType": "bool",
          "name": "",
          "type": "bool"
        }
      ],
      "stateMutability": "view",
      "type": "function"
    },
    {
      "inputs": [
        {
          "internalType": "address",
          "name": "owner",
          "type": "address"
        },
        {
          "internalType": "uint256",
          "name": "index",
          "type": "uint256"
        }
      ],
      "name": "tokenOfOwnerByIndex",
      "outputs": [
        {
          "internalType": "uint256",
          "name": "",
          "type": "uint256"
        }
      ],
      "stateMutability": "view",
      "type": "function"
    },
    {
      "inputs": [
        {
          "internalType": "uint256",
          "name": "tokenId",
          "type": "uint256"
        }
      ],
      "name": "tokenURI",
      "outputs": [
        {
          "internalType": "string",
          "name": "",
          "type": "string"
        }
      ],
      "stateMutability": "view",
      "type": "function"
    },
    {
      "inputs": [
        {
          "internalType": "string",
          "name": "",
          "type": "string"
        }
      ],
      "name": "tokenURIExists",
      "outputs": [
        {
          "internalType": "bool",
          "name": "",
          "type": "bool"
        }
      ],
      "stateMutability": "view",
      "type": "function"
    },
    {
      "inputs": [],
      "name": "totalSupply",
      "outputs": [
        {
          "internalType": "uint256",
          "name": "",
          "type": "uint256"
        }
      ],
      "stateMutability": "view",
      "type": "function"
    },
    {
      "inputs": [
        {
          "internalType": "address",
          "name": "from",
          "type": "address"
        },
        {
          "internalType": "address",
          "name": "to",
          "type": "address"
        },
        {
          "internalType": "uint256",
          "name": "tokenId",
          "type": "uint256"
        }
      ],
      "name": "transferFrom",
      "outputs": [],
      "stateMutability": "nonpayable",
      "type": "function"
    }
  ],
  "bytecode": "0x60806040523480156200001157600080fd5b506040518060400160405280601581526020017f566f6e646572204e465420436f6c6c656374696f6e00000000000000000000008152506040518060400160405280600581526020017f564e465443000000000000000000000000000000000000000000000000000000815250620000966301ffc9a760e01b6200016860201b60201c565b8160069080519060200190620000ae9291906200038c565b508060079080519060200190620000c79291906200038c565b50620000e06380ac58cd60e01b6200016860201b60201c565b620000f8635b5e139f60e01b6200016860201b60201c565b6200011063780e9d6360e01b6200016860201b60201c565b5050620001226200024060201b60201c565b600a9080519060200190620001399291906200038c565b506200014a620002e660201b60201c565b600b9080519060200190620001619291906200038c565b50620004b7565b63ffffffff60e01b817bffffffffffffffffffffffffffffffffffffffffffffffffffffffff19161415620001d4576040517f08c379a0000000000000000000000000000000000000000000000000000000008152600401620001cb9062000484565b60405180910390fd5b6001600080837bffffffffffffffffffffffffffffffffffffffffffffffffffffffff19167bffffffffffffffffffffffffffffffffffffffffffffffffffffffff1916815260200190815260200160002060006101000a81548160ff02191690831515021790555050565b606060068054600181600116156101000203166002900480601f016020809104026020016040519081016040528092919081815260200182805460018160011615610100020316600290048015620002dc5780601f10620002b057610100808354040283529160200191620002dc565b820191906000526020600020905b815481529060010190602001808311620002be57829003601f168201915b5050505050905090565b606060078054600181600116156101000203166002900480601f016020809104026020016040519081016040528092919081815260200182805460018160011615610100020316600290048015620003825780601f10620003565761010080835404028352916020019162000382565b820191906000526020600020905b8154815290600101906020018083116200036457829003601f168201915b5050505050905090565b828054600181600116156101000203166002900490600052602060002090601f016020900481019282620003c4576000855562000410565b82601f10620003df57805160ff191683800117855562000410565b8280016001018555821562000410579182015b828111156200040f578251825591602001919060010190620003f2565b5b5090506200041f919062000423565b5090565b5b808211156200043e57600081600090555060010162000424565b5090565b600062000451601c83620004a6565b91507f4552433136353a20696e76616c696420696e74657266616365206964000000006000830152602082019050919050565b600060208201905081810360008301526200049f8162000442565b9050919050565b600082825260208201905092915050565b61512080620004c76000396000f3fe6080604052600436106101ee5760003560e01c806367c623cf1161010d578063a32018b9116100a0578063c87b56dd1161006f578063c87b56dd1461078e578063cc151f3a146107cb578063cc28f613146107f6578063e5326ab11461081f578063e985e9c51461084a576101ee565b8063a32018b9146106c2578063a46b1fac146106eb578063a5cd761f14610728578063b88d4fde14610765576101ee565b806380be8454116100dc57806380be8454146106065780638d44807c1461063157806395d89b411461066e578063a22cb46514610699576101ee565b806367c623cf146105365780636c0360eb146105735780636f9507f91461059e57806370a08231146105c9576101ee565b80632f745c59116101855780634a473af2116101545780634a473af21461044e5780634f6ccce71461049357806362e8e8ac146104d05780636352211e146104f9576101ee565b80632f745c591461036e57806342842e0e146103ab57806343902850146103d457806343d32ae714610411576101ee565b8063142687f3116101c1578063142687f3146102c157806318160ddd146102fe57806323b872dd146103295780632d296bf114610352576101ee565b806301ffc9a7146101f357806306fdde0314610230578063081812fc1461025b578063095ea7b314610298575b600080fd5b3480156101ff57600080fd5b5061021a60048036038101906102159190613ecc565b610887565b6040516102279190614a4f565b60405180910390f35b34801561023c57600080fd5b506102456108ee565b6040516102529190614a6a565b60405180910390f35b34801561026757600080fd5b50610282600480360381019061027d919061400f565b610990565b60405161028f91906149e8565b60405180910390f35b3480156102a457600080fd5b506102bf60048036038101906102ba9190613e90565b610a15565b005b3480156102cd57600080fd5b506102e860048036038101906102e3919061400f565b610b2d565b6040516102f59190614a4f565b60405180910390f35b34801561030a57600080fd5b50610313610b44565b6040516103209190614d6c565b60405180910390f35b34801561033557600080fd5b50610350600480360381019061034b9190613d8a565b610b55565b005b61036c6004803603810190610367919061400f565b610bb5565b005b34801561037a57600080fd5b5061039560048036038101906103909190613e90565b61118e565b6040516103a29190614d6c565b60405180910390f35b3480156103b757600080fd5b506103d260048036038101906103cd9190613d8a565b6111e9565b005b3480156103e057600080fd5b506103fb60048036038101906103f69190613d25565b611209565b6040516104089190614d6c565b60405180910390f35b34801561041d57600080fd5b5061043860048036038101906104339190613f1e565b611220565b6040516104459190614a4f565b60405180910390f35b34801561045a57600080fd5b506104756004803603810190610470919061400f565b611256565b60405161048a99989796959493929190614d87565b60405180910390f35b34801561049f57600080fd5b506104ba60048036038101906104b5919061400f565b611441565b6040516104c79190614d6c565b60405180910390f35b3480156104dc57600080fd5b506104f760048036038101906104f29190614038565b611464565b005b34801561050557600080fd5b50610520600480360381019061051b919061400f565b61190c565b60405161052d91906149e8565b60405180910390f35b34801561054257600080fd5b5061055d6004803603810190610558919061400f565b611943565b60405161056a9190614a6a565b60405180910390f35b34801561057f57600080fd5b5061058861195b565b6040516105959190614a6a565b60405180910390f35b3480156105aa57600080fd5b506105b36119fd565b6040516105c09190614a6a565b60405180910390f35b3480156105d557600080fd5b506105f060048036038101906105eb9190613d25565b611a9b565b6040516105fd9190614d6c565b60405180910390f35b34801561061257600080fd5b5061061b611b5a565b6040516106289190614d6c565b60405180910390f35b34801561063d57600080fd5b5061065860048036038101906106539190613f1e565b611b60565b6040516106659190614a4f565b60405180910390f35b34801561067a57600080fd5b50610683611b96565b6040516106909190614a6a565b60405180910390f35b3480156106a557600080fd5b506106c060048036038101906106bb9190613e54565b611c38565b005b3480156106ce57600080fd5b506106e960048036038101906106e4919061400f565b611db9565b005b3480156106f757600080fd5b50610712600480360381019061070d9190613f1e565b61228b565b60405161071f9190614a4f565b60405180910390f35b34801561073457600080fd5b5061074f600480360381019061074a919061400f565b6122c1565b60405161075c91906149e8565b60405180910390f35b34801561077157600080fd5b5061078c60048036038101906107879190613dd9565b6122d8565b005b34801561079a57600080fd5b506107b560048036038101906107b0919061400f565b61233a565b6040516107c29190614a6a565b60405180910390f35b3480156107d757600080fd5b506107e06124bd565b6040516107ed9190614d6c565b60405180910390f35b34801561080257600080fd5b5061081d60048036038101906108189190613f5f565b6124d1565b005b34801561082b57600080fd5b50610834612a0f565b6040516108419190614a6a565b60405180910390f35b34801561085657600080fd5b50610871600480360381019061086c9190613d4e565b612aad565b60405161087e9190614a4f565b60405180910390f35b6000806000837bffffffffffffffffffffffffffffffffffffffffffffffffffffffff19167bffffffffffffffffffffffffffffffffffffffffffffffffffffffff1916815260200190815260200160002060009054906101000a900460ff169050919050565b606060068054600181600116156101000203166002900480601f0160208091040260200160405190810160405280929190818152602001828054600181600116156101000203166002900480156109865780601f1061095b57610100808354040283529160200191610986565b820191906000526020600020905b81548152906001019060200180831161096957829003601f168201915b5050505050905090565b600061099b82612b41565b6109da576040517f08c379a00000000000000000000000000000000000000000000000000000000081526004016109d190614c0c565b60405180910390fd5b6004600083815260200190815260200160002060009054906101000a900473ffffffffffffffffffffffffffffffffffffffff169050919050565b6000610a208261190c565b90508073ffffffffffffffffffffffffffffffffffffffff168373ffffffffffffffffffffffffffffffffffffffff161415610a91576040517f08c379a0000000000000000000000000000000000000000000000000000000008152600401610a8890614ccc565b60405180910390fd5b8073ffffffffffffffffffffffffffffffffffffffff16610ab0612b5e565b73ffffffffffffffffffffffffffffffffffffffff161480610adf5750610ade81610ad9612b5e565b612aad565b5b610b1e576040517f08c379a0000000000000000000000000000000000000000000000000000000008152600401610b1590614b8c565b60405180910390fd5b610b288383612b66565b505050565b600080610b3983612b41565b905080915050919050565b6000610b506002612c1f565b905090565b610b66610b60612b5e565b82612c34565b610ba5576040517f08c379a0000000000000000000000000000000000000000000000000000000008152600401610b9c90614d0c565b60405180910390fd5b610bb0838383612d12565b505050565b600073ffffffffffffffffffffffffffffffffffffffff163373ffffffffffffffffffffffffffffffffffffffff161415610bef57600080fd5b610bf881612b41565b610c0157600080fd5b6000610c0c8261190c565b9050600073ffffffffffffffffffffffffffffffffffffffff168173ffffffffffffffffffffffffffffffffffffffff161415610c4857600080fd5b3373ffffffffffffffffffffffffffffffffffffffff168173ffffffffffffffffffffffffffffffffffffffff161415610c8157600080fd5b6000600d60008481526020019081526020016000206040518061012001604052908160008201548152602001600182018054600181600116156101000203166002900480601f016020809104026020016040519081016040528092919081815260200182805460018160011615610100020316600290048015610d455780601f10610d1a57610100808354040283529160200191610d45565b820191906000526020600020905b815481529060010190602001808311610d2857829003601f168201915b50505050508152602001600282018054600181600116156101000203166002900480601f016020809104026020016040519081016040528092919081815260200182805460018160011615610100020316600290048015610de75780601f10610dbc57610100808354040283529160200191610de7565b820191906000526020600020905b815481529060010190602001808311610dca57829003601f168201915b505050505081526020016003820160009054906101000a900473ffffffffffffffffffffffffffffffffffffffff1673ffffffffffffffffffffffffffffffffffffffff1673ffffffffffffffffffffffffffffffffffffffff1681526020016004820160009054906101000a900473ffffffffffffffffffffffffffffffffffffffff1673ffffffffffffffffffffffffffffffffffffffff1673ffffffffffffffffffffffffffffffffffffffff1681526020016005820160009054906101000a900473ffffffffffffffffffffffffffffffffffffffff1673ffffffffffffffffffffffffffffffffffffffff1673ffffffffffffffffffffffffffffffffffffffff16815260200160068201548152602001600782015481526020016008820160009054906101000a900460ff16151515158152505090508060c00151341015610f3457600080fd5b806101000151610f4357600080fd5b610f4e823385612d12565b6000816080015190508073ffffffffffffffffffffffffffffffffffffffff166108fc349081150290604051600060405180830381858888f19350505050158015610f9d573d6000803e3d6000fd5b5081608001518260a0019073ffffffffffffffffffffffffffffffffffffffff16908173ffffffffffffffffffffffffffffffffffffffff168152505033826080019073ffffffffffffffffffffffffffffffffffffffff16908173ffffffffffffffffffffffffffffffffffffffff168152505060018260e001818151019150818152505081600d600086815260200190815260200160002060008201518160000155602082015181600101908051906020019061105d929190613af7565b50604082015181600201908051906020019061107a929190613af7565b5060608201518160030160006101000a81548173ffffffffffffffffffffffffffffffffffffffff021916908373ffffffffffffffffffffffffffffffffffffffff16021790555060808201518160040160006101000a81548173ffffffffffffffffffffffffffffffffffffffff021916908373ffffffffffffffffffffffffffffffffffffffff16021790555060a08201518160050160006101000a81548173ffffffffffffffffffffffffffffffffffffffff021916908373ffffffffffffffffffffffffffffffffffffffff16021790555060c0820151816006015560e082015181600701556101008201518160080160006101000a81548160ff02191690831515021790555090505050505050565b60006111e182600160008673ffffffffffffffffffffffffffffffffffffffff1673ffffffffffffffffffffffffffffffffffffffff168152602001908152602001600020612f2990919063ffffffff16565b905092915050565b611204838383604051806020016040528060008152506122d8565b505050565b60008061121583611a9b565b905080915050919050565b6010818051602081018201805184825260208301602085012081835280955050505050506000915054906101000a900460ff1681565b600d602052806000526040600020600091509050806000015490806001018054600181600116156101000203166002900480601f0160208091040260200160405190810160405280929190818152602001828054600181600116156101000203166002900480156113085780601f106112dd57610100808354040283529160200191611308565b820191906000526020600020905b8154815290600101906020018083116112eb57829003601f168201915b505050505090806002018054600181600116156101000203166002900480601f0160208091040260200160405190810160405280929190818152602001828054600181600116156101000203166002900480156113a65780601f1061137b576101008083540402835291602001916113a6565b820191906000526020600020905b81548152906001019060200180831161138957829003601f168201915b5050505050908060030160009054906101000a900473ffffffffffffffffffffffffffffffffffffffff16908060040160009054906101000a900473ffffffffffffffffffffffffffffffffffffffff16908060050160009054906101000a900473ffffffffffffffffffffffffffffffffffffffff16908060060154908060070154908060080160009054906101000a900460ff16905089565b600080611458836002612f4390919063ffffffff16565b50905080915050919050565b600073ffffffffffffffffffffffffffffffffffffffff163373ffffffffffffffffffffffffffffffffffffffff16141561149e57600080fd5b6114a782612b41565b6114b057600080fd5b60006114bb8361190c565b90503373ffffffffffffffffffffffffffffffffffffffff168173ffffffffffffffffffffffffffffffffffffffff16146114f557600080fd5b6000600d60008581526020019081526020016000206040518061012001604052908160008201548152602001600182018054600181600116156101000203166002900480601f0160208091040260200160405190810160405280929190818152602001828054600181600116156101000203166002900480156115b95780601f1061158e576101008083540402835291602001916115b9565b820191906000526020600020905b81548152906001019060200180831161159c57829003601f168201915b50505050508152602001600282018054600181600116156101000203166002900480601f01602080910402602001604051908101604052809291908181526020018280546001816001161561010002031660029004801561165b5780601f106116305761010080835404028352916020019161165b565b820191906000526020600020905b81548152906001019060200180831161163e57829003601f168201915b505050505081526020016003820160009054906101000a900473ffffffffffffffffffffffffffffffffffffffff1673ffffffffffffffffffffffffffffffffffffffff1673ffffffffffffffffffffffffffffffffffffffff1681526020016004820160009054906101000a900473ffffffffffffffffffffffffffffffffffffffff1673ffffffffffffffffffffffffffffffffffffffff1673ffffffffffffffffffffffffffffffffffffffff1681526020016005820160009054906101000a900473ffffffffffffffffffffffffffffffffffffffff1673ffffffffffffffffffffffffffffffffffffffff1673ffffffffffffffffffffffffffffffffffffffff16815260200160068201548152602001600782015481526020016008820160009054906101000a900460ff1615151515815250509050828160c001818152505080600d60008681526020019081526020016000206000820151816000015560208201518160010190805190602001906117db929190613af7565b5060408201518160020190805190602001906117f8929190613af7565b5060608201518160030160006101000a81548173ffffffffffffffffffffffffffffffffffffffff021916908373ffffffffffffffffffffffffffffffffffffffff16021790555060808201518160040160006101000a81548173ffffffffffffffffffffffffffffffffffffffff021916908373ffffffffffffffffffffffffffffffffffffffff16021790555060a08201518160050160006101000a81548173ffffffffffffffffffffffffffffffffffffffff021916908373ffffffffffffffffffffffffffffffffffffffff16021790555060c0820151816006015560e082015181600701556101008201518160080160006101000a81548160ff02191690831515021790555090505050505050565b600061193c826040518060600160405280602981526020016150c2602991396002612f6f9092919063ffffffff16565b9050919050565b606060006119508361233a565b905080915050919050565b606060098054600181600116156101000203166002900480601f0160208091040260200160405190810160405280929190818152602001828054600181600116156101000203166002900480156119f35780601f106119c8576101008083540402835291602001916119f3565b820191906000526020600020905b8154815290600101906020018083116119d657829003601f168201915b5050505050905090565b600b8054600181600116156101000203166002900480601f016020809104026020016040519081016040528092919081815260200182805460018160011615610100020316600290048015611a935780601f10611a6857610100808354040283529160200191611a93565b820191906000526020600020905b815481529060010190602001808311611a7657829003601f168201915b505050505081565b60008073ffffffffffffffffffffffffffffffffffffffff168273ffffffffffffffffffffffffffffffffffffffff161415611b0c576040517f08c379a0000000000000000000000000000000000000000000000000000000008152600401611b0390614bac565b60405180910390fd5b611b53600160008473ffffffffffffffffffffffffffffffffffffffff1673ffffffffffffffffffffffffffffffffffffffff168152602001908152602001600020612f8e565b9050919050565b600c5481565b600f818051602081018201805184825260208301602085012081835280955050505050506000915054906101000a900460ff1681565b606060078054600181600116156101000203166002900480601f016020809104026020016040519081016040528092919081815260200182805460018160011615610100020316600290048015611c2e5780601f10611c0357610100808354040283529160200191611c2e565b820191906000526020600020905b815481529060010190602001808311611c1157829003601f168201915b5050505050905090565b611c40612b5e565b73ffffffffffffffffffffffffffffffffffffffff168273ffffffffffffffffffffffffffffffffffffffff161415611cae576040517f08c379a0000000000000000000000000000000000000000000000000000000008152600401611ca590614b0c565b60405180910390fd5b8060056000611cbb612b5e565b73ffffffffffffffffffffffffffffffffffffffff1673ffffffffffffffffffffffffffffffffffffffff16815260200190815260200160002060008473ffffffffffffffffffffffffffffffffffffffff1673ffffffffffffffffffffffffffffffffffffffff16815260200190815260200160002060006101000a81548160ff0219169083151502179055508173ffffffffffffffffffffffffffffffffffffffff16611d68612b5e565b73ffffffffffffffffffffffffffffffffffffffff167f17307eab39ab6107e8899845ad3d59bd9653f200f220920489ca2b5937696c3183604051611dad9190614a4f565b60405180910390a35050565b600073ffffffffffffffffffffffffffffffffffffffff163373ffffffffffffffffffffffffffffffffffffffff161415611df357600080fd5b611dfc81612b41565b611e0557600080fd5b6000611e108261190c565b90503373ffffffffffffffffffffffffffffffffffffffff168173ffffffffffffffffffffffffffffffffffffffff1614611e4a57600080fd5b6000600d60008481526020019081526020016000206040518061012001604052908160008201548152602001600182018054600181600116156101000203166002900480601f016020809104026020016040519081016040528092919081815260200182805460018160011615610100020316600290048015611f0e5780601f10611ee357610100808354040283529160200191611f0e565b820191906000526020600020905b815481529060010190602001808311611ef157829003601f168201915b50505050508152602001600282018054600181600116156101000203166002900480601f016020809104026020016040519081016040528092919081815260200182805460018160011615610100020316600290048015611fb05780601f10611f8557610100808354040283529160200191611fb0565b820191906000526020600020905b815481529060010190602001808311611f9357829003601f168201915b505050505081526020016003820160009054906101000a900473ffffffffffffffffffffffffffffffffffffffff1673ffffffffffffffffffffffffffffffffffffffff1673ffffffffffffffffffffffffffffffffffffffff1681526020016004820160009054906101000a900473ffffffffffffffffffffffffffffffffffffffff1673ffffffffffffffffffffffffffffffffffffffff1673ffffffffffffffffffffffffffffffffffffffff1681526020016005820160009054906101000a900473ffffffffffffffffffffffffffffffffffffffff1673ffffffffffffffffffffffffffffffffffffffff1673ffffffffffffffffffffffffffffffffffffffff16815260200160068201548152602001600782015481526020016008820160009054906101000a900460ff16151515158152505090508061010001511561210e57600081610100019015159081151581525050612121565b6001816101000190151590811515815250505b80600d600085815260200190815260200160002060008201518160000155602082015181600101908051906020019061215b929190613af7565b506040820151816002019080519060200190612178929190613af7565b5060608201518160030160006101000a81548173ffffffffffffffffffffffffffffffffffffffff021916908373ffffffffffffffffffffffffffffffffffffffff16021790555060808201518160040160006101000a81548173ffffffffffffffffffffffffffffffffffffffff021916908373ffffffffffffffffffffffffffffffffffffffff16021790555060a08201518160050160006101000a81548173ffffffffffffffffffffffffffffffffffffffff021916908373ffffffffffffffffffffffffffffffffffffffff16021790555060c0820151816006015560e082015181600701556101008201518160080160006101000a81548160ff021916908315150217905550905050505050565b600e818051602081018201805184825260208301602085012081835280955050505050506000915054906101000a900460ff1681565b6000806122cd8361190c565b905080915050919050565b6122e96122e3612b5e565b83612c34565b612328576040517f08c379a000000000000000000000000000000000000000000000000000000000815260040161231f90614d0c565b60405180910390fd5b61233484848484612fa3565b50505050565b606061234582612b41565b612384576040517f08c379a000000000000000000000000000000000000000000000000000000000815260040161237b90614c8c565b60405180910390fd5b6000600860008481526020019081526020016000208054600181600116156101000203166002900480601f01602080910402602001604051908101604052809291908181526020018280546001816001161561010002031660029004801561242d5780601f106124025761010080835404028352916020019161242d565b820191906000526020600020905b81548152906001019060200180831161241057829003601f168201915b50505050509050600061243e61195b565b90506000815114156124545781925050506124b8565b6000825111156124895780826040516020016124719291906149c4565b604051602081830303815290604052925050506124b8565b8061249385612fff565b6040516020016124a49291906149c4565b604051602081830303815290604052925050505b919050565b6000806124c8610b44565b90508091505090565b600073ffffffffffffffffffffffffffffffffffffffff163373ffffffffffffffffffffffffffffffffffffffff161415612541576040517f08c379a000000000000000000000000000000000000000000000000000000000815260040161253890614cac565b60405180910390fd5b600c6000815480929190600101919050555061255e600c54612b41565b1561259e576040517f08c379a000000000000000000000000000000000000000000000000000000000815260040161259590614cec565b60405180910390fd5b60005b8282905081101561264357600f8383838181106125ba57fe5b90506020028101906125cc9190614e22565b6040516125da929190614994565b908152602001604051809103902060009054906101000a900460ff1615612636576040517f08c379a000000000000000000000000000000000000000000000000000000000815260040161262d90614d4c565b60405180910390fd5b80806001019150506125a1565b5060108460405161265491906149ad565b908152602001604051809103902060009054906101000a900460ff16156126b0576040517f08c379a00000000000000000000000000000000000000000000000000000000081526004016126a790614b6c565b60405180910390fd5b600e856040516126c091906149ad565b908152602001604051809103902060009054906101000a900460ff161561271c576040517f08c379a000000000000000000000000000000000000000000000000000000000815260040161271390614c6c565b60405180910390fd5b61272833600c54613146565b612734600c54856132d4565b60005b828290508110156127a4576001600f84848481811061275257fe5b90506020028101906127649190614e22565b604051612772929190614994565b908152602001604051809103902060006101000a81548160ff0219169083151502179055508080600101915050612737565b5060016010856040516127b791906149ad565b908152602001604051809103902060006101000a81548160ff0219169083151502179055506001600e866040516127ee91906149ad565b908152602001604051809103902060006101000a81548160ff0219169083151502179055506000604051806101200160405280600c5481526020018781526020018681526020013373ffffffffffffffffffffffffffffffffffffffff1681526020013373ffffffffffffffffffffffffffffffffffffffff168152602001600073ffffffffffffffffffffffffffffffffffffffff1681526020018581526020016000815260200160011515815250905080600d6000600c5481526020019081526020016000206000820151816000015560208201518160010190805190602001906128dc929190613af7565b5060408201518160020190805190602001906128f9929190613af7565b5060608201518160030160006101000a81548173ffffffffffffffffffffffffffffffffffffffff021916908373ffffffffffffffffffffffffffffffffffffffff16021790555060808201518160040160006101000a81548173ffffffffffffffffffffffffffffffffffffffff021916908373ffffffffffffffffffffffffffffffffffffffff16021790555060a08201518160050160006101000a81548173ffffffffffffffffffffffffffffffffffffffff021916908373ffffffffffffffffffffffffffffffffffffffff16021790555060c0820151816006015560e082015181600701556101008201518160080160006101000a81548160ff021916908315150217905550905050505050505050565b600a8054600181600116156101000203166002900480601f016020809104026020016040519081016040528092919081815260200182805460018160011615610100020316600290048015612aa55780601f10612a7a57610100808354040283529160200191612aa5565b820191906000526020600020905b815481529060010190602001808311612a8857829003601f168201915b505050505081565b6000600560008473ffffffffffffffffffffffffffffffffffffffff1673ffffffffffffffffffffffffffffffffffffffff16815260200190815260200160002060008373ffffffffffffffffffffffffffffffffffffffff1673ffffffffffffffffffffffffffffffffffffffff16815260200190815260200160002060009054906101000a900460ff16905092915050565b6000612b5782600261334890919063ffffffff16565b9050919050565b600033905090565b816004600083815260200190815260200160002060006101000a81548173ffffffffffffffffffffffffffffffffffffffff021916908373ffffffffffffffffffffffffffffffffffffffff160217905550808273ffffffffffffffffffffffffffffffffffffffff16612bd98361190c565b73ffffffffffffffffffffffffffffffffffffffff167f8c5be1e5ebec7d5bd14f71427d1e84f3dd0314c0f7b2291e5b200ac8c7c3b92560405160405180910390a45050565b6000612c2d82600001613362565b9050919050565b6000612c3f82612b41565b612c7e576040517f08c379a0000000000000000000000000000000000000000000000000000000008152600401612c7590614b4c565b60405180910390fd5b6000612c898361190c565b90508073ffffffffffffffffffffffffffffffffffffffff168473ffffffffffffffffffffffffffffffffffffffff161480612cf857508373ffffffffffffffffffffffffffffffffffffffff16612ce084610990565b73ffffffffffffffffffffffffffffffffffffffff16145b80612d095750612d088185612aad565b5b91505092915050565b8273ffffffffffffffffffffffffffffffffffffffff16612d328261190c565b73ffffffffffffffffffffffffffffffffffffffff1614612d88576040517f08c379a0000000000000000000000000000000000000000000000000000000008152600401612d7f90614c4c565b60405180910390fd5b600073ffffffffffffffffffffffffffffffffffffffff168273ffffffffffffffffffffffffffffffffffffffff161415612df8576040517f08c379a0000000000000000000000000000000000000000000000000000000008152600401612def90614aec565b60405180910390fd5b612e03838383613373565b612e0e600082612b66565b612e5f81600160008673ffffffffffffffffffffffffffffffffffffffff1673ffffffffffffffffffffffffffffffffffffffff16815260200190815260200160002061337890919063ffffffff16565b50612eb181600160008573ffffffffffffffffffffffffffffffffffffffff1673ffffffffffffffffffffffffffffffffffffffff16815260200190815260200160002061339290919063ffffffff16565b50612ec8818360026133ac9092919063ffffffff16565b50808273ffffffffffffffffffffffffffffffffffffffff168473ffffffffffffffffffffffffffffffffffffffff167fddf252ad1be2c89b69c2b068fc378daa952ba7f163c4a11628f55a4df523b3ef60405160405180910390a4505050565b6000612f3883600001836133e1565b60001c905092915050565b600080600080612f56866000018661344e565b915091508160001c8160001c9350935050509250929050565b6000612f82846000018460001b846134d1565b60001c90509392505050565b6000612f9c82600001613562565b9050919050565b612fae848484612d12565b612fba84848484613573565b612ff9576040517f08c379a0000000000000000000000000000000000000000000000000000000008152600401612ff090614aac565b60405180910390fd5b50505050565b60606000821415613047576040518060400160405280600181526020017f30000000000000000000000000000000000000000000000000000000000000008152509050613141565b600082905060005b60008214613071578080600101915050600a828161306957fe5b04915061304f565b60008167ffffffffffffffff8111801561308a57600080fd5b506040519080825280601f01601f1916602001820160405280156130bd5781602001600182028036833780820191505090505b50905060006001830390508593505b6000841461313957600a84816130de57fe5b0660300160f81b828280600190039350815181106130f857fe5b60200101907effffffffffffffffffffffffffffffffffffffffffffffffffffffffffffff1916908160001a905350600a848161313157fe5b0493506130cc565b819450505050505b919050565b600073ffffffffffffffffffffffffffffffffffffffff168273ffffffffffffffffffffffffffffffffffffffff1614156131b6576040517f08c379a00000000000000000000000000000000000000000000000000000000081526004016131ad90614bec565b60405180910390fd5b6131bf81612b41565b156131ff576040517f08c379a00000000000000000000000000000000000000000000000000000000081526004016131f690614acc565b60405180910390fd5b61320b60008383613373565b61325c81600160008573ffffffffffffffffffffffffffffffffffffffff1673ffffffffffffffffffffffffffffffffffffffff16815260200190815260200160002061339290919063ffffffff16565b50613273818360026133ac9092919063ffffffff16565b50808273ffffffffffffffffffffffffffffffffffffffff16600073ffffffffffffffffffffffffffffffffffffffff167fddf252ad1be2c89b69c2b068fc378daa952ba7f163c4a11628f55a4df523b3ef60405160405180910390a45050565b6132dd82612b41565b61331c576040517f08c379a000000000000000000000000000000000000000000000000000000000815260040161331390614c2c565b60405180910390fd5b80600860008481526020019081526020016000209080519060200190613343929190613af7565b505050565b600061335a836000018360001b6136d7565b905092915050565b600081600001805490509050919050565b505050565b600061338a836000018360001b6136fa565b905092915050565b60006133a4836000018360001b6137e2565b905092915050565b60006133d8846000018460001b8473ffffffffffffffffffffffffffffffffffffffff1660001b613852565b90509392505050565b60008183600001805490501161342c576040517f08c379a000000000000000000000000000000000000000000000000000000000815260040161342390614a8c565b60405180910390fd5b82600001828154811061343b57fe5b9060005260206000200154905092915050565b6000808284600001805490501161349a576040517f08c379a000000000000000000000000000000000000000000000000000000000815260040161349190614bcc565b60405180910390fd5b60008460000184815481106134ab57fe5b906000526020600020906002020190508060000154816001015492509250509250929050565b60008084600101600085815260200190815260200160002054905060008114158390613533576040517f08c379a000000000000000000000000000000000000000000000000000000000815260040161352a9190614a6a565b60405180910390fd5b5084600001600182038154811061354657fe5b9060005260206000209060020201600101549150509392505050565b600081600001805490509050919050565b60006135948473ffffffffffffffffffffffffffffffffffffffff1661392e565b6135a157600190506136cf565b600061366863150b7a0260e01b6135b6612b5e565b8887876040516024016135cc9493929190614a03565b604051602081830303815290604052907bffffffffffffffffffffffffffffffffffffffffffffffffffffffff19166020820180517bffffffffffffffffffffffffffffffffffffffffffffffffffffffff8381831617835250505050604051806060016040528060328152602001615090603291398773ffffffffffffffffffffffffffffffffffffffff166139419092919063ffffffff16565b90506000818060200190518101906136809190613ef5565b905063150b7a0260e01b7bffffffffffffffffffffffffffffffffffffffffffffffffffffffff1916817bffffffffffffffffffffffffffffffffffffffffffffffffffffffff191614925050505b949350505050565b600080836001016000848152602001908152602001600020541415905092915050565b600080836001016000848152602001908152602001600020549050600081146137d6576000600182039050600060018660000180549050039050600086600001828154811061374557fe5b906000526020600020015490508087600001848154811061376257fe5b906000526020600020018190555060018301876001016000838152602001908152602001600020819055508660000180548061379a57fe5b600190038181906000526020600020016000905590558660010160008781526020019081526020016000206000905560019450505050506137dc565b60009150505b92915050565b60006137ee8383613959565b61384757826000018290806001815401808255809150506001900390600052602060002001600090919091909150558260000180549050836001016000848152602001908152602001600020819055506001905061384c565b600090505b92915050565b60008084600101600085815260200190815260200160002054905060008114156138f957846000016040518060400160405280868152602001858152509080600181540180825580915050600190039060005260206000209060020201600090919091909150600082015181600001556020820151816001015550508460000180549050856001016000868152602001908152602001600020819055506001915050613927565b8285600001600183038154811061390c57fe5b90600052602060002090600202016001018190555060009150505b9392505050565b600080823b905060008111915050919050565b6060613950848460008561397c565b90509392505050565b600080836001016000848152602001908152602001600020541415905092915050565b6060824710156139c1576040517f08c379a00000000000000000000000000000000000000000000000000000000081526004016139b890614b2c565b60405180910390fd5b6139ca8561392e565b613a09576040517f08c379a0000000000000000000000000000000000000000000000000000000008152600401613a0090614d2c565b60405180910390fd5b6000808673ffffffffffffffffffffffffffffffffffffffff168587604051613a32919061497d565b60006040518083038185875af1925050503d8060008114613a6f576040519150601f19603f3d011682016040523d82523d6000602084013e613a74565b606091505b5091509150613a84828286613a90565b92505050949350505050565b60608315613aa057829050613af0565b600083511115613ab35782518084602001fd5b816040517f08c379a0000000000000000000000000000000000000000000000000000000008152600401613ae79190614a6a565b60405180910390fd5b9392505050565b828054600181600116156101000203166002900490600052602060002090601f016020900481019282613b2d5760008555613b74565b82601f10613b4657805160ff1916838001178555613b74565b82800160010185558215613b74579182015b82811115613b73578251825591602001919060010190613b58565b5b509050613b819190613b85565b5090565b5b80821115613b9e576000816000905550600101613b86565b5090565b6000613bb5613bb084614eaa565b614e79565b905082815260208101848484011115613bcd57600080fd5b613bd8848285614fde565b509392505050565b6000613bf3613bee84614eda565b614e79565b905082815260208101848484011115613c0b57600080fd5b613c16848285614fde565b509392505050565b600081359050613c2d81615033565b92915050565b60008083601f840112613c4557600080fd5b8235905067ffffffffffffffff811115613c5e57600080fd5b602083019150836020820283011115613c7657600080fd5b9250929050565b600081359050613c8c8161504a565b92915050565b600081359050613ca181615061565b92915050565b600081519050613cb681615061565b92915050565b600082601f830112613ccd57600080fd5b8135613cdd848260208601613ba2565b91505092915050565b600082601f830112613cf757600080fd5b8135613d07848260208601613be0565b91505092915050565b600081359050613d1f81615078565b92915050565b600060208284031215613d3757600080fd5b6000613d4584828501613c1e565b91505092915050565b60008060408385031215613d6157600080fd5b6000613d6f85828601613c1e565b9250506020613d8085828601613c1e565b9150509250929050565b600080600060608486031215613d9f57600080fd5b6000613dad86828701613c1e565b9350506020613dbe86828701613c1e565b9250506040613dcf86828701613d10565b9150509250925092565b60008060008060808587031215613def57600080fd5b6000613dfd87828801613c1e565b9450506020613e0e87828801613c1e565b9350506040613e1f87828801613d10565b925050606085013567ffffffffffffffff811115613e3c57600080fd5b613e4887828801613cbc565b91505092959194509250565b60008060408385031215613e6757600080fd5b6000613e7585828601613c1e565b9250506020613e8685828601613c7d565b9150509250929050565b60008060408385031215613ea357600080fd5b6000613eb185828601613c1e565b9250506020613ec285828601613d10565b9150509250929050565b600060208284031215613ede57600080fd5b6000613eec84828501613c92565b91505092915050565b600060208284031215613f0757600080fd5b6000613f1584828501613ca7565b91505092915050565b600060208284031215613f3057600080fd5b600082013567ffffffffffffffff811115613f4a57600080fd5b613f5684828501613ce6565b91505092915050565b600080600080600060808688031215613f7757600080fd5b600086013567ffffffffffffffff811115613f9157600080fd5b613f9d88828901613ce6565b955050602086013567ffffffffffffffff811115613fba57600080fd5b613fc688828901613ce6565b9450506040613fd788828901613d10565b935050606086013567ffffffffffffffff811115613ff457600080fd5b61400088828901613c33565b92509250509295509295909350565b60006020828403121561402157600080fd5b600061402f84828501613d10565b91505092915050565b6000806040838503121561404b57600080fd5b600061405985828601613d10565b925050602061406a85828601613d10565b9150509250929050565b61407d81614f6a565b82525050565b61408c81614f58565b82525050565b61409b81614f7c565b82525050565b60006140ac82614f0a565b6140b68185614f20565b93506140c6818560208601614fed565b6140cf81615022565b840191505092915050565b60006140e582614f0a565b6140ef8185614f31565b93506140ff818560208601614fed565b80840191505092915050565b60006141178385614f4d565b9350614124838584614fde565b82840190509392505050565b600061413b82614f15565b6141458185614f3c565b9350614155818560208601614fed565b61415e81615022565b840191505092915050565b600061417482614f15565b61417e8185614f4d565b935061418e818560208601614fed565b80840191505092915050565b60006141a7602283614f3c565b91507f456e756d657261626c655365743a20696e646578206f7574206f6620626f756e60008301527f64730000000000000000000000000000000000000000000000000000000000006020830152604082019050919050565b600061420d603283614f3c565b91507f4552433732313a207472616e7366657220746f206e6f6e20455243373231526560008301527f63656976657220696d706c656d656e74657200000000000000000000000000006020830152604082019050919050565b6000614273601c83614f3c565b91507f4552433732313a20746f6b656e20616c7265616479206d696e746564000000006000830152602082019050919050565b60006142b3602483614f3c565b91507f4552433732313a207472616e7366657220746f20746865207a65726f2061646460008301527f72657373000000000000000000000000000000000000000000000000000000006020830152604082019050919050565b6000614319601983614f3c565b91507f4552433732313a20617070726f766520746f2063616c6c6572000000000000006000830152602082019050919050565b6000614359602683614f3c565b91507f416464726573733a20696e73756666696369656e742062616c616e636520666f60008301527f722063616c6c00000000000000000000000000000000000000000000000000006020830152604082019050919050565b60006143bf602c83614f3c565b91507f4552433732313a206f70657261746f7220717565727920666f72206e6f6e657860008301527f697374656e7420746f6b656e00000000000000000000000000000000000000006020830152604082019050919050565b6000614425601083614f3c565b91507f43726561746520746f6b656e20555249000000000000000000000000000000006000830152602082019050919050565b6000614465603883614f3c565b91507f4552433732313a20617070726f76652063616c6c6572206973206e6f74206f7760008301527f6e6572206e6f7220617070726f76656420666f7220616c6c00000000000000006020830152604082019050919050565b60006144cb602a83614f3c565b91507f4552433732313a2062616c616e636520717565727920666f7220746865207a6560008301527f726f2061646472657373000000000000000000000000000000000000000000006020830152604082019050919050565b6000614531602283614f3c565b91507f456e756d657261626c654d61703a20696e646578206f7574206f6620626f756e60008301527f64730000000000000000000000000000000000000000000000000000000000006020830152604082019050919050565b6000614597602083614f3c565b91507f4552433732313a206d696e7420746f20746865207a65726f20616464726573736000830152602082019050919050565b60006145d7602c83614f3c565b91507f4552433732313a20617070726f76656420717565727920666f72206e6f6e657860008301527f697374656e7420746f6b656e00000000000000000000000000000000000000006020830152604082019050919050565b600061463d602c83614f3c565b91507f4552433732314d657461646174613a2055524920736574206f66206e6f6e657860008301527f697374656e7420746f6b656e00000000000000000000000000000000000000006020830152604082019050919050565b60006146a3602983614f3c565b91507f4552433732313a207472616e73666572206f6620746f6b656e2074686174206960008301527f73206e6f74206f776e00000000000000000000000000000000000000000000006020830152604082019050919050565b6000614709601183614f3c565b91507f746f6b656e206e616d65204578697374730000000000000000000000000000006000830152602082019050919050565b6000614749602f83614f3c565b91507f4552433732314d657461646174613a2055524920717565727920666f72206e6f60008301527f6e6578697374656e7420746f6b656e00000000000000000000000000000000006020830152604082019050919050565b60006147af600f83614f3c565b91507f746f6b656e69642e6164647265737300000000000000000000000000000000006000830152602082019050919050565b60006147ef602183614f3c565b91507f4552433732313a20617070726f76616c20746f2063757272656e74206f776e6560008301527f72000000000000000000000000000000000000000000000000000000000000006020830152604082019050919050565b6000614855601083614f3c565b91507f637279746f4e465473436f756e746572000000000000000000000000000000006000830152602082019050919050565b6000614895603183614f3c565b91507f4552433732313a207472616e736665722063616c6c6572206973206e6f74206f60008301527f776e6572206e6f7220617070726f7665640000000000000000000000000000006020830152604082019050919050565b60006148fb601d83614f3c565b91507f416464726573733a2063616c6c20746f206e6f6e2d636f6e74726163740000006000830152602082019050919050565b600061493b600b83614f3c565b91507f636f6c6f724578697374730000000000000000000000000000000000000000006000830152602082019050919050565b61497781614fd4565b82525050565b600061498982846140da565b915081905092915050565b60006149a182848661410b565b91508190509392505050565b60006149b98284614169565b915081905092915050565b60006149d08285614169565b91506149dc8284614169565b91508190509392505050565b60006020820190506149fd6000830184614083565b92915050565b6000608082019050614a186000830187614074565b614a256020830186614083565b614a32604083018561496e565b8181036060830152614a4481846140a1565b905095945050505050565b6000602082019050614a646000830184614092565b92915050565b60006020820190508181036000830152614a848184614130565b905092915050565b60006020820190508181036000830152614aa58161419a565b9050919050565b60006020820190508181036000830152614ac581614200565b9050919050565b60006020820190508181036000830152614ae581614266565b9050919050565b60006020820190508181036000830152614b05816142a6565b9050919050565b60006020820190508181036000830152614b258161430c565b9050919050565b60006020820190508181036000830152614b458161434c565b9050919050565b60006020820190508181036000830152614b65816143b2565b9050919050565b60006020820190508181036000830152614b8581614418565b9050919050565b60006020820190508181036000830152614ba581614458565b9050919050565b60006020820190508181036000830152614bc5816144be565b9050919050565b60006020820190508181036000830152614be581614524565b9050919050565b60006020820190508181036000830152614c058161458a565b9050919050565b60006020820190508181036000830152614c25816145ca565b9050919050565b60006020820190508181036000830152614c4581614630565b9050919050565b60006020820190508181036000830152614c6581614696565b9050919050565b60006020820190508181036000830152614c85816146fc565b9050919050565b60006020820190508181036000830152614ca58161473c565b9050919050565b60006020820190508181036000830152614cc5816147a2565b9050919050565b60006020820190508181036000830152614ce5816147e2565b9050919050565b60006020820190508181036000830152614d0581614848565b9050919050565b60006020820190508181036000830152614d2581614888565b9050919050565b60006020820190508181036000830152614d45816148ee565b9050919050565b60006020820190508181036000830152614d658161492e565b9050919050565b6000602082019050614d81600083018461496e565b92915050565b600061012082019050614d9d600083018c61496e565b8181036020830152614daf818b614130565b90508181036040830152614dc3818a614130565b9050614dd26060830189614074565b614ddf6080830188614074565b614dec60a0830187614074565b614df960c083018661496e565b614e0660e083018561496e565b614e14610100830184614092565b9a9950505050505050505050565b60008083356001602003843603038112614e3b57600080fd5b80840192508235915067ffffffffffffffff821115614e5957600080fd5b602083019250600182023603831315614e7157600080fd5b509250929050565b6000604051905081810181811067ffffffffffffffff82111715614ea057614e9f615020565b5b8060405250919050565b600067ffffffffffffffff821115614ec557614ec4615020565b5b601f19601f8301169050602081019050919050565b600067ffffffffffffffff821115614ef557614ef4615020565b5b601f19601f8301169050602081019050919050565b600081519050919050565b600081519050919050565b600082825260208201905092915050565b600081905092915050565b600082825260208201905092915050565b600081905092915050565b6000614f6382614fb4565b9050919050565b6000614f7582614fb4565b9050919050565b60008115159050919050565b60007fffffffff0000000000000000000000000000000000000000000000000000000082169050919050565b600073ffffffffffffffffffffffffffffffffffffffff82169050919050565b6000819050919050565b82818337600083830152505050565b60005b8381101561500b578082015181840152602081019050614ff0565b8381111561501a576000848401525b50505050565bfe5b6000601f19601f8301169050919050565b61503c81614f58565b811461504757600080fd5b50565b61505381614f7c565b811461505e57600080fd5b50565b61506a81614f88565b811461507557600080fd5b50565b61508181614fd4565b811461508c57600080fd5b5056fe4552433732313a207472616e7366657220746f206e6f6e20455243373231526563656976657220696d706c656d656e7465724552433732313a206f776e657220717565727920666f72206e6f6e6578697374656e7420746f6b656ea2646970667358221220b697729dffd133dc0cc82f964e53d55eeb0d7af312f93c9937966bcd7b12f71164736f6c63430007060033",
  "linkReferences": {},
  "deployedLinkReferences": {}
}